{
  "_format": "hh-sol-artifact-1",
  "contractName": "test",
  "sourceName": "contracts/test.sol",
  "abi": [
    {
      "inputs": [],
      "name": "agency",
      "outputs": [
        {
          "internalType": "contract AgencyImp",
          "name": "",
          "type": "address"
        }
      ],
      "stateMutability": "view",
      "type": "function"
    },
    {
      "inputs": [],
      "name": "agencyDeployAddress",
      "outputs": [
        {
          "internalType": "address",
          "name": "",
          "type": "address"
        }
      ],
      "stateMutability": "view",
      "type": "function"
    },
    {
      "inputs": [],
      "name": "app",
      "outputs": [
        {
          "internalType": "contract AppImp",
          "name": "",
          "type": "address"
        }
      ],
      "stateMutability": "view",
      "type": "function"
    },
    {
      "inputs": [],
      "name": "appDeployAddress",
      "outputs": [
        {
          "internalType": "address",
          "name": "",
          "type": "address"
        }
      ],
      "stateMutability": "view",
      "type": "function"
    },
    {
      "inputs": [],
      "name": "factory",
      "outputs": [
        {
          "internalType": "contract FactoryImp",
          "name": "",
          "type": "address"
        }
      ],
      "stateMutability": "view",
      "type": "function"
    },
    {
      "inputs": [],
      "name": "setUp",
      "outputs": [],
      "stateMutability": "nonpayable",
      "type": "function"
    },
    {
      "stateMutability": "payable",
      "type": "receive"
    }
  ],
  "bytecode": "0x608060405234801561001057600080fd5b50613dd8806100206000396000f3fe608060405260043610620000605760003560e01c80630a9254e4146200006d5780633b91ee26146200008757806367bc87fa14620000c5578063784608dc14620000e7578063b76564bd1462000109578063c45a0155146200012b57600080fd5b366200006857005b600080fd5b3480156200007a57600080fd5b50620000856200014d565b005b3480156200009457600080fd5b50600054620000a9906001600160a01b031681565b6040516001600160a01b03909116815260200160405180910390f35b348015620000d257600080fd5b50600454620000a9906001600160a01b031681565b348015620000f457600080fd5b50600354620000a9906001600160a01b031681565b3480156200011657600080fd5b50600154620000a9906001600160a01b031681565b3480156200013857600080fd5b50600254620000a9906001600160a01b031681565b6040516200015b9062000373565b604051809103906000f08015801562000178573d6000803e3d6000fd5b50600080546001600160a01b0319166001600160a01b0392909216919091179055604051620001a79062000381565b604051809103906000f080158015620001c4573d6000803e3d6000fd5b50600180546001600160a01b0319166001600160a01b0392909216919091179055604051620001f3906200038f565b604051809103906000f08015801562000210573d6000803e3d6000fd5b50600280546001600160a01b0319166001600160a01b039283169081179091556040805160a081018252600080825267016345785d8a00006020808401919091526001838501819052600a60608086018290526080808701929092528651918201875284548916825281840186905286518085018852858152828801528651808501885285815282820152865190810187529154909716815284518083018652838152818301528451808301865283815281860152845191820185529181529251630f47899160e01b815291949390929091630f47899191620002fa918691869160040162000432565b60408051808303816000875af115801562000319573d6000803e3d6000fd5b505050506040513d601f19601f820116820180604052508101906200033f919062000525565b600480546001600160a01b039283166001600160a01b03199182161790915560038054939092169216919091179055505050565b6112c4806200055e83390190565b612040806200182283390190565b610541806200386283390190565b6000815180845260005b81811015620003c557602081850181015186830182015201620003a7565b506000602082860101526020601f19601f83011685010191505092915050565b60018060a01b03815116825260006020820151606060208501526200040e60608501826200039d565b9050604083015184820360408601526200042982826200039d565b95945050505050565b60608152600060018060a01b038086511660608401526020860151818151166080850152602081015160a08501528160408201511660c08501526060810151915061ffff80831660e08601526080820151925061010091508083168286015250604087015191508061012085015250620004b16101608401826200039d565b90506060860151605f1984830301610140850152620004d182826200039d565b9150508281036020840152620004e88186620003e5565b90508281036040840152620004fe81856200039d565b9695505050505050565b80516001600160a01b03811681146200052057600080fd5b919050565b600080604083850312156200053957600080fd5b620005448362000508565b9150620005546020840162000508565b9050925092905056fe608060405234801561001057600080fd5b506112a4806100206000396000f3fe6080604052600436106100955760003560e01c80638ba6cd03116100595780638ba6cd03146101cc5780638e1f1447146101ed578063d1bd51281461020d578063deb21fa21461024a578063fccbd8ef1461027757600080fd5b80630453453a146100a157806307da0603146100f75780633c6e2f2214610124578063432b9fdd14610137578063469927361461019757600080fd5b3661009c57005b600080fd5b3480156100ad57600080fd5b50600280546001600160a01b031916905567016345785d8a0000600355600480546001600160c01b031916760a000a5b38da6a701c568545dcfcb03fcb875f56beddc4179055005b005b34801561010357600080fd5b5061010c61029f565b60405161011b93929190610ea1565b60405180910390f35b6100f5610132366004610f6b565b610340565b34801561014357600080fd5b50610157610152366004610fc7565b61058a565b60405161011b919081516001600160a01b031681526020808301519082015260408083015115159082015260609182015115159181019190915260800190565b3480156101a357600080fd5b506101b76101b2366004611001565b610600565b6040805192835260208301919091520161011b565b6101df6101da3660046110b2565b610680565b60405190815260200161011b565b3480156101f957600080fd5b506101b7610208366004611001565b610b05565b34801561021957600080fd5b506100f5610228366004610fc7565b600180546001600160a01b0319166001600160a01b0392909216919091179055565b34801561025657600080fd5b5061026a610265366004611107565b610b72565b60405161011b9190611120565b34801561028357600080fd5b506001546040516001600160a01b03909116815260200161011b565b6040805160a08101825260008082526020820181905291810182905260608101829052608081018290526040805160a0810182526000815267016345785d8a00006020820152735b38da6a701c568545dcfcb03fcb875f56beddc491810191909152600a60608281018290526080830191909152906103266001546001600160a01b031690565b604080516020810190915260008152909591945092509050565b60008061034b61029f565b509150915061035b823387610b9d565b6103a25760405162461bcd60e51b8152602060048201526013602482015272263726b7b23ab6329d103737ba1037bbb732b960691b60448201526064015b60405180910390fd5b60405163fe9d930360e01b81526001600160a01b0383169063fe9d9303906103d29088908890889060040161115c565b600060405180830381600087803b1580156103ec57600080fd5b505af1158015610400573d6000803e3d6000fd5b505050506000826001600160a01b03166318160ddd6040518163ffffffff1660e01b8152600401602060405180830381865afa158015610444573d6000803e3d6000fd5b505050506040513d601f19601f820116820180604052508101906104689190611176565b90506000806104978360405160200161048391815260200190565b604051602081830303815290604052610b05565b90925090506104b160008a6104ac84866111a5565b610d25565b6104c16000856040015183610d25565b3360009081526020819052604090206002015460ff1615156001146105215760405162461bcd60e51b81526020600482015260166024820152752ab730baba3437b934bd32b21027b832b930ba34b7b760511b6044820152606401610399565b6001600160a01b03891660008181526020818152604091829020600201805460ff1916905581518581529081018490528a92917f6f3909b7a53c87de0fbb65758a177c9d1137e29b1555684084e2e4161b064b2b910160405180910390a3505050505050505050565b60408051608080820183526000808352602080840182905283850182905260609384018290526001600160a01b03958616825281815290849020845192830185528054909516825260018501549082015260029093015460ff808216151593850193909352610100900490911615159082015290565b6000806000838060200190518101906106199190611176565b9050600061062561029f565b50915050606481602001518361063b91906111be565b61064591906111d5565b816020015161065491906111f7565b9350612710816060015161ffff168561066d91906111be565b61067791906111d5565b92505050915091565b60008061068c8561058a565b516001600160a01b0316146106f7573360009081526020819052604090206002015460ff16156106f75760405162461bcd60e51b81526020600482015260166024820152752ab730baba3437b934bd32b21027b832b930ba34b7b760511b6044820152606401610399565b60008061070261029f565b50915091506000826001600160a01b03166318160ddd6040518163ffffffff1660e01b8152600401602060405180830381865afa158015610747573d6000803e3d6000fd5b505050506040513d601f19601f8201168201806040525081019061076b9190611176565b905060008061079a8360405160200161078691815260200190565b604051602081830303815290604052610600565b90925090506107a981836111f7565b3410156107f85760405162461bcd60e51b815260206004820152601d60248201527f4167656e6379496d703a20696e73756666696369656e742066756e64730000006044820152606401610399565b6108086000856040015183610d25565b61081281836111f7565b341115610834576108346000338361082a86346111a5565b6104ac91906111a5565b60405163b510391f60e01b81526000906001600160a01b0387169063b510391f90610867908d908d908d9060040161120a565b6020604051808303816000875af1158015610886573d6000803e3d6000fd5b505050506040513d601f19601f820116820180604052508101906108aa9190611176565b905060006108b78b61058a565b516001600160a01b0316036109d9576040805160808101825260008082526020820181905291810182905260608101919091523381600001906001600160a01b031690816001600160a01b0316815250506000816060019015159081151581525050600181604001901515908115158152505081816020018181525050806000808d6001600160a01b03166001600160a01b0316815260200190815260200160002060008201518160000160006101000a8154816001600160a01b0302191690836001600160a01b031602179055506020820151816001015560408201518160020160006101000a81548160ff02191690831515021790555060608201518160020160016101000a81548160ff02191690831515021790555090505050610a00565b6001600160a01b038a166000908152602081905260409020600201805460ff191660011790555b856001600160a01b03166318160ddd6040518163ffffffff1660e01b8152600401602060405180830381865afa158015610a3e573d6000803e3d6000fd5b505050506040513d601f19601f82011682018060405250810190610a629190611176565b610a6d8560016111f7565b14610ab25760405162461bcd60e51b81526020600482015260156024820152744167656e6379496d703a205265656e7472616e637960581b6044820152606401610399565b604080518481526020810184905282916001600160a01b038d16917f53c6313aa0cdb420b390a846db25405b96983737e602bba548f9ade0e4feaec9910160405180910390a39998505050505050505050565b600080600083806020019051810190610b1e9190611176565b90506000610b2a61029f565b509150506064816020015183610b4091906111be565b610b4a91906111d5565b8160200151610b5991906111f7565b9350612710816080015161ffff168561066d91906111be565b606081604051602001610b8791815260200190565b6040516020818303038152906040529050919050565b6040516331a9108f60e11b815260048101829052600090849082906001600160a01b03831690636352211e90602401602060405180830381865afa158015610be9573d6000803e3d6000fd5b505050506040513d601f19601f82011682018060405250810190610c0d919061122f565b9050806001600160a01b0316856001600160a01b03161480610c9c575060405163e985e9c560e01b81526001600160a01b038281166004830152868116602483015283169063e985e9c590604401602060405180830381865afa158015610c78573d6000803e3d6000fd5b505050506040513d601f19601f82011682018060405250810190610c9c919061124c565b80610d1b575060405163020604bf60e21b8152600481018590526001600160a01b03808716919084169063081812fc90602401602060405180830381865afa158015610cec573d6000803e3d6000fd5b505050506040513d601f19601f82011682018060405250810190610d10919061122f565b6001600160a01b0316145b9695505050505050565b6001600160a01b038316610d4b57610d466001600160a01b03831682610dc4565b505050565b60405163a9059cbb60e01b81526001600160a01b0383811660048301526024820183905284169063a9059cbb906044016020604051808303816000875af1158015610d9a573d6000803e3d6000fd5b505050506040513d601f19601f82011682018060405250810190610dbe919061124c565b50505050565b80471015610de75760405163cd78605960e01b8152306004820152602401610399565b6000826001600160a01b03168260405160006040518083038185875af1925050503d8060008114610e34576040519150601f19603f3d011682016040523d82523d6000602084013e610e39565b606091505b5050905080610d4657604051630a12f52160e11b815260040160405180910390fd5b6000815180845260005b81811015610e8157602081850181015186830182015201610e65565b506000602082860101526020601f19601f83011685010191505092915050565b600060018060a01b0380861683528085511660208401526020850151604084015280604086015116606084015250606084015161ffff80821660808501528060808701511660a0850152505060e060c0830152610f0160e0830184610e5b565b95945050505050565b6001600160a01b0381168114610f1f57600080fd5b50565b60008083601f840112610f3457600080fd5b50813567ffffffffffffffff811115610f4c57600080fd5b602083019150836020828501011115610f6457600080fd5b9250929050565b60008060008060608587031215610f8157600080fd5b8435610f8c81610f0a565b935060208501359250604085013567ffffffffffffffff811115610faf57600080fd5b610fbb87828801610f22565b95989497509550505050565b600060208284031215610fd957600080fd5b8135610fe481610f0a565b9392505050565b634e487b7160e01b600052604160045260246000fd5b60006020828403121561101357600080fd5b813567ffffffffffffffff8082111561102b57600080fd5b818401915084601f83011261103f57600080fd5b81358181111561105157611051610feb565b604051601f8201601f19908116603f0116810190838211818310171561107957611079610feb565b8160405282815287602084870101111561109257600080fd5b826020860160208301376000928101602001929092525095945050505050565b6000806000604084860312156110c757600080fd5b83356110d281610f0a565b9250602084013567ffffffffffffffff8111156110ee57600080fd5b6110fa86828701610f22565b9497909650939450505050565b60006020828403121561111957600080fd5b5035919050565b602081526000610fe46020830184610e5b565b81835281816020850137506000828201602090810191909152601f909101601f19169091010190565b838152604060208201526000610f01604083018486611133565b60006020828403121561118857600080fd5b5051919050565b634e487b7160e01b600052601160045260246000fd5b818103818111156111b8576111b861118f565b92915050565b80820281158282048414176111b8576111b861118f565b6000826111f257634e487b7160e01b600052601260045260246000fd5b500490565b808201808211156111b8576111b861118f565b6001600160a01b0384168152604060208201819052600090610f019083018486611133565b60006020828403121561124157600080fd5b8151610fe481610f0a565b60006020828403121561125e57600080fd5b81518015158114610fe457600080fdfea2646970667358221220f06ed8727c2ad150b9bea93908319813b90697588373f2074a61ec86934a9bb164736f6c6343000815003360806040526200000e6200010b565b600a906200001d908262000381565b503480156200002b57600080fd5b50600a80546200003b90620002f2565b80601f01602080910402602001604051908101604052809291908181526020018280546200006990620002f2565b8015620000ba5780601f106200008e57610100808354040283529160200191620000ba565b820191906000526020600020905b8154815290600101906020018083116200009c57829003601f168201915b50505050506040518060400160405280600a8152602001692932b33632b1ba34b7b760b11b8152508160009081620000f3919062000381565b50600162000102828262000381565b50505062000494565b6060620001216200011b60085490565b62000147565b6040516020016200013391906200044d565b604051602081830303815290604052905090565b606062000154826200015a565b92915050565b606060006200016983620001f3565b60010190506000816001600160401b038111156200018b576200018b620002dc565b6040519080825280601f01601f191660200182016040528015620001b6576020820181803683370190505b5090508181016020015b600019016f181899199a1a9b1b9c1cb0b131b232b360811b600a86061a8153600a8504945084620001c057509392505050565b6000807a184f03e93ff9f4daa797ed6e38ed64bf6a1f01000000000000000083106200023d577a184f03e93ff9f4daa797ed6e38ed64bf6a1f010000000000000000830492506040015b6d04ee2d6d415b85acef810000000083106200026a576d04ee2d6d415b85acef8100000000830492506020015b662386f26fc1000083106200028957662386f26fc10000830492506010015b6305f5e1008310620002a2576305f5e100830492506008015b6127108310620002b757612710830492506004015b60648310620002ca576064830492506002015b600a8310620001545760010192915050565b634e487b7160e01b600052604160045260246000fd5b600181811c908216806200030757607f821691505b6020821081036200032857634e487b7160e01b600052602260045260246000fd5b50919050565b601f8211156200037c57600081815260208120601f850160051c81016020861015620003575750805b601f850160051c820191505b81811015620003785782815560010162000363565b5050505b505050565b81516001600160401b038111156200039d576200039d620002dc565b620003b581620003ae8454620002f2565b846200032e565b602080601f831160018114620003ed5760008415620003d45750858301515b600019600386901b1c1916600185901b17855562000378565b600085815260208120601f198616915b828110156200041e57888601518255948401946001909101908401620003fd565b50858210156200043d5787850151600019600388901b60f8161c191681555b5050505050600190811b01905550565b692932b33632b1ba34b7b760b11b81526000825160005b8181101562000483576020818601810151600a86840101520162000464565b5060009201600a0191825250919050565b611b9c80620004a46000396000f3fe608060405234801561001057600080fd5b50600436106101e55760003560e01c8063742b5cc71161010f578063b88d4fde116100a2578063ce7e51e311610071578063ce7e51e31461041f578063e0d20fec14610432578063e985e9c514610445578063fe9d93031461045857600080fd5b8063b88d4fde146103bd578063bdc6067d146103d0578063be04bb1d146103e3578063c87b56dd1461040c57600080fd5b8063966dae0e116100de578063966dae0e1461037c578063a22cb4651461038f578063b4f35b9a146103a2578063b510391f146103aa57600080fd5b8063742b5cc714610348578063893d20e8146103595780638da5cb5b1461036157806395d89b411461037457600080fd5b806339b3d243116101875780636352211e116101565780636352211e146102df57806367e0e1ab146102f25780636b8ff5741461032257806370a082311461033557600080fd5b806339b3d2431461029f57806342842e0e146102b25780634c0f38c2146102c55780634f6ccce7146102cc57600080fd5b8063095ea7b3116101c3578063095ea7b31461025257806318160ddd1461026757806323b872dd146102795780632f745c591461028c57600080fd5b806301ffc9a7146101ea57806306fdde0314610212578063081812fc14610227575b600080fd5b6101fd6101f8366004611639565b61046b565b60405190151581526020015b60405180910390f35b61021a610496565b60405161020991906116a6565b61023a6102353660046116b9565b610528565b6040516001600160a01b039091168152602001610209565b6102656102603660046116e7565b610551565b005b6008545b604051908152602001610209565b610265610287366004611713565b610560565b61026b61029a3660046116e7565b6105f0565b6102656102ad366004611754565b610655565b6102656102c0366004611713565b6106cf565b606461026b565b61026b6102da3660046116b9565b6106ef565b61023a6102ed3660046116b9565b610748565b610265610300366004611754565b600f80546001600160a01b0319166001600160a01b0392909216919091179055565b61021a6103303660046116b9565b610753565b61026b610343366004611754565b6107e7565b600d546001600160a01b031661023a565b61026561082f565b60105461023a906001600160a01b031681565b61021a6108c1565b600f5461023a906001600160a01b031681565b61026561039d366004611771565b6108d0565b61023a6108db565b61026b6103b83660046117f8565b6108f4565b6102656103cb3660046118bc565b61095c565b6102656103de366004611754565b610973565b61023a6103f13660046116b9565b6000908152600c60205260409020546001600160a01b031690565b61021a61041a3660046116b9565b610a67565b61021a61042d3660046116b9565b610b68565b61026561044036600461196b565b610b73565b6101fd610453366004611990565b610c38565b6102656104663660046119be565b610c66565b60006001600160e01b0319821663973bee4b60e01b1480610490575061049082610c6f565b92915050565b6060600080546104a5906119f1565b80601f01602080910402602001604051908101604052809291908181526020018280546104d1906119f1565b801561051e5780601f106104f35761010080835404028352916020019161051e565b820191906000526020600020905b81548152906001019060200180831161050157829003601f168201915b5050505050905090565b600061053382610c94565b506000828152600460205260409020546001600160a01b0316610490565b61055c828233610ccd565b5050565b6001600160a01b03821661058f57604051633250574960e11b8152600060048201526024015b60405180910390fd5b600061059c838333610cda565b9050836001600160a01b0316816001600160a01b0316146105ea576040516364283d7b60e01b81526001600160a01b0380861660048301526024820184905282166044820152606401610586565b50505050565b60006105fb836107e7565b821061062c5760405163295f44f760e21b81526001600160a01b038416600482015260248101839052604401610586565b506001600160a01b03919091166000908152600660209081526040808320938352929052205490565b6000610669600e546001600160a01b031690565b6001600160a01b0316146106ad5760405162461bcd60e51b815260206004820152600b60248201526a185b1c9958591e481cd95d60aa1b6044820152606401610586565b600e80546001600160a01b0319166001600160a01b0392909216919091179055565b6106ea8383836040518060200160405280600081525061095c565b505050565b60006106fa60085490565b82106107235760405163295f44f760e21b81526000600482015260248101839052604401610586565b6008828154811061073657610736611a2b565b90600052602060002001549050919050565b600061049082610c94565b6060600a8054610762906119f1565b80601f016020809104026020016040519081016040528092919081815260200182805461078e906119f1565b80156107db5780601f106107b0576101008083540402835291602001916107db565b820191906000526020600020905b8154815290600101906020018083116107be57829003601f168201915b50505050509050919050565b60006001600160a01b038216610813576040516322718ad960e21b815260006004820152602401610586565b506001600160a01b031660009081526003602052604090205490565b600f5460408051631127a41d60e31b815290516001600160a01b0390921691829163893d20e89160048083019260209291908290030181865afa15801561087a573d6000803e3d6000fd5b505050506040513d601f19601f8201168201806040525081019061089e9190611a41565b601080546001600160a01b0319166001600160a01b039290921691909117905550565b6060600180546104a5906119f1565b61055c338383610da7565b60006108ef600e546001600160a01b031690565b905090565b600060646008541061093d5760405162461bcd60e51b81526020600482015260126024820152711b585e081cdd5c1c1b1e481c995858da195960721b6044820152606401610586565b610949828401846116b9565b90506109558482610e46565b9392505050565b610967848484610560565b6105ea84848484610eab565b6010546001600160a01b031633146109db5760405162461bcd60e51b815260206004820152602560248201527f4f6e6c7920746865206f776e65722063616e2063616c6c20746869732066756e60448201526431ba34b7b760d91b6064820152608401610586565b6001600160a01b038116610a0d57604051632b58e82160e21b81526001600160a01b0382166004820152602401610586565b600d80546001600160a01b038381166001600160a01b031983168117909355604051911680825291907fcee9b4b221997e942679d9d57d8c171984dca4bc5ff74d92711200ac3d232e3e9060200160405180910390a25050565b6000818152600260205260409020546060906001600160a01b031680610aa35760405163230d897d60e21b815260048101849052602401610586565b6000838152600c60205260409020546001600160a01b03168015610b37576040516330c8446360e21b8152600481018590526001600160a01b0382169063c321118c906024015b600060405180830381865afa158015610b07573d6000803e3d6000fd5b505050506040513d6000823e601f3d908101601f19168201604052610b2f9190810190611a5e565b949350505050565b600d546040516330c8446360e21b8152600481018690526001600160a01b039091169063c321118c90602401610aea565b606061049082610fd4565b6000828152600260205260409020546001600160a01b031680610bac5760405163230d897d60e21b815260048101849052602401610586565b6001600160a01b038216610bde57604051632b58e82160e21b81526001600160a01b0383166004820152602401610586565b6000838152600c602052604080822080546001600160a01b0319166001600160a01b0386169081179091559051909185917f87ee21445db73fc31d1912380e621ad53034d6c810353610b23e349b7143a5a99190a3505050565b6001600160a01b03918216600090815260056020908152604080832093909416825291909152205460ff1690565b6106ea83611067565b60006001600160e01b0319821663780e9d6360e01b14806104905750610490826110a2565b6000818152600260205260408120546001600160a01b03168061049057604051637e27328960e01b815260048101849052602401610586565b6106ea83838360016110f2565b600080610ce88585856111f8565b90506001600160a01b038116610d4557610d4084600880546000838152600960205260408120829055600182018355919091527ff3f7a9fe364faab93b216da50a3214154f22a0a2b415b23a84c8169e8b636ee30155565b610d68565b846001600160a01b0316816001600160a01b031614610d6857610d6881856112f1565b6001600160a01b038516610d8457610d7f84611382565b610b2f565b846001600160a01b0316816001600160a01b031614610b2f57610b2f8585611431565b6001600160a01b038216610dd957604051630b61174360e31b81526001600160a01b0383166004820152602401610586565b6001600160a01b03838116600081815260056020908152604080832094871680845294825291829020805460ff191686151590811790915591519182527f17307eab39ab6107e8899845ad3d59bd9653f200f220920489ca2b5937696c31910160405180910390a3505050565b6001600160a01b038216610e7057604051633250574960e11b815260006004820152602401610586565b6000610e7e83836000610cda565b90506001600160a01b038116156106ea576040516339e3563760e11b815260006004820152602401610586565b6001600160a01b0383163b156105ea57604051630a85bd0160e11b81526001600160a01b0384169063150b7a0290610eed903390889087908790600401611ad5565b6020604051808303816000875af1925050508015610f28575060408051601f3d908101601f19168201909252610f2591810190611b12565b60015b610f91573d808015610f56576040519150601f19603f3d011682016040523d82523d6000602084013e610f5b565b606091505b508051600003610f8957604051633250574960e11b81526001600160a01b0385166004820152602401610586565b805181602001fd5b6001600160e01b03198116630a85bd0160e11b14610fcd57604051633250574960e11b81526001600160a01b0385166004820152602401610586565b5050505050565b60606000610fe183611481565b600101905060008167ffffffffffffffff8111156110015761100161184d565b6040519080825280601f01601f19166020018201604052801561102b576020820181803683370190505b5090508181016020015b600019016f181899199a1a9b1b9c1cb0b131b232b360811b600a86061a8153600a850494508461103557509392505050565b60006110766000836000610cda565b90506001600160a01b03811661055c57604051637e27328960e01b815260048101839052602401610586565b60006001600160e01b031982166380ac58cd60e01b14806110d357506001600160e01b03198216635b5e139f60e01b145b8061049057506301ffc9a760e01b6001600160e01b0319831614610490565b808061110657506001600160a01b03821615155b156111c857600061111684610c94565b90506001600160a01b038316158015906111425750826001600160a01b0316816001600160a01b031614155b801561115557506111538184610c38565b155b1561117e5760405163a9fbf51f60e01b81526001600160a01b0384166004820152602401610586565b81156111c65783856001600160a01b0316826001600160a01b03167f8c5be1e5ebec7d5bd14f71427d1e84f3dd0314c0f7b2291e5b200ac8c7c3b92560405160405180910390a45b505b5050600090815260046020526040902080546001600160a01b0319166001600160a01b0392909216919091179055565b6000828152600260205260408120546001600160a01b039081169083161561122557611225818486611559565b6001600160a01b03811615611263576112426000856000806110f2565b6001600160a01b038116600090815260036020526040902080546000190190555b6001600160a01b03851615611292576001600160a01b0385166000908152600360205260409020805460010190555b60008481526002602052604080822080546001600160a01b0319166001600160a01b0389811691821790925591518793918516917fddf252ad1be2c89b69c2b068fc378daa952ba7f163c4a11628f55a4df523b3ef91a4949350505050565b60006112fc836107e7565b60008381526007602052604090205490915080821461134f576001600160a01b03841660009081526006602090815260408083208584528252808320548484528184208190558352600790915290208190555b5060009182526007602090815260408084208490556001600160a01b039094168352600681528383209183525290812055565b60085460009061139490600190611b2f565b600083815260096020526040812054600880549394509092849081106113bc576113bc611a2b565b9060005260206000200154905080600883815481106113dd576113dd611a2b565b600091825260208083209091019290925582815260099091526040808220849055858252812055600880548061141557611415611b50565b6001900381819060005260206000200160009055905550505050565b6000600161143e846107e7565b6114489190611b2f565b6001600160a01b039093166000908152600660209081526040808320868452825280832085905593825260079052919091209190915550565b60008072184f03e93ff9f4daa797ed6e38ed64bf6a1f0160401b83106114c05772184f03e93ff9f4daa797ed6e38ed64bf6a1f0160401b830492506040015b6d04ee2d6d415b85acef810000000083106114ec576d04ee2d6d415b85acef8100000000830492506020015b662386f26fc10000831061150a57662386f26fc10000830492506010015b6305f5e1008310611522576305f5e100830492506008015b612710831061153657612710830492506004015b60648310611548576064830492506002015b600a83106104905760010192915050565b6115648383836115bd565b6106ea576001600160a01b03831661159257604051637e27328960e01b815260048101829052602401610586565b60405163177e802f60e01b81526001600160a01b038316600482015260248101829052604401610586565b60006001600160a01b03831615801590610b2f5750826001600160a01b0316846001600160a01b031614806115f757506115f78484610c38565b80610b2f5750506000908152600460205260409020546001600160a01b03908116911614919050565b6001600160e01b03198116811461163657600080fd5b50565b60006020828403121561164b57600080fd5b813561095581611620565b60005b83811015611671578181015183820152602001611659565b50506000910152565b60008151808452611692816020860160208601611656565b601f01601f19169290920160200192915050565b602081526000610955602083018461167a565b6000602082840312156116cb57600080fd5b5035919050565b6001600160a01b038116811461163657600080fd5b600080604083850312156116fa57600080fd5b8235611705816116d2565b946020939093013593505050565b60008060006060848603121561172857600080fd5b8335611733816116d2565b92506020840135611743816116d2565b929592945050506040919091013590565b60006020828403121561176657600080fd5b8135610955816116d2565b6000806040838503121561178457600080fd5b823561178f816116d2565b9150602083013580151581146117a457600080fd5b809150509250929050565b60008083601f8401126117c157600080fd5b50813567ffffffffffffffff8111156117d957600080fd5b6020830191508360208285010111156117f157600080fd5b9250929050565b60008060006040848603121561180d57600080fd5b8335611818816116d2565b9250602084013567ffffffffffffffff81111561183457600080fd5b611840868287016117af565b9497909650939450505050565b634e487b7160e01b600052604160045260246000fd5b604051601f8201601f1916810167ffffffffffffffff8111828210171561188c5761188c61184d565b604052919050565b600067ffffffffffffffff8211156118ae576118ae61184d565b50601f01601f191660200190565b600080600080608085870312156118d257600080fd5b84356118dd816116d2565b935060208501356118ed816116d2565b925060408501359150606085013567ffffffffffffffff81111561191057600080fd5b8501601f8101871361192157600080fd5b803561193461192f82611894565b611863565b81815288602083850101111561194957600080fd5b8160208401602083013760006020838301015280935050505092959194509250565b6000806040838503121561197e57600080fd5b8235915060208301356117a4816116d2565b600080604083850312156119a357600080fd5b82356119ae816116d2565b915060208301356117a4816116d2565b6000806000604084860312156119d357600080fd5b83359250602084013567ffffffffffffffff81111561183457600080fd5b600181811c90821680611a0557607f821691505b602082108103611a2557634e487b7160e01b600052602260045260246000fd5b50919050565b634e487b7160e01b600052603260045260246000fd5b600060208284031215611a5357600080fd5b8151610955816116d2565b600060208284031215611a7057600080fd5b815167ffffffffffffffff811115611a8757600080fd5b8201601f81018413611a9857600080fd5b8051611aa661192f82611894565b818152856020838501011115611abb57600080fd5b611acc826020830160208601611656565b95945050505050565b6001600160a01b0385811682528416602082015260408101839052608060608201819052600090611b089083018461167a565b9695505050505050565b600060208284031215611b2457600080fd5b815161095581611620565b8181038181111561049057634e487b7160e01b600052601160045260246000fd5b634e487b7160e01b600052603160045260246000fdfea264697066735822122010d7cac6237b00bb977031cfbfd5a4c6e8ebf33f7f9fe906d15868734ad2a5db64736f6c63430008150033608060405234801561001057600080fd5b50600080546001600160a01b0319163317905561050f806100326000396000f3fe608060405234801561001057600080fd5b50600436106100415760003560e01c80630f47899114610046578063893d20e81461007e5780638da5cb5b146100a3575b600080fd5b6100596100543660046102fc565b6100b6565b604080516001600160a01b039384168152929091166020830152015b60405180910390f35b6000546001600160a01b03165b6040516001600160a01b039091168152602001610075565b60005461008b906001600160a01b031681565b60008061011a6100c960208701876103c3565b8080601f01602080910402602001604051908101604052809392919081815260200183838082843760009201919091525061010b925050506020880188610429565b6001600160a01b0316906101b1565b91506101a6826101306040890160208a01610429565b604089013561014560808b0160608c01610429565b61015560a08c0160808d01610446565b61016560c08d0160a08e01610446565b61017260c08e018e6103c3565b60405160200161018998979695949392919061046a565b60408051601f1981840301815291905261010b6020890189610429565b905094509492505050565b60006101bf838360006101c6565b9392505050565b6000806101d3858561020e565b905080516020820184f091506001600160a01b03821661020657604051631d7fde3160e31b815260040160405180910390fd5b509392505050565b80516040805160438084018083528285019091018352606160f81b60208084019182526039860160f081811b60218701526f3d81600a3d39f33d3d3d3d363d3d376160801b602387015260028801901b603386018190526560373639366160d01b6035870152603b86015262013d7360e81b603d860152606089901b958501959095526c5af43d3d93803e603557fd5bf360981b6054850152929493919286019084606187015b602082106102d45783518152602093840193601f1990920191016102b5565b925160001960208390036101000a011916835260f09590951b91909401525091949350505050565b6000806000806060858703121561031257600080fd5b843567ffffffffffffffff8082111561032a57600080fd5b90860190610100828903121561033f57600080fd5b9094506020860135908082111561035557600080fd5b908601906060828903121561036957600080fd5b9093506040860135908082111561037f57600080fd5b818701915087601f83011261039357600080fd5b8135818111156103a257600080fd5b8860208285010111156103b457600080fd5b95989497505060200194505050565b6000808335601e198436030181126103da57600080fd5b83018035915067ffffffffffffffff8211156103f557600080fd5b60200191503681900382131561040a57600080fd5b9250929050565b6001600160a01b038116811461042657600080fd5b50565b60006020828403121561043b57600080fd5b81356101bf81610411565b60006020828403121561045857600080fd5b813561ffff811681146101bf57600080fd5b60006bffffffffffffffffffffffff19808b60601b168352808a60601b166014840152886028840152808860601b1660488401525061ffff60f01b808760f01b16605c840152808660f01b16605e8401525082846060840137506000910160600190815297965050505050505056fea2646970667358221220029bb852c86f06671f9688f5c42d9ff726ba11bf3268a9fea8a42d73289c2f2664736f6c63430008150033a264697066735822122028c5d61cdd049dc262ae83c331ddc2c83538f030ce343687c8e3e3d02a35c86164736f6c63430008150033",
  "linkReferences": {},
  "deployedLinkReferences": {}
}