{
  "_format": "hh-sol-artifact-1",
  "contractName": "AppImp",
  "sourceName": "contracts/ReflectionAppImp.sol",
  "abi": [
    {
      "inputs": [],
      "stateMutability": "nonpayable",
      "type": "constructor"
    },
    {
      "inputs": [],
      "name": "ERC721EnumerableForbiddenBatchMint",
      "type": "error"
    },
    {
      "inputs": [
        {
          "internalType": "address",
          "name": "sender",
          "type": "address"
        },
        {
          "internalType": "uint256",
          "name": "tokenId",
          "type": "uint256"
        },
        {
          "internalType": "address",
          "name": "owner",
          "type": "address"
        }
      ],
      "name": "ERC721IncorrectOwner",
      "type": "error"
    },
    {
      "inputs": [
        {
          "internalType": "address",
          "name": "operator",
          "type": "address"
        },
        {
          "internalType": "uint256",
          "name": "tokenId",
          "type": "uint256"
        }
      ],
      "name": "ERC721InsufficientApproval",
      "type": "error"
    },
    {
      "inputs": [
        {
          "internalType": "address",
          "name": "approver",
          "type": "address"
        }
      ],
      "name": "ERC721InvalidApprover",
      "type": "error"
    },
    {
      "inputs": [
        {
          "internalType": "address",
          "name": "operator",
          "type": "address"
        }
      ],
      "name": "ERC721InvalidOperator",
      "type": "error"
    },
    {
      "inputs": [
        {
          "internalType": "address",
          "name": "owner",
          "type": "address"
        }
      ],
      "name": "ERC721InvalidOwner",
      "type": "error"
    },
    {
      "inputs": [
        {
          "internalType": "address",
          "name": "receiver",
          "type": "address"
        }
      ],
      "name": "ERC721InvalidReceiver",
      "type": "error"
    },
    {
      "inputs": [
        {
          "internalType": "address",
          "name": "sender",
          "type": "address"
        }
      ],
      "name": "ERC721InvalidSender",
      "type": "error"
    },
    {
      "inputs": [
        {
          "internalType": "uint256",
          "name": "tokenId",
          "type": "uint256"
        }
      ],
      "name": "ERC721NonexistentToken",
      "type": "error"
    },
    {
      "inputs": [
        {
          "internalType": "address",
          "name": "owner",
          "type": "address"
        },
        {
          "internalType": "uint256",
          "name": "index",
          "type": "uint256"
        }
      ],
      "name": "ERC721OutOfBoundsIndex",
      "type": "error"
    },
    {
      "inputs": [
        {
          "internalType": "address",
          "name": "tokenURIEngine",
          "type": "address"
        }
      ],
      "name": "InvalidTokenURIEngine",
      "type": "error"
    },
    {
      "inputs": [],
      "name": "NotOwnerOrApproved",
      "type": "error"
    },
    {
      "inputs": [
        {
          "internalType": "uint256",
          "name": "tokenId",
          "type": "uint256"
        }
      ],
      "name": "TokenURISettingsNonexistentToken",
      "type": "error"
    },
    {
      "anonymous": false,
      "inputs": [
        {
          "indexed": true,
          "internalType": "address",
          "name": "owner",
          "type": "address"
        },
        {
          "indexed": true,
          "internalType": "address",
          "name": "approved",
          "type": "address"
        },
        {
          "indexed": true,
          "internalType": "uint256",
          "name": "tokenId",
          "type": "uint256"
        }
      ],
      "name": "Approval",
      "type": "event"
    },
    {
      "anonymous": false,
      "inputs": [
        {
          "indexed": true,
          "internalType": "address",
          "name": "owner",
          "type": "address"
        },
        {
          "indexed": true,
          "internalType": "address",
          "name": "operator",
          "type": "address"
        },
        {
          "indexed": false,
          "internalType": "bool",
          "name": "approved",
          "type": "bool"
        }
      ],
      "name": "ApprovalForAll",
      "type": "event"
    },
    {
      "anonymous": false,
      "inputs": [
        {
          "indexed": false,
          "internalType": "address",
          "name": "oldTokenURIEngine",
          "type": "address"
        },
        {
          "indexed": true,
          "internalType": "address",
          "name": "newTokenURIEngine",
          "type": "address"
        }
      ],
      "name": "SetProxyTokenURIEngine",
      "type": "event"
    },
    {
      "anonymous": false,
      "inputs": [
        {
          "indexed": true,
          "internalType": "uint256",
          "name": "tokenId",
          "type": "uint256"
        },
        {
          "indexed": true,
          "internalType": "address",
          "name": "tokenURIEngine",
          "type": "address"
        }
      ],
      "name": "SetTokenURIEngine",
      "type": "event"
    },
    {
      "anonymous": false,
      "inputs": [
        {
          "indexed": true,
          "internalType": "address",
          "name": "from",
          "type": "address"
        },
        {
          "indexed": true,
          "internalType": "address",
          "name": "to",
          "type": "address"
        },
        {
          "indexed": true,
          "internalType": "uint256",
          "name": "tokenId",
          "type": "uint256"
        }
      ],
      "name": "Transfer",
      "type": "event"
    },
    {
      "inputs": [
        {
          "internalType": "address",
          "name": "to",
          "type": "address"
        },
        {
          "internalType": "uint256",
          "name": "tokenId",
          "type": "uint256"
        }
      ],
      "name": "approve",
      "outputs": [],
      "stateMutability": "nonpayable",
      "type": "function"
    },
    {
      "inputs": [
        {
          "internalType": "address",
          "name": "owner",
          "type": "address"
        }
      ],
      "name": "balanceOf",
      "outputs": [
        {
          "internalType": "uint256",
          "name": "",
          "type": "uint256"
        }
      ],
      "stateMutability": "view",
      "type": "function"
    },
    {
      "inputs": [
        {
          "internalType": "uint256",
          "name": "tokenId",
          "type": "uint256"
        },
        {
          "internalType": "bytes",
          "name": "",
          "type": "bytes"
        }
      ],
      "name": "burn",
      "outputs": [],
      "stateMutability": "nonpayable",
      "type": "function"
    },
    {
      "inputs": [],
      "name": "factoryAddress",
      "outputs": [
        {
          "internalType": "address",
          "name": "",
          "type": "address"
        }
      ],
      "stateMutability": "view",
      "type": "function"
    },
    {
      "inputs": [],
      "name": "getAgency",
      "outputs": [
        {
          "internalType": "address payable",
          "name": "",
          "type": "address"
        }
      ],
      "stateMutability": "view",
      "type": "function"
    },
    {
      "inputs": [
        {
          "internalType": "uint256",
          "name": "tokenId",
          "type": "uint256"
        }
      ],
      "name": "getApproved",
      "outputs": [
        {
          "internalType": "address",
          "name": "",
          "type": "address"
        }
      ],
      "stateMutability": "view",
      "type": "function"
    },
    {
      "inputs": [],
      "name": "getMaxSupply",
      "outputs": [
        {
          "internalType": "uint256",
          "name": "",
          "type": "uint256"
        }
      ],
      "stateMutability": "pure",
      "type": "function"
    },
    {
      "inputs": [
        {
          "internalType": "uint256",
          "name": "",
          "type": "uint256"
        }
      ],
      "name": "getName",
      "outputs": [
        {
          "internalType": "string",
          "name": "",
          "type": "string"
        }
      ],
      "stateMutability": "view",
      "type": "function"
    },
    {
      "inputs": [],
      "name": "getOwner",
      "outputs": [],
      "stateMutability": "nonpayable",
      "type": "function"
    },
    {
      "inputs": [],
      "name": "getProxyTokenURIEngine",
      "outputs": [
        {
          "internalType": "address",
          "name": "",
          "type": "address"
        }
      ],
      "stateMutability": "view",
      "type": "function"
    },
    {
      "inputs": [
        {
          "internalType": "uint256",
          "name": "tokenId",
          "type": "uint256"
        }
      ],
      "name": "getTokenURIEngine",
      "outputs": [
        {
          "internalType": "address",
          "name": "",
          "type": "address"
        }
      ],
      "stateMutability": "view",
      "type": "function"
    },
    {
      "inputs": [
        {
          "internalType": "address",
          "name": "owner",
          "type": "address"
        },
        {
          "internalType": "address",
          "name": "operator",
          "type": "address"
        }
      ],
      "name": "isApprovedForAll",
      "outputs": [
        {
          "internalType": "bool",
          "name": "",
          "type": "bool"
        }
      ],
      "stateMutability": "view",
      "type": "function"
    },
    {
      "inputs": [
        {
          "internalType": "address",
          "name": "to",
          "type": "address"
        },
        {
          "internalType": "bytes",
          "name": "data",
          "type": "bytes"
        }
      ],
      "name": "mint",
      "outputs": [
        {
          "internalType": "uint256",
          "name": "tokenId",
          "type": "uint256"
        }
      ],
      "stateMutability": "nonpayable",
      "type": "function"
    },
    {
      "inputs": [],
      "name": "name",
      "outputs": [
        {
          "internalType": "string",
          "name": "",
          "type": "string"
        }
      ],
      "stateMutability": "view",
      "type": "function"
    },
    {
      "inputs": [],
      "name": "owner",
      "outputs": [
        {
          "internalType": "address",
          "name": "",
          "type": "address"
        }
      ],
      "stateMutability": "view",
      "type": "function"
    },
    {
      "inputs": [
        {
          "internalType": "uint256",
          "name": "tokenId",
          "type": "uint256"
        }
      ],
      "name": "ownerOf",
      "outputs": [
        {
          "internalType": "address",
          "name": "",
          "type": "address"
        }
      ],
      "stateMutability": "view",
      "type": "function"
    },
    {
      "inputs": [
        {
          "internalType": "address",
          "name": "from",
          "type": "address"
        },
        {
          "internalType": "address",
          "name": "to",
          "type": "address"
        },
        {
          "internalType": "uint256",
          "name": "tokenId",
          "type": "uint256"
        }
      ],
      "name": "safeTransferFrom",
      "outputs": [],
      "stateMutability": "nonpayable",
      "type": "function"
    },
    {
      "inputs": [
        {
          "internalType": "address",
          "name": "from",
          "type": "address"
        },
        {
          "internalType": "address",
          "name": "to",
          "type": "address"
        },
        {
          "internalType": "uint256",
          "name": "tokenId",
          "type": "uint256"
        },
        {
          "internalType": "bytes",
          "name": "data",
          "type": "bytes"
        }
      ],
      "name": "safeTransferFrom",
      "outputs": [],
      "stateMutability": "nonpayable",
      "type": "function"
    },
    {
      "inputs": [
        {
          "internalType": "address payable",
          "name": "oracle",
          "type": "address"
        }
      ],
      "name": "setAgency",
      "outputs": [],
      "stateMutability": "nonpayable",
      "type": "function"
    },
    {
      "inputs": [
        {
          "internalType": "address",
          "name": "operator",
          "type": "address"
        },
        {
          "internalType": "bool",
          "name": "approved",
          "type": "bool"
        }
      ],
      "name": "setApprovalForAll",
      "outputs": [],
      "stateMutability": "nonpayable",
      "type": "function"
    },
    {
      "inputs": [
        {
          "internalType": "address",
          "name": "_myContractAddress",
          "type": "address"
        }
      ],
      "name": "setMyContractAddress",
      "outputs": [],
      "stateMutability": "nonpayable",
      "type": "function"
    },
    {
      "inputs": [
        {
          "internalType": "address",
          "name": "tokenURIEngine",
          "type": "address"
        }
      ],
      "name": "setProxyTokenURIEngine",
      "outputs": [],
      "stateMutability": "nonpayable",
      "type": "function"
    },
    {
      "inputs": [
        {
          "internalType": "uint256",
          "name": "tokenId",
          "type": "uint256"
        },
        {
          "internalType": "address",
          "name": "tokenURIEngine",
          "type": "address"
        }
      ],
      "name": "setTokenURIEngine",
      "outputs": [],
      "stateMutability": "nonpayable",
      "type": "function"
    },
    {
      "inputs": [
        {
          "internalType": "bytes4",
          "name": "interfaceId",
          "type": "bytes4"
        }
      ],
      "name": "supportsInterface",
      "outputs": [
        {
          "internalType": "bool",
          "name": "",
          "type": "bool"
        }
      ],
      "stateMutability": "view",
      "type": "function"
    },
    {
      "inputs": [],
      "name": "symbol",
      "outputs": [
        {
          "internalType": "string",
          "name": "",
          "type": "string"
        }
      ],
      "stateMutability": "view",
      "type": "function"
    },
    {
      "inputs": [
        {
          "internalType": "uint256",
          "name": "index",
          "type": "uint256"
        }
      ],
      "name": "tokenByIndex",
      "outputs": [
        {
          "internalType": "uint256",
          "name": "",
          "type": "uint256"
        }
      ],
      "stateMutability": "view",
      "type": "function"
    },
    {
      "inputs": [
        {
          "internalType": "address",
          "name": "owner",
          "type": "address"
        },
        {
          "internalType": "uint256",
          "name": "index",
          "type": "uint256"
        }
      ],
      "name": "tokenOfOwnerByIndex",
      "outputs": [
        {
          "internalType": "uint256",
          "name": "",
          "type": "uint256"
        }
      ],
      "stateMutability": "view",
      "type": "function"
    },
    {
      "inputs": [
        {
          "internalType": "uint256",
          "name": "tokenId",
          "type": "uint256"
        }
      ],
      "name": "tokenURI",
      "outputs": [
        {
          "internalType": "string",
          "name": "",
          "type": "string"
        }
      ],
      "stateMutability": "view",
      "type": "function"
    },
    {
      "inputs": [],
      "name": "totalSupply",
      "outputs": [
        {
          "internalType": "uint256",
          "name": "",
          "type": "uint256"
        }
      ],
      "stateMutability": "view",
      "type": "function"
    },
    {
      "inputs": [
        {
          "internalType": "address",
          "name": "from",
          "type": "address"
        },
        {
          "internalType": "address",
          "name": "to",
          "type": "address"
        },
        {
          "internalType": "uint256",
          "name": "tokenId",
          "type": "uint256"
        }
      ],
      "name": "transferFrom",
      "outputs": [],
      "stateMutability": "nonpayable",
      "type": "function"
    },
    {
      "inputs": [
        {
          "internalType": "uint256",
          "name": "number",
          "type": "uint256"
        }
      ],
      "name": "uint256ToString",
      "outputs": [
        {
          "internalType": "string",
          "name": "",
          "type": "string"
        }
      ],
      "stateMutability": "pure",
      "type": "function"
    }
  ],
  "bytecode": "0x60806040526200000e6200010b565b600a906200001d908262000381565b503480156200002b57600080fd5b50600a80546200003b90620002f2565b80601f01602080910402602001604051908101604052809291908181526020018280546200006990620002f2565b8015620000ba5780601f106200008e57610100808354040283529160200191620000ba565b820191906000526020600020905b8154815290600101906020018083116200009c57829003601f168201915b50505050506040518060400160405280600a8152602001692932b33632b1ba34b7b760b11b8152508160009081620000f3919062000381565b50600162000102828262000381565b50505062000494565b6060620001216200011b60085490565b62000147565b6040516020016200013391906200044d565b604051602081830303815290604052905090565b606062000154826200015a565b92915050565b606060006200016983620001f3565b60010190506000816001600160401b038111156200018b576200018b620002dc565b6040519080825280601f01601f191660200182016040528015620001b6576020820181803683370190505b5090508181016020015b600019016f181899199a1a9b1b9c1cb0b131b232b360811b600a86061a8153600a8504945084620001c057509392505050565b6000807a184f03e93ff9f4daa797ed6e38ed64bf6a1f01000000000000000083106200023d577a184f03e93ff9f4daa797ed6e38ed64bf6a1f010000000000000000830492506040015b6d04ee2d6d415b85acef810000000083106200026a576d04ee2d6d415b85acef8100000000830492506020015b662386f26fc1000083106200028957662386f26fc10000830492506010015b6305f5e1008310620002a2576305f5e100830492506008015b6127108310620002b757612710830492506004015b60648310620002ca576064830492506002015b600a8310620001545760010192915050565b634e487b7160e01b600052604160045260246000fd5b600181811c908216806200030757607f821691505b6020821081036200032857634e487b7160e01b600052602260045260246000fd5b50919050565b601f8211156200037c57600081815260208120601f850160051c81016020861015620003575750805b601f850160051c820191505b81811015620003785782815560010162000363565b5050505b505050565b81516001600160401b038111156200039d576200039d620002dc565b620003b581620003ae8454620002f2565b846200032e565b602080601f831160018114620003ed5760008415620003d45750858301515b600019600386901b1c1916600185901b17855562000378565b600085815260208120601f198616915b828110156200041e57888601518255948401946001909101908401620003fd565b50858210156200043d5787850151600019600388901b60f8161c191681555b5050505050600190811b01905550565b692932b33632b1ba34b7b760b11b81526000825160005b8181101562000483576020818601810151600a86840101520162000464565b5060009201600a0191825250919050565b611b9c80620004a46000396000f3fe608060405234801561001057600080fd5b50600436106101e55760003560e01c8063742b5cc71161010f578063b88d4fde116100a2578063ce7e51e311610071578063ce7e51e31461041f578063e0d20fec14610432578063e985e9c514610445578063fe9d93031461045857600080fd5b8063b88d4fde146103bd578063bdc6067d146103d0578063be04bb1d146103e3578063c87b56dd1461040c57600080fd5b8063966dae0e116100de578063966dae0e1461037c578063a22cb4651461038f578063b4f35b9a146103a2578063b510391f146103aa57600080fd5b8063742b5cc714610348578063893d20e8146103595780638da5cb5b1461036157806395d89b411461037457600080fd5b806339b3d243116101875780636352211e116101565780636352211e146102df57806367e0e1ab146102f25780636b8ff5741461032257806370a082311461033557600080fd5b806339b3d2431461029f57806342842e0e146102b25780634c0f38c2146102c55780634f6ccce7146102cc57600080fd5b8063095ea7b3116101c3578063095ea7b31461025257806318160ddd1461026757806323b872dd146102795780632f745c591461028c57600080fd5b806301ffc9a7146101ea57806306fdde0314610212578063081812fc14610227575b600080fd5b6101fd6101f8366004611639565b61046b565b60405190151581526020015b60405180910390f35b61021a610496565b60405161020991906116a6565b61023a6102353660046116b9565b610528565b6040516001600160a01b039091168152602001610209565b6102656102603660046116e7565b610551565b005b6008545b604051908152602001610209565b610265610287366004611713565b610560565b61026b61029a3660046116e7565b6105f0565b6102656102ad366004611754565b610655565b6102656102c0366004611713565b6106cf565b606461026b565b61026b6102da3660046116b9565b6106ef565b61023a6102ed3660046116b9565b610748565b610265610300366004611754565b600f80546001600160a01b0319166001600160a01b0392909216919091179055565b61021a6103303660046116b9565b610753565b61026b610343366004611754565b6107e7565b600d546001600160a01b031661023a565b61026561082f565b60105461023a906001600160a01b031681565b61021a6108c1565b600f5461023a906001600160a01b031681565b61026561039d366004611771565b6108d0565b61023a6108db565b61026b6103b83660046117f8565b6108f4565b6102656103cb3660046118bc565b61095c565b6102656103de366004611754565b610973565b61023a6103f13660046116b9565b6000908152600c60205260409020546001600160a01b031690565b61021a61041a3660046116b9565b610a67565b61021a61042d3660046116b9565b610b68565b61026561044036600461196b565b610b73565b6101fd610453366004611990565b610c38565b6102656104663660046119be565b610c66565b60006001600160e01b0319821663973bee4b60e01b1480610490575061049082610c6f565b92915050565b6060600080546104a5906119f1565b80601f01602080910402602001604051908101604052809291908181526020018280546104d1906119f1565b801561051e5780601f106104f35761010080835404028352916020019161051e565b820191906000526020600020905b81548152906001019060200180831161050157829003601f168201915b5050505050905090565b600061053382610c94565b506000828152600460205260409020546001600160a01b0316610490565b61055c828233610ccd565b5050565b6001600160a01b03821661058f57604051633250574960e11b8152600060048201526024015b60405180910390fd5b600061059c838333610cda565b9050836001600160a01b0316816001600160a01b0316146105ea576040516364283d7b60e01b81526001600160a01b0380861660048301526024820184905282166044820152606401610586565b50505050565b60006105fb836107e7565b821061062c5760405163295f44f760e21b81526001600160a01b038416600482015260248101839052604401610586565b506001600160a01b03919091166000908152600660209081526040808320938352929052205490565b6000610669600e546001600160a01b031690565b6001600160a01b0316146106ad5760405162461bcd60e51b815260206004820152600b60248201526a185b1c9958591e481cd95d60aa1b6044820152606401610586565b600e80546001600160a01b0319166001600160a01b0392909216919091179055565b6106ea8383836040518060200160405280600081525061095c565b505050565b60006106fa60085490565b82106107235760405163295f44f760e21b81526000600482015260248101839052604401610586565b6008828154811061073657610736611a2b565b90600052602060002001549050919050565b600061049082610c94565b6060600a8054610762906119f1565b80601f016020809104026020016040519081016040528092919081815260200182805461078e906119f1565b80156107db5780601f106107b0576101008083540402835291602001916107db565b820191906000526020600020905b8154815290600101906020018083116107be57829003601f168201915b50505050509050919050565b60006001600160a01b038216610813576040516322718ad960e21b815260006004820152602401610586565b506001600160a01b031660009081526003602052604090205490565b600f5460408051631127a41d60e31b815290516001600160a01b0390921691829163893d20e89160048083019260209291908290030181865afa15801561087a573d6000803e3d6000fd5b505050506040513d601f19601f8201168201806040525081019061089e9190611a41565b601080546001600160a01b0319166001600160a01b039290921691909117905550565b6060600180546104a5906119f1565b61055c338383610da7565b60006108ef600e546001600160a01b031690565b905090565b600060646008541061093d5760405162461bcd60e51b81526020600482015260126024820152711b585e081cdd5c1c1b1e481c995858da195960721b6044820152606401610586565b610949828401846116b9565b90506109558482610e46565b9392505050565b610967848484610560565b6105ea84848484610eab565b6010546001600160a01b031633146109db5760405162461bcd60e51b815260206004820152602560248201527f4f6e6c7920746865206f776e65722063616e2063616c6c20746869732066756e60448201526431ba34b7b760d91b6064820152608401610586565b6001600160a01b038116610a0d57604051632b58e82160e21b81526001600160a01b0382166004820152602401610586565b600d80546001600160a01b038381166001600160a01b031983168117909355604051911680825291907fcee9b4b221997e942679d9d57d8c171984dca4bc5ff74d92711200ac3d232e3e9060200160405180910390a25050565b6000818152600260205260409020546060906001600160a01b031680610aa35760405163230d897d60e21b815260048101849052602401610586565b6000838152600c60205260409020546001600160a01b03168015610b37576040516330c8446360e21b8152600481018590526001600160a01b0382169063c321118c906024015b600060405180830381865afa158015610b07573d6000803e3d6000fd5b505050506040513d6000823e601f3d908101601f19168201604052610b2f9190810190611a5e565b949350505050565b600d546040516330c8446360e21b8152600481018690526001600160a01b039091169063c321118c90602401610aea565b606061049082610fd4565b6000828152600260205260409020546001600160a01b031680610bac5760405163230d897d60e21b815260048101849052602401610586565b6001600160a01b038216610bde57604051632b58e82160e21b81526001600160a01b0383166004820152602401610586565b6000838152600c602052604080822080546001600160a01b0319166001600160a01b0386169081179091559051909185917f87ee21445db73fc31d1912380e621ad53034d6c810353610b23e349b7143a5a99190a3505050565b6001600160a01b03918216600090815260056020908152604080832093909416825291909152205460ff1690565b6106ea83611067565b60006001600160e01b0319821663780e9d6360e01b14806104905750610490826110a2565b6000818152600260205260408120546001600160a01b03168061049057604051637e27328960e01b815260048101849052602401610586565b6106ea83838360016110f2565b600080610ce88585856111f8565b90506001600160a01b038116610d4557610d4084600880546000838152600960205260408120829055600182018355919091527ff3f7a9fe364faab93b216da50a3214154f22a0a2b415b23a84c8169e8b636ee30155565b610d68565b846001600160a01b0316816001600160a01b031614610d6857610d6881856112f1565b6001600160a01b038516610d8457610d7f84611382565b610b2f565b846001600160a01b0316816001600160a01b031614610b2f57610b2f8585611431565b6001600160a01b038216610dd957604051630b61174360e31b81526001600160a01b0383166004820152602401610586565b6001600160a01b03838116600081815260056020908152604080832094871680845294825291829020805460ff191686151590811790915591519182527f17307eab39ab6107e8899845ad3d59bd9653f200f220920489ca2b5937696c31910160405180910390a3505050565b6001600160a01b038216610e7057604051633250574960e11b815260006004820152602401610586565b6000610e7e83836000610cda565b90506001600160a01b038116156106ea576040516339e3563760e11b815260006004820152602401610586565b6001600160a01b0383163b156105ea57604051630a85bd0160e11b81526001600160a01b0384169063150b7a0290610eed903390889087908790600401611ad5565b6020604051808303816000875af1925050508015610f28575060408051601f3d908101601f19168201909252610f2591810190611b12565b60015b610f91573d808015610f56576040519150601f19603f3d011682016040523d82523d6000602084013e610f5b565b606091505b508051600003610f8957604051633250574960e11b81526001600160a01b0385166004820152602401610586565b805181602001fd5b6001600160e01b03198116630a85bd0160e11b14610fcd57604051633250574960e11b81526001600160a01b0385166004820152602401610586565b5050505050565b60606000610fe183611481565b600101905060008167ffffffffffffffff8111156110015761100161184d565b6040519080825280601f01601f19166020018201604052801561102b576020820181803683370190505b5090508181016020015b600019016f181899199a1a9b1b9c1cb0b131b232b360811b600a86061a8153600a850494508461103557509392505050565b60006110766000836000610cda565b90506001600160a01b03811661055c57604051637e27328960e01b815260048101839052602401610586565b60006001600160e01b031982166380ac58cd60e01b14806110d357506001600160e01b03198216635b5e139f60e01b145b8061049057506301ffc9a760e01b6001600160e01b0319831614610490565b808061110657506001600160a01b03821615155b156111c857600061111684610c94565b90506001600160a01b038316158015906111425750826001600160a01b0316816001600160a01b031614155b801561115557506111538184610c38565b155b1561117e5760405163a9fbf51f60e01b81526001600160a01b0384166004820152602401610586565b81156111c65783856001600160a01b0316826001600160a01b03167f8c5be1e5ebec7d5bd14f71427d1e84f3dd0314c0f7b2291e5b200ac8c7c3b92560405160405180910390a45b505b5050600090815260046020526040902080546001600160a01b0319166001600160a01b0392909216919091179055565b6000828152600260205260408120546001600160a01b039081169083161561122557611225818486611559565b6001600160a01b03811615611263576112426000856000806110f2565b6001600160a01b038116600090815260036020526040902080546000190190555b6001600160a01b03851615611292576001600160a01b0385166000908152600360205260409020805460010190555b60008481526002602052604080822080546001600160a01b0319166001600160a01b0389811691821790925591518793918516917fddf252ad1be2c89b69c2b068fc378daa952ba7f163c4a11628f55a4df523b3ef91a4949350505050565b60006112fc836107e7565b60008381526007602052604090205490915080821461134f576001600160a01b03841660009081526006602090815260408083208584528252808320548484528184208190558352600790915290208190555b5060009182526007602090815260408084208490556001600160a01b039094168352600681528383209183525290812055565b60085460009061139490600190611b2f565b600083815260096020526040812054600880549394509092849081106113bc576113bc611a2b565b9060005260206000200154905080600883815481106113dd576113dd611a2b565b600091825260208083209091019290925582815260099091526040808220849055858252812055600880548061141557611415611b50565b6001900381819060005260206000200160009055905550505050565b6000600161143e846107e7565b6114489190611b2f565b6001600160a01b039093166000908152600660209081526040808320868452825280832085905593825260079052919091209190915550565b60008072184f03e93ff9f4daa797ed6e38ed64bf6a1f0160401b83106114c05772184f03e93ff9f4daa797ed6e38ed64bf6a1f0160401b830492506040015b6d04ee2d6d415b85acef810000000083106114ec576d04ee2d6d415b85acef8100000000830492506020015b662386f26fc10000831061150a57662386f26fc10000830492506010015b6305f5e1008310611522576305f5e100830492506008015b612710831061153657612710830492506004015b60648310611548576064830492506002015b600a83106104905760010192915050565b6115648383836115bd565b6106ea576001600160a01b03831661159257604051637e27328960e01b815260048101829052602401610586565b60405163177e802f60e01b81526001600160a01b038316600482015260248101829052604401610586565b60006001600160a01b03831615801590610b2f5750826001600160a01b0316846001600160a01b031614806115f757506115f78484610c38565b80610b2f5750506000908152600460205260409020546001600160a01b03908116911614919050565b6001600160e01b03198116811461163657600080fd5b50565b60006020828403121561164b57600080fd5b813561095581611620565b60005b83811015611671578181015183820152602001611659565b50506000910152565b60008151808452611692816020860160208601611656565b601f01601f19169290920160200192915050565b602081526000610955602083018461167a565b6000602082840312156116cb57600080fd5b5035919050565b6001600160a01b038116811461163657600080fd5b600080604083850312156116fa57600080fd5b8235611705816116d2565b946020939093013593505050565b60008060006060848603121561172857600080fd5b8335611733816116d2565b92506020840135611743816116d2565b929592945050506040919091013590565b60006020828403121561176657600080fd5b8135610955816116d2565b6000806040838503121561178457600080fd5b823561178f816116d2565b9150602083013580151581146117a457600080fd5b809150509250929050565b60008083601f8401126117c157600080fd5b50813567ffffffffffffffff8111156117d957600080fd5b6020830191508360208285010111156117f157600080fd5b9250929050565b60008060006040848603121561180d57600080fd5b8335611818816116d2565b9250602084013567ffffffffffffffff81111561183457600080fd5b611840868287016117af565b9497909650939450505050565b634e487b7160e01b600052604160045260246000fd5b604051601f8201601f1916810167ffffffffffffffff8111828210171561188c5761188c61184d565b604052919050565b600067ffffffffffffffff8211156118ae576118ae61184d565b50601f01601f191660200190565b600080600080608085870312156118d257600080fd5b84356118dd816116d2565b935060208501356118ed816116d2565b925060408501359150606085013567ffffffffffffffff81111561191057600080fd5b8501601f8101871361192157600080fd5b803561193461192f82611894565b611863565b81815288602083850101111561194957600080fd5b8160208401602083013760006020838301015280935050505092959194509250565b6000806040838503121561197e57600080fd5b8235915060208301356117a4816116d2565b600080604083850312156119a357600080fd5b82356119ae816116d2565b915060208301356117a4816116d2565b6000806000604084860312156119d357600080fd5b83359250602084013567ffffffffffffffff81111561183457600080fd5b600181811c90821680611a0557607f821691505b602082108103611a2557634e487b7160e01b600052602260045260246000fd5b50919050565b634e487b7160e01b600052603260045260246000fd5b600060208284031215611a5357600080fd5b8151610955816116d2565b600060208284031215611a7057600080fd5b815167ffffffffffffffff811115611a8757600080fd5b8201601f81018413611a9857600080fd5b8051611aa661192f82611894565b818152856020838501011115611abb57600080fd5b611acc826020830160208601611656565b95945050505050565b6001600160a01b0385811682528416602082015260408101839052608060608201819052600090611b089083018461167a565b9695505050505050565b600060208284031215611b2457600080fd5b815161095581611620565b8181038181111561049057634e487b7160e01b600052601160045260246000fd5b634e487b7160e01b600052603160045260246000fdfea264697066735822122010d7cac6237b00bb977031cfbfd5a4c6e8ebf33f7f9fe906d15868734ad2a5db64736f6c63430008150033",
  "linkReferences": {},
  "deployedLinkReferences": {}
}