{
  "_format": "hh-sol-artifact-1",
  "contractName": "AgencyImp",
  "sourceName": "contracts/ReflectionAgencyImp.sol",
  "abi": [
    {
      "inputs": [
        {
          "internalType": "address",
          "name": "account",
          "type": "address"
        }
      ],
      "name": "AddressInsufficientBalance",
      "type": "error"
    },
    {
      "inputs": [],
      "name": "FailedInnerCall",
      "type": "error"
    },
    {
      "anonymous": false,
      "inputs": [
        {
          "indexed": true,
          "internalType": "address",
          "name": "to",
          "type": "address"
        },
        {
          "indexed": true,
          "internalType": "uint256",
          "name": "tokenId",
          "type": "uint256"
        },
        {
          "indexed": false,
          "internalType": "uint256",
          "name": "price",
          "type": "uint256"
        },
        {
          "indexed": false,
          "internalType": "uint256",
          "name": "fee",
          "type": "uint256"
        }
      ],
      "name": "Unwrap",
      "type": "event"
    },
    {
      "anonymous": false,
      "inputs": [
        {
          "indexed": true,
          "internalType": "address",
          "name": "to",
          "type": "address"
        },
        {
          "indexed": true,
          "internalType": "uint256",
          "name": "tokenId",
          "type": "uint256"
        },
        {
          "indexed": false,
          "internalType": "uint256",
          "name": "price",
          "type": "uint256"
        },
        {
          "indexed": false,
          "internalType": "uint256",
          "name": "fee",
          "type": "uint256"
        }
      ],
      "name": "Wrap",
      "type": "event"
    },
    {
      "inputs": [
        {
          "internalType": "uint256",
          "name": "data",
          "type": "uint256"
        }
      ],
      "name": "encode",
      "outputs": [
        {
          "internalType": "bytes",
          "name": "",
          "type": "bytes"
        }
      ],
      "stateMutability": "nonpayable",
      "type": "function"
    },
    {
      "inputs": [],
      "name": "getAppImpAddress",
      "outputs": [
        {
          "internalType": "address",
          "name": "",
          "type": "address"
        }
      ],
      "stateMutability": "view",
      "type": "function"
    },
    {
      "inputs": [],
      "name": "getStrategy",
      "outputs": [
        {
          "internalType": "address",
          "name": "app",
          "type": "address"
        },
        {
          "components": [
            {
              "internalType": "address",
              "name": "currency",
              "type": "address"
            },
            {
              "internalType": "uint256",
              "name": "premium",
              "type": "uint256"
            },
            {
              "internalType": "address",
              "name": "feeRecipient",
              "type": "address"
            },
            {
              "internalType": "uint16",
              "name": "mintFeePercent",
              "type": "uint16"
            },
            {
              "internalType": "uint16",
              "name": "burnFeePercent",
              "type": "uint16"
            }
          ],
          "internalType": "struct Asset",
          "name": "asset_",
          "type": "tuple"
        },
        {
          "internalType": "bytes",
          "name": "attributeData",
          "type": "bytes"
        }
      ],
      "stateMutability": "view",
      "type": "function"
    },
    {
      "inputs": [
        {
          "internalType": "bytes",
          "name": "data",
          "type": "bytes"
        }
      ],
      "name": "getUnwrapOracle",
      "outputs": [
        {
          "internalType": "uint256",
          "name": "swap",
          "type": "uint256"
        },
        {
          "internalType": "uint256",
          "name": "fee",
          "type": "uint256"
        }
      ],
      "stateMutability": "view",
      "type": "function"
    },
    {
      "inputs": [
        {
          "internalType": "bytes",
          "name": "data",
          "type": "bytes"
        }
      ],
      "name": "getWrapOracle",
      "outputs": [
        {
          "internalType": "uint256",
          "name": "swap",
          "type": "uint256"
        },
        {
          "internalType": "uint256",
          "name": "fee",
          "type": "uint256"
        }
      ],
      "stateMutability": "view",
      "type": "function"
    },
    {
      "inputs": [
        {
          "internalType": "address",
          "name": "somebody",
          "type": "address"
        }
      ],
      "name": "getparticipated",
      "outputs": [
        {
          "components": [
            {
              "internalType": "address",
              "name": "useraddress",
              "type": "address"
            },
            {
              "internalType": "uint256",
              "name": "tokenid",
              "type": "uint256"
            },
            {
              "internalType": "bool",
              "name": "IsHolding",
              "type": "bool"
            },
            {
              "internalType": "bool",
              "name": "IsOwnership",
              "type": "bool"
            }
          ],
          "internalType": "struct AgencyImp.User",
          "name": "",
          "type": "tuple"
        }
      ],
      "stateMutability": "view",
      "type": "function"
    },
    {
      "inputs": [
        {
          "internalType": "address",
          "name": "_AppImp",
          "type": "address"
        }
      ],
      "name": "setAppImpAddress",
      "outputs": [],
      "stateMutability": "nonpayable",
      "type": "function"
    },
    {
      "inputs": [],
      "name": "setAsset",
      "outputs": [],
      "stateMutability": "nonpayable",
      "type": "function"
    },
    {
      "inputs": [
        {
          "internalType": "address",
          "name": "to",
          "type": "address"
        },
        {
          "internalType": "uint256",
          "name": "tokenId",
          "type": "uint256"
        },
        {
          "internalType": "bytes",
          "name": "data",
          "type": "bytes"
        }
      ],
      "name": "unwrap",
      "outputs": [],
      "stateMutability": "payable",
      "type": "function"
    },
    {
      "inputs": [
        {
          "internalType": "address",
          "name": "to",
          "type": "address"
        },
        {
          "internalType": "bytes",
          "name": "data",
          "type": "bytes"
        }
      ],
      "name": "wrap",
      "outputs": [
        {
          "internalType": "uint256",
          "name": "",
          "type": "uint256"
        }
      ],
      "stateMutability": "payable",
      "type": "function"
    },
    {
      "stateMutability": "payable",
      "type": "receive"
    }
  ],
  "bytecode": "0x608060405234801561001057600080fd5b506112a4806100206000396000f3fe6080604052600436106100955760003560e01c80638ba6cd03116100595780638ba6cd03146101cc5780638e1f1447146101ed578063d1bd51281461020d578063deb21fa21461024a578063fccbd8ef1461027757600080fd5b80630453453a146100a157806307da0603146100f75780633c6e2f2214610124578063432b9fdd14610137578063469927361461019757600080fd5b3661009c57005b600080fd5b3480156100ad57600080fd5b50600280546001600160a01b031916905567016345785d8a0000600355600480546001600160c01b031916760a000a5b38da6a701c568545dcfcb03fcb875f56beddc4179055005b005b34801561010357600080fd5b5061010c61029f565b60405161011b93929190610ea1565b60405180910390f35b6100f5610132366004610f6b565b610340565b34801561014357600080fd5b50610157610152366004610fc7565b61058a565b60405161011b919081516001600160a01b031681526020808301519082015260408083015115159082015260609182015115159181019190915260800190565b3480156101a357600080fd5b506101b76101b2366004611001565b610600565b6040805192835260208301919091520161011b565b6101df6101da3660046110b2565b610680565b60405190815260200161011b565b3480156101f957600080fd5b506101b7610208366004611001565b610b05565b34801561021957600080fd5b506100f5610228366004610fc7565b600180546001600160a01b0319166001600160a01b0392909216919091179055565b34801561025657600080fd5b5061026a610265366004611107565b610b72565b60405161011b9190611120565b34801561028357600080fd5b506001546040516001600160a01b03909116815260200161011b565b6040805160a08101825260008082526020820181905291810182905260608101829052608081018290526040805160a0810182526000815267016345785d8a00006020820152735b38da6a701c568545dcfcb03fcb875f56beddc491810191909152600a60608281018290526080830191909152906103266001546001600160a01b031690565b604080516020810190915260008152909591945092509050565b60008061034b61029f565b509150915061035b823387610b9d565b6103a25760405162461bcd60e51b8152602060048201526013602482015272263726b7b23ab6329d103737ba1037bbb732b960691b60448201526064015b60405180910390fd5b60405163fe9d930360e01b81526001600160a01b0383169063fe9d9303906103d29088908890889060040161115c565b600060405180830381600087803b1580156103ec57600080fd5b505af1158015610400573d6000803e3d6000fd5b505050506000826001600160a01b03166318160ddd6040518163ffffffff1660e01b8152600401602060405180830381865afa158015610444573d6000803e3d6000fd5b505050506040513d601f19601f820116820180604052508101906104689190611176565b90506000806104978360405160200161048391815260200190565b604051602081830303815290604052610b05565b90925090506104b160008a6104ac84866111a5565b610d25565b6104c16000856040015183610d25565b3360009081526020819052604090206002015460ff1615156001146105215760405162461bcd60e51b81526020600482015260166024820152752ab730baba3437b934bd32b21027b832b930ba34b7b760511b6044820152606401610399565b6001600160a01b03891660008181526020818152604091829020600201805460ff1916905581518581529081018490528a92917f6f3909b7a53c87de0fbb65758a177c9d1137e29b1555684084e2e4161b064b2b910160405180910390a3505050505050505050565b60408051608080820183526000808352602080840182905283850182905260609384018290526001600160a01b03958616825281815290849020845192830185528054909516825260018501549082015260029093015460ff808216151593850193909352610100900490911615159082015290565b6000806000838060200190518101906106199190611176565b9050600061062561029f565b50915050606481602001518361063b91906111be565b61064591906111d5565b816020015161065491906111f7565b9350612710816060015161ffff168561066d91906111be565b61067791906111d5565b92505050915091565b60008061068c8561058a565b516001600160a01b0316146106f7573360009081526020819052604090206002015460ff16156106f75760405162461bcd60e51b81526020600482015260166024820152752ab730baba3437b934bd32b21027b832b930ba34b7b760511b6044820152606401610399565b60008061070261029f565b50915091506000826001600160a01b03166318160ddd6040518163ffffffff1660e01b8152600401602060405180830381865afa158015610747573d6000803e3d6000fd5b505050506040513d601f19601f8201168201806040525081019061076b9190611176565b905060008061079a8360405160200161078691815260200190565b604051602081830303815290604052610600565b90925090506107a981836111f7565b3410156107f85760405162461bcd60e51b815260206004820152601d60248201527f4167656e6379496d703a20696e73756666696369656e742066756e64730000006044820152606401610399565b6108086000856040015183610d25565b61081281836111f7565b341115610834576108346000338361082a86346111a5565b6104ac91906111a5565b60405163b510391f60e01b81526000906001600160a01b0387169063b510391f90610867908d908d908d9060040161120a565b6020604051808303816000875af1158015610886573d6000803e3d6000fd5b505050506040513d601f19601f820116820180604052508101906108aa9190611176565b905060006108b78b61058a565b516001600160a01b0316036109d9576040805160808101825260008082526020820181905291810182905260608101919091523381600001906001600160a01b031690816001600160a01b0316815250506000816060019015159081151581525050600181604001901515908115158152505081816020018181525050806000808d6001600160a01b03166001600160a01b0316815260200190815260200160002060008201518160000160006101000a8154816001600160a01b0302191690836001600160a01b031602179055506020820151816001015560408201518160020160006101000a81548160ff02191690831515021790555060608201518160020160016101000a81548160ff02191690831515021790555090505050610a00565b6001600160a01b038a166000908152602081905260409020600201805460ff191660011790555b856001600160a01b03166318160ddd6040518163ffffffff1660e01b8152600401602060405180830381865afa158015610a3e573d6000803e3d6000fd5b505050506040513d601f19601f82011682018060405250810190610a629190611176565b610a6d8560016111f7565b14610ab25760405162461bcd60e51b81526020600482015260156024820152744167656e6379496d703a205265656e7472616e637960581b6044820152606401610399565b604080518481526020810184905282916001600160a01b038d16917f53c6313aa0cdb420b390a846db25405b96983737e602bba548f9ade0e4feaec9910160405180910390a39998505050505050505050565b600080600083806020019051810190610b1e9190611176565b90506000610b2a61029f565b509150506064816020015183610b4091906111be565b610b4a91906111d5565b8160200151610b5991906111f7565b9350612710816080015161ffff168561066d91906111be565b606081604051602001610b8791815260200190565b6040516020818303038152906040529050919050565b6040516331a9108f60e11b815260048101829052600090849082906001600160a01b03831690636352211e90602401602060405180830381865afa158015610be9573d6000803e3d6000fd5b505050506040513d601f19601f82011682018060405250810190610c0d919061122f565b9050806001600160a01b0316856001600160a01b03161480610c9c575060405163e985e9c560e01b81526001600160a01b038281166004830152868116602483015283169063e985e9c590604401602060405180830381865afa158015610c78573d6000803e3d6000fd5b505050506040513d601f19601f82011682018060405250810190610c9c919061124c565b80610d1b575060405163020604bf60e21b8152600481018590526001600160a01b03808716919084169063081812fc90602401602060405180830381865afa158015610cec573d6000803e3d6000fd5b505050506040513d601f19601f82011682018060405250810190610d10919061122f565b6001600160a01b0316145b9695505050505050565b6001600160a01b038316610d4b57610d466001600160a01b03831682610dc4565b505050565b60405163a9059cbb60e01b81526001600160a01b0383811660048301526024820183905284169063a9059cbb906044016020604051808303816000875af1158015610d9a573d6000803e3d6000fd5b505050506040513d601f19601f82011682018060405250810190610dbe919061124c565b50505050565b80471015610de75760405163cd78605960e01b8152306004820152602401610399565b6000826001600160a01b03168260405160006040518083038185875af1925050503d8060008114610e34576040519150601f19603f3d011682016040523d82523d6000602084013e610e39565b606091505b5050905080610d4657604051630a12f52160e11b815260040160405180910390fd5b6000815180845260005b81811015610e8157602081850181015186830182015201610e65565b506000602082860101526020601f19601f83011685010191505092915050565b600060018060a01b0380861683528085511660208401526020850151604084015280604086015116606084015250606084015161ffff80821660808501528060808701511660a0850152505060e060c0830152610f0160e0830184610e5b565b95945050505050565b6001600160a01b0381168114610f1f57600080fd5b50565b60008083601f840112610f3457600080fd5b50813567ffffffffffffffff811115610f4c57600080fd5b602083019150836020828501011115610f6457600080fd5b9250929050565b60008060008060608587031215610f8157600080fd5b8435610f8c81610f0a565b935060208501359250604085013567ffffffffffffffff811115610faf57600080fd5b610fbb87828801610f22565b95989497509550505050565b600060208284031215610fd957600080fd5b8135610fe481610f0a565b9392505050565b634e487b7160e01b600052604160045260246000fd5b60006020828403121561101357600080fd5b813567ffffffffffffffff8082111561102b57600080fd5b818401915084601f83011261103f57600080fd5b81358181111561105157611051610feb565b604051601f8201601f19908116603f0116810190838211818310171561107957611079610feb565b8160405282815287602084870101111561109257600080fd5b826020860160208301376000928101602001929092525095945050505050565b6000806000604084860312156110c757600080fd5b83356110d281610f0a565b9250602084013567ffffffffffffffff8111156110ee57600080fd5b6110fa86828701610f22565b9497909650939450505050565b60006020828403121561111957600080fd5b5035919050565b602081526000610fe46020830184610e5b565b81835281816020850137506000828201602090810191909152601f909101601f19169091010190565b838152604060208201526000610f01604083018486611133565b60006020828403121561118857600080fd5b5051919050565b634e487b7160e01b600052601160045260246000fd5b818103818111156111b8576111b861118f565b92915050565b80820281158282048414176111b8576111b861118f565b6000826111f257634e487b7160e01b600052601260045260246000fd5b500490565b808201808211156111b8576111b861118f565b6001600160a01b0384168152604060208201819052600090610f019083018486611133565b60006020828403121561124157600080fd5b8151610fe481610f0a565b60006020828403121561125e57600080fd5b81518015158114610fe457600080fdfea2646970667358221220f06ed8727c2ad150b9bea93908319813b90697588373f2074a61ec86934a9bb164736f6c63430008150033",
  "linkReferences": {},
  "deployedLinkReferences": {}
}