{"contracts/ReflectionFactoryImp.sol":{"FactoryImp":{"abi":[{"inputs":[],"stateMutability":"nonpayable","type":"constructor"},{"inputs":[],"name":"CreateFail","type":"error"},{"inputs":[{"components":[{"internalType":"address payable","name":"implementation","type":"address"},{"components":[{"internalType":"address","name":"currency","type":"address"},{"internalType":"uint256","name":"premium","type":"uint256"},{"internalType":"address","name":"feeRecipient","type":"address"},{"internalType":"uint16","name":"mintFeePercent","type":"uint16"},{"internalType":"uint16","name":"burnFeePercent","type":"uint16"}],"internalType":"struct Asset","name":"asset","type":"tuple"},{"internalType":"bytes","name":"immutableData","type":"bytes"},{"internalType":"bytes","name":"initData","type":"bytes"}],"internalType":"struct AgencySettings","name":"agencySettings","type":"tuple"},{"components":[{"internalType":"address","name":"implementation","type":"address"},{"internalType":"bytes","name":"immutableData","type":"bytes"},{"internalType":"bytes","name":"initData","type":"bytes"}],"internalType":"struct AppSettings","name":"appSettings","type":"tuple"},{"internalType":"bytes","name":"","type":"bytes"}],"name":"deployWrap","outputs":[{"internalType":"address","name":"appInstance","type":"address"},{"internalType":"address","name":"agencyInstance","type":"address"}],"stateMutability":"nonpayable","type":"function"},{"inputs":[],"name":"getOwner","outputs":[{"internalType":"address","name":"","type":"address"}],"stateMutability":"view","type":"function"},{"inputs":[],"name":"owner","outputs":[{"internalType":"address","name":"","type":"address"}],"stateMutability":"view","type":"function"}],"evm":{"bytecode":{"linkReferences":{},"object":"608060405234801561001057600080fd5b50600080546001600160a01b0319163317905561050f806100326000396000f3fe608060405234801561001057600080fd5b50600436106100415760003560e01c80630f47899114610046578063893d20e81461007e5780638da5cb5b146100a3575b600080fd5b6100596100543660046102fc565b6100b6565b604080516001600160a01b039384168152929091166020830152015b60405180910390f35b6000546001600160a01b03165b6040516001600160a01b039091168152602001610075565b60005461008b906001600160a01b031681565b60008061011a6100c960208701876103c3565b8080601f01602080910402602001604051908101604052809392919081815260200183838082843760009201919091525061010b925050506020880188610429565b6001600160a01b0316906101b1565b91506101a6826101306040890160208a01610429565b604089013561014560808b0160608c01610429565b61015560a08c0160808d01610446565b61016560c08d0160a08e01610446565b61017260c08e018e6103c3565b60405160200161018998979695949392919061046a565b60408051601f1981840301815291905261010b6020890189610429565b905094509492505050565b60006101bf838360006101c6565b9392505050565b6000806101d3858561020e565b905080516020820184f091506001600160a01b03821661020657604051631d7fde3160e31b815260040160405180910390fd5b509392505050565b80516040805160438084018083528285019091018352606160f81b60208084019182526039860160f081811b60218701526f3d81600a3d39f33d3d3d3d363d3d376160801b602387015260028801901b603386018190526560373639366160d01b6035870152603b86015262013d7360e81b603d860152606089901b958501959095526c5af43d3d93803e603557fd5bf360981b6054850152929493919286019084606187015b602082106102d45783518152602093840193601f1990920191016102b5565b925160001960208390036101000a011916835260f09590951b91909401525091949350505050565b6000806000806060858703121561031257600080fd5b843567ffffffffffffffff8082111561032a57600080fd5b90860190610100828903121561033f57600080fd5b9094506020860135908082111561035557600080fd5b908601906060828903121561036957600080fd5b9093506040860135908082111561037f57600080fd5b818701915087601f83011261039357600080fd5b8135818111156103a257600080fd5b8860208285010111156103b457600080fd5b95989497505060200194505050565b6000808335601e198436030181126103da57600080fd5b83018035915067ffffffffffffffff8211156103f557600080fd5b60200191503681900382131561040a57600080fd5b9250929050565b6001600160a01b038116811461042657600080fd5b50565b60006020828403121561043b57600080fd5b81356101bf81610411565b60006020828403121561045857600080fd5b813561ffff811681146101bf57600080fd5b60006bffffffffffffffffffffffff19808b60601b168352808a60601b166014840152886028840152808860601b1660488401525061ffff60f01b808760f01b16605c840152808660f01b16605e8401525082846060840137506000910160600190815297965050505050505056fea2646970667358221220029bb852c86f06671f9688f5c42d9ff726ba11bf3268a9fea8a42d73289c2f2664736f6c63430008150033","opcodes":"PUSH1 0x80 PUSH1 0x40 MSTORE CALLVALUE DUP1 ISZERO PUSH2 0x10 JUMPI PUSH1 0x0 DUP1 REVERT JUMPDEST POP PUSH1 0x0 DUP1 SLOAD PUSH1 0x1 PUSH1 0x1 PUSH1 0xA0 SHL SUB NOT AND CALLER OR SWAP1 SSTORE PUSH2 0x50F DUP1 PUSH2 0x32 PUSH1 0x0 CODECOPY PUSH1 0x0 RETURN INVALID PUSH1 0x80 PUSH1 0x40 MSTORE CALLVALUE DUP1 ISZERO PUSH2 0x10 JUMPI PUSH1 0x0 DUP1 REVERT JUMPDEST POP PUSH1 0x4 CALLDATASIZE LT PUSH2 0x41 JUMPI PUSH1 0x0 CALLDATALOAD PUSH1 0xE0 SHR DUP1 PUSH4 0xF478991 EQ PUSH2 0x46 JUMPI DUP1 PUSH4 0x893D20E8 EQ PUSH2 0x7E JUMPI DUP1 PUSH4 0x8DA5CB5B EQ PUSH2 0xA3 JUMPI JUMPDEST PUSH1 0x0 DUP1 REVERT JUMPDEST PUSH2 0x59 PUSH2 0x54 CALLDATASIZE PUSH1 0x4 PUSH2 0x2FC JUMP JUMPDEST PUSH2 0xB6 JUMP JUMPDEST PUSH1 0x40 DUP1 MLOAD PUSH1 0x1 PUSH1 0x1 PUSH1 0xA0 SHL SUB SWAP4 DUP5 AND DUP2 MSTORE SWAP3 SWAP1 SWAP2 AND PUSH1 0x20 DUP4 ADD MSTORE ADD JUMPDEST PUSH1 0x40 MLOAD DUP1 SWAP2 SUB SWAP1 RETURN JUMPDEST PUSH1 0x0 SLOAD PUSH1 0x1 PUSH1 0x1 PUSH1 0xA0 SHL SUB AND JUMPDEST PUSH1 0x40 MLOAD PUSH1 0x1 PUSH1 0x1 PUSH1 0xA0 SHL SUB SWAP1 SWAP2 AND DUP2 MSTORE PUSH1 0x20 ADD PUSH2 0x75 JUMP JUMPDEST PUSH1 0x0 SLOAD PUSH2 0x8B SWAP1 PUSH1 0x1 PUSH1 0x1 PUSH1 0xA0 SHL SUB AND DUP2 JUMP JUMPDEST PUSH1 0x0 DUP1 PUSH2 0x11A PUSH2 0xC9 PUSH1 0x20 DUP8 ADD DUP8 PUSH2 0x3C3 JUMP JUMPDEST DUP1 DUP1 PUSH1 0x1F ADD PUSH1 0x20 DUP1 SWAP2 DIV MUL PUSH1 0x20 ADD PUSH1 0x40 MLOAD SWAP1 DUP2 ADD PUSH1 0x40 MSTORE DUP1 SWAP4 SWAP3 SWAP2 SWAP1 DUP2 DUP2 MSTORE PUSH1 0x20 ADD DUP4 DUP4 DUP1 DUP3 DUP5 CALLDATACOPY PUSH1 0x0 SWAP3 ADD SWAP2 SWAP1 SWAP2 MSTORE POP PUSH2 0x10B SWAP3 POP POP POP PUSH1 0x20 DUP9 ADD DUP9 PUSH2 0x429 JUMP JUMPDEST PUSH1 0x1 PUSH1 0x1 PUSH1 0xA0 SHL SUB AND SWAP1 PUSH2 0x1B1 JUMP JUMPDEST SWAP2 POP PUSH2 0x1A6 DUP3 PUSH2 0x130 PUSH1 0x40 DUP10 ADD PUSH1 0x20 DUP11 ADD PUSH2 0x429 JUMP JUMPDEST PUSH1 0x40 DUP10 ADD CALLDATALOAD PUSH2 0x145 PUSH1 0x80 DUP12 ADD PUSH1 0x60 DUP13 ADD PUSH2 0x429 JUMP JUMPDEST PUSH2 0x155 PUSH1 0xA0 DUP13 ADD PUSH1 0x80 DUP14 ADD PUSH2 0x446 JUMP JUMPDEST PUSH2 0x165 PUSH1 0xC0 DUP14 ADD PUSH1 0xA0 DUP15 ADD PUSH2 0x446 JUMP JUMPDEST PUSH2 0x172 PUSH1 0xC0 DUP15 ADD DUP15 PUSH2 0x3C3 JUMP JUMPDEST PUSH1 0x40 MLOAD PUSH1 0x20 ADD PUSH2 0x189 SWAP9 SWAP8 SWAP7 SWAP6 SWAP5 SWAP4 SWAP3 SWAP2 SWAP1 PUSH2 0x46A JUMP JUMPDEST PUSH1 0x40 DUP1 MLOAD PUSH1 0x1F NOT DUP2 DUP5 SUB ADD DUP2 MSTORE SWAP2 SWAP1 MSTORE PUSH2 0x10B PUSH1 0x20 DUP10 ADD DUP10 PUSH2 0x429 JUMP JUMPDEST SWAP1 POP SWAP5 POP SWAP5 SWAP3 POP POP POP JUMP JUMPDEST PUSH1 0x0 PUSH2 0x1BF DUP4 DUP4 PUSH1 0x0 PUSH2 0x1C6 JUMP JUMPDEST SWAP4 SWAP3 POP POP POP JUMP JUMPDEST PUSH1 0x0 DUP1 PUSH2 0x1D3 DUP6 DUP6 PUSH2 0x20E JUMP JUMPDEST SWAP1 POP DUP1 MLOAD PUSH1 0x20 DUP3 ADD DUP5 CREATE SWAP2 POP PUSH1 0x1 PUSH1 0x1 PUSH1 0xA0 SHL SUB DUP3 AND PUSH2 0x206 JUMPI PUSH1 0x40 MLOAD PUSH4 0x1D7FDE31 PUSH1 0xE3 SHL DUP2 MSTORE PUSH1 0x4 ADD PUSH1 0x40 MLOAD DUP1 SWAP2 SUB SWAP1 REVERT JUMPDEST POP SWAP4 SWAP3 POP POP POP JUMP JUMPDEST DUP1 MLOAD PUSH1 0x40 DUP1 MLOAD PUSH1 0x43 DUP1 DUP5 ADD DUP1 DUP4 MSTORE DUP3 DUP6 ADD SWAP1 SWAP2 ADD DUP4 MSTORE PUSH1 0x61 PUSH1 0xF8 SHL PUSH1 0x20 DUP1 DUP5 ADD SWAP2 DUP3 MSTORE PUSH1 0x39 DUP7 ADD PUSH1 0xF0 DUP2 DUP2 SHL PUSH1 0x21 DUP8 ADD MSTORE PUSH16 0x3D81600A3D39F33D3D3D3D363D3D3761 PUSH1 0x80 SHL PUSH1 0x23 DUP8 ADD MSTORE PUSH1 0x2 DUP9 ADD SWAP1 SHL PUSH1 0x33 DUP7 ADD DUP2 SWAP1 MSTORE PUSH6 0x603736393661 PUSH1 0xD0 SHL PUSH1 0x35 DUP8 ADD MSTORE PUSH1 0x3B DUP7 ADD MSTORE PUSH3 0x13D73 PUSH1 0xE8 SHL PUSH1 0x3D DUP7 ADD MSTORE PUSH1 0x60 DUP10 SWAP1 SHL SWAP6 DUP6 ADD SWAP6 SWAP1 SWAP6 MSTORE PUSH13 0x5AF43D3D93803E603557FD5BF3 PUSH1 0x98 SHL PUSH1 0x54 DUP6 ADD MSTORE SWAP3 SWAP5 SWAP4 SWAP2 SWAP3 DUP7 ADD SWAP1 DUP5 PUSH1 0x61 DUP8 ADD JUMPDEST PUSH1 0x20 DUP3 LT PUSH2 0x2D4 JUMPI DUP4 MLOAD DUP2 MSTORE PUSH1 0x20 SWAP4 DUP5 ADD SWAP4 PUSH1 0x1F NOT SWAP1 SWAP3 ADD SWAP2 ADD PUSH2 0x2B5 JUMP JUMPDEST SWAP3 MLOAD PUSH1 0x0 NOT PUSH1 0x20 DUP4 SWAP1 SUB PUSH2 0x100 EXP ADD NOT AND DUP4 MSTORE PUSH1 0xF0 SWAP6 SWAP1 SWAP6 SHL SWAP2 SWAP1 SWAP5 ADD MSTORE POP SWAP2 SWAP5 SWAP4 POP POP POP POP JUMP JUMPDEST PUSH1 0x0 DUP1 PUSH1 0x0 DUP1 PUSH1 0x60 DUP6 DUP8 SUB SLT ISZERO PUSH2 0x312 JUMPI PUSH1 0x0 DUP1 REVERT JUMPDEST DUP5 CALLDATALOAD PUSH8 0xFFFFFFFFFFFFFFFF DUP1 DUP3 GT ISZERO PUSH2 0x32A JUMPI PUSH1 0x0 DUP1 REVERT JUMPDEST SWAP1 DUP7 ADD SWAP1 PUSH2 0x100 DUP3 DUP10 SUB SLT ISZERO PUSH2 0x33F JUMPI PUSH1 0x0 DUP1 REVERT JUMPDEST SWAP1 SWAP5 POP PUSH1 0x20 DUP7 ADD CALLDATALOAD SWAP1 DUP1 DUP3 GT ISZERO PUSH2 0x355 JUMPI PUSH1 0x0 DUP1 REVERT JUMPDEST SWAP1 DUP7 ADD SWAP1 PUSH1 0x60 DUP3 DUP10 SUB SLT ISZERO PUSH2 0x369 JUMPI PUSH1 0x0 DUP1 REVERT JUMPDEST SWAP1 SWAP4 POP PUSH1 0x40 DUP7 ADD CALLDATALOAD SWAP1 DUP1 DUP3 GT ISZERO PUSH2 0x37F JUMPI PUSH1 0x0 DUP1 REVERT JUMPDEST DUP2 DUP8 ADD SWAP2 POP DUP8 PUSH1 0x1F DUP4 ADD SLT PUSH2 0x393 JUMPI PUSH1 0x0 DUP1 REVERT JUMPDEST DUP2 CALLDATALOAD DUP2 DUP2 GT ISZERO PUSH2 0x3A2 JUMPI PUSH1 0x0 DUP1 REVERT JUMPDEST DUP9 PUSH1 0x20 DUP3 DUP6 ADD ADD GT ISZERO PUSH2 0x3B4 JUMPI PUSH1 0x0 DUP1 REVERT JUMPDEST SWAP6 SWAP9 SWAP5 SWAP8 POP POP PUSH1 0x20 ADD SWAP5 POP POP POP JUMP JUMPDEST PUSH1 0x0 DUP1 DUP4 CALLDATALOAD PUSH1 0x1E NOT DUP5 CALLDATASIZE SUB ADD DUP2 SLT PUSH2 0x3DA JUMPI PUSH1 0x0 DUP1 REVERT JUMPDEST DUP4 ADD DUP1 CALLDATALOAD SWAP2 POP PUSH8 0xFFFFFFFFFFFFFFFF DUP3 GT ISZERO PUSH2 0x3F5 JUMPI PUSH1 0x0 DUP1 REVERT JUMPDEST PUSH1 0x20 ADD SWAP2 POP CALLDATASIZE DUP2 SWAP1 SUB DUP3 SGT ISZERO PUSH2 0x40A JUMPI PUSH1 0x0 DUP1 REVERT JUMPDEST SWAP3 POP SWAP3 SWAP1 POP JUMP JUMPDEST PUSH1 0x1 PUSH1 0x1 PUSH1 0xA0 SHL SUB DUP2 AND DUP2 EQ PUSH2 0x426 JUMPI PUSH1 0x0 DUP1 REVERT JUMPDEST POP JUMP JUMPDEST PUSH1 0x0 PUSH1 0x20 DUP3 DUP5 SUB SLT ISZERO PUSH2 0x43B JUMPI PUSH1 0x0 DUP1 REVERT JUMPDEST DUP2 CALLDATALOAD PUSH2 0x1BF DUP2 PUSH2 0x411 JUMP JUMPDEST PUSH1 0x0 PUSH1 0x20 DUP3 DUP5 SUB SLT ISZERO PUSH2 0x458 JUMPI PUSH1 0x0 DUP1 REVERT JUMPDEST DUP2 CALLDATALOAD PUSH2 0xFFFF DUP2 AND DUP2 EQ PUSH2 0x1BF JUMPI PUSH1 0x0 DUP1 REVERT JUMPDEST PUSH1 0x0 PUSH12 0xFFFFFFFFFFFFFFFFFFFFFFFF NOT DUP1 DUP12 PUSH1 0x60 SHL AND DUP4 MSTORE DUP1 DUP11 PUSH1 0x60 SHL AND PUSH1 0x14 DUP5 ADD MSTORE DUP9 PUSH1 0x28 DUP5 ADD MSTORE DUP1 DUP9 PUSH1 0x60 SHL AND PUSH1 0x48 DUP5 ADD MSTORE POP PUSH2 0xFFFF PUSH1 0xF0 SHL DUP1 DUP8 PUSH1 0xF0 SHL AND PUSH1 0x5C DUP5 ADD MSTORE DUP1 DUP7 PUSH1 0xF0 SHL AND PUSH1 0x5E DUP5 ADD MSTORE POP DUP3 DUP5 PUSH1 0x60 DUP5 ADD CALLDATACOPY POP PUSH1 0x0 SWAP2 ADD PUSH1 0x60 ADD SWAP1 DUP2 MSTORE SWAP8 SWAP7 POP POP POP POP POP POP POP JUMP INVALID LOG2 PUSH5 0x6970667358 0x22 SLT KECCAK256 MUL SWAP12 0xB8 MSTORE 0xC8 PUSH16 0x6671F9688F5C42D9FF726BA11BF3268 0xA9 INVALID 0xA8 LOG4 0x2D PUSH20 0x289C2F2664736F6C634300081500330000000000 "},"methodIdentifiers":{"deployWrap((address,(address,uint256,address,uint16,uint16),bytes,bytes),(address,bytes,bytes),bytes)":"0f478991","getOwner()":"893d20e8","owner()":"8da5cb5b"}}}}}