{"contracts/ReflectionAgencyImp.sol":{"AgencyImp":{"abi":[{"inputs":[{"internalType":"address","name":"account","type":"address"}],"name":"AddressInsufficientBalance","type":"error"},{"inputs":[],"name":"FailedInnerCall","type":"error"},{"anonymous":false,"inputs":[{"indexed":true,"internalType":"address","name":"to","type":"address"},{"indexed":true,"internalType":"uint256","name":"tokenId","type":"uint256"},{"indexed":false,"internalType":"uint256","name":"price","type":"uint256"},{"indexed":false,"internalType":"uint256","name":"fee","type":"uint256"}],"name":"Unwrap","type":"event"},{"anonymous":false,"inputs":[{"indexed":true,"internalType":"address","name":"to","type":"address"},{"indexed":true,"internalType":"uint256","name":"tokenId","type":"uint256"},{"indexed":false,"internalType":"uint256","name":"price","type":"uint256"},{"indexed":false,"internalType":"uint256","name":"fee","type":"uint256"}],"name":"Wrap","type":"event"},{"inputs":[{"internalType":"uint256","name":"data","type":"uint256"}],"name":"encode","outputs":[{"internalType":"bytes","name":"","type":"bytes"}],"stateMutability":"nonpayable","type":"function"},{"inputs":[],"name":"getAppImpAddress","outputs":[{"internalType":"address","name":"","type":"address"}],"stateMutability":"view","type":"function"},{"inputs":[],"name":"getStrategy","outputs":[{"internalType":"address","name":"app","type":"address"},{"components":[{"internalType":"address","name":"currency","type":"address"},{"internalType":"uint256","name":"premium","type":"uint256"},{"internalType":"address","name":"feeRecipient","type":"address"},{"internalType":"uint16","name":"mintFeePercent","type":"uint16"},{"internalType":"uint16","name":"burnFeePercent","type":"uint16"}],"internalType":"struct Asset","name":"asset_","type":"tuple"},{"internalType":"bytes","name":"attributeData","type":"bytes"}],"stateMutability":"view","type":"function"},{"inputs":[{"internalType":"bytes","name":"data","type":"bytes"}],"name":"getUnwrapOracle","outputs":[{"internalType":"uint256","name":"swap","type":"uint256"},{"internalType":"uint256","name":"fee","type":"uint256"}],"stateMutability":"view","type":"function"},{"inputs":[{"internalType":"bytes","name":"data","type":"bytes"}],"name":"getWrapOracle","outputs":[{"internalType":"uint256","name":"swap","type":"uint256"},{"internalType":"uint256","name":"fee","type":"uint256"}],"stateMutability":"view","type":"function"},{"inputs":[{"internalType":"address","name":"somebody","type":"address"}],"name":"getparticipated","outputs":[{"components":[{"internalType":"address","name":"useraddress","type":"address"},{"internalType":"uint256","name":"tokenid","type":"uint256"},{"internalType":"bool","name":"IsHolding","type":"bool"},{"internalType":"bool","name":"IsOwnership","type":"bool"}],"internalType":"struct AgencyImp.User","name":"","type":"tuple"}],"stateMutability":"view","type":"function"},{"inputs":[{"internalType":"address","name":"_AppImp","type":"address"}],"name":"setAppImpAddress","outputs":[],"stateMutability":"nonpayable","type":"function"},{"inputs":[],"name":"setAsset","outputs":[],"stateMutability":"nonpayable","type":"function"},{"inputs":[{"internalType":"address","name":"to","type":"address"},{"internalType":"uint256","name":"tokenId","type":"uint256"},{"internalType":"bytes","name":"data","type":"bytes"}],"name":"unwrap","outputs":[],"stateMutability":"payable","type":"function"},{"inputs":[{"internalType":"address","name":"to","type":"address"},{"internalType":"bytes","name":"data","type":"bytes"}],"name":"wrap","outputs":[{"internalType":"uint256","name":"","type":"uint256"}],"stateMutability":"payable","type":"function"},{"stateMutability":"payable","type":"receive"}],"evm":{"bytecode":{"linkReferences":{},"object":"608060405234801561001057600080fd5b506112a4806100206000396000f3fe6080604052600436106100955760003560e01c80638ba6cd03116100595780638ba6cd03146101cc5780638e1f1447146101ed578063d1bd51281461020d578063deb21fa21461024a578063fccbd8ef1461027757600080fd5b80630453453a146100a157806307da0603146100f75780633c6e2f2214610124578063432b9fdd14610137578063469927361461019757600080fd5b3661009c57005b600080fd5b3480156100ad57600080fd5b50600280546001600160a01b031916905567016345785d8a0000600355600480546001600160c01b031916760a000a5b38da6a701c568545dcfcb03fcb875f56beddc4179055005b005b34801561010357600080fd5b5061010c61029f565b60405161011b93929190610ea1565b60405180910390f35b6100f5610132366004610f6b565b610340565b34801561014357600080fd5b50610157610152366004610fc7565b61058a565b60405161011b919081516001600160a01b031681526020808301519082015260408083015115159082015260609182015115159181019190915260800190565b3480156101a357600080fd5b506101b76101b2366004611001565b610600565b6040805192835260208301919091520161011b565b6101df6101da3660046110b2565b610680565b60405190815260200161011b565b3480156101f957600080fd5b506101b7610208366004611001565b610b05565b34801561021957600080fd5b506100f5610228366004610fc7565b600180546001600160a01b0319166001600160a01b0392909216919091179055565b34801561025657600080fd5b5061026a610265366004611107565b610b72565b60405161011b9190611120565b34801561028357600080fd5b506001546040516001600160a01b03909116815260200161011b565b6040805160a08101825260008082526020820181905291810182905260608101829052608081018290526040805160a0810182526000815267016345785d8a00006020820152735b38da6a701c568545dcfcb03fcb875f56beddc491810191909152600a60608281018290526080830191909152906103266001546001600160a01b031690565b604080516020810190915260008152909591945092509050565b60008061034b61029f565b509150915061035b823387610b9d565b6103a25760405162461bcd60e51b8152602060048201526013602482015272263726b7b23ab6329d103737ba1037bbb732b960691b60448201526064015b60405180910390fd5b60405163fe9d930360e01b81526001600160a01b0383169063fe9d9303906103d29088908890889060040161115c565b600060405180830381600087803b1580156103ec57600080fd5b505af1158015610400573d6000803e3d6000fd5b505050506000826001600160a01b03166318160ddd6040518163ffffffff1660e01b8152600401602060405180830381865afa158015610444573d6000803e3d6000fd5b505050506040513d601f19601f820116820180604052508101906104689190611176565b90506000806104978360405160200161048391815260200190565b604051602081830303815290604052610b05565b90925090506104b160008a6104ac84866111a5565b610d25565b6104c16000856040015183610d25565b3360009081526020819052604090206002015460ff1615156001146105215760405162461bcd60e51b81526020600482015260166024820152752ab730baba3437b934bd32b21027b832b930ba34b7b760511b6044820152606401610399565b6001600160a01b03891660008181526020818152604091829020600201805460ff1916905581518581529081018490528a92917f6f3909b7a53c87de0fbb65758a177c9d1137e29b1555684084e2e4161b064b2b910160405180910390a3505050505050505050565b60408051608080820183526000808352602080840182905283850182905260609384018290526001600160a01b03958616825281815290849020845192830185528054909516825260018501549082015260029093015460ff808216151593850193909352610100900490911615159082015290565b6000806000838060200190518101906106199190611176565b9050600061062561029f565b50915050606481602001518361063b91906111be565b61064591906111d5565b816020015161065491906111f7565b9350612710816060015161ffff168561066d91906111be565b61067791906111d5565b92505050915091565b60008061068c8561058a565b516001600160a01b0316146106f7573360009081526020819052604090206002015460ff16156106f75760405162461bcd60e51b81526020600482015260166024820152752ab730baba3437b934bd32b21027b832b930ba34b7b760511b6044820152606401610399565b60008061070261029f565b50915091506000826001600160a01b03166318160ddd6040518163ffffffff1660e01b8152600401602060405180830381865afa158015610747573d6000803e3d6000fd5b505050506040513d601f19601f8201168201806040525081019061076b9190611176565b905060008061079a8360405160200161078691815260200190565b604051602081830303815290604052610600565b90925090506107a981836111f7565b3410156107f85760405162461bcd60e51b815260206004820152601d60248201527f4167656e6379496d703a20696e73756666696369656e742066756e64730000006044820152606401610399565b6108086000856040015183610d25565b61081281836111f7565b341115610834576108346000338361082a86346111a5565b6104ac91906111a5565b60405163b510391f60e01b81526000906001600160a01b0387169063b510391f90610867908d908d908d9060040161120a565b6020604051808303816000875af1158015610886573d6000803e3d6000fd5b505050506040513d601f19601f820116820180604052508101906108aa9190611176565b905060006108b78b61058a565b516001600160a01b0316036109d9576040805160808101825260008082526020820181905291810182905260608101919091523381600001906001600160a01b031690816001600160a01b0316815250506000816060019015159081151581525050600181604001901515908115158152505081816020018181525050806000808d6001600160a01b03166001600160a01b0316815260200190815260200160002060008201518160000160006101000a8154816001600160a01b0302191690836001600160a01b031602179055506020820151816001015560408201518160020160006101000a81548160ff02191690831515021790555060608201518160020160016101000a81548160ff02191690831515021790555090505050610a00565b6001600160a01b038a166000908152602081905260409020600201805460ff191660011790555b856001600160a01b03166318160ddd6040518163ffffffff1660e01b8152600401602060405180830381865afa158015610a3e573d6000803e3d6000fd5b505050506040513d601f19601f82011682018060405250810190610a629190611176565b610a6d8560016111f7565b14610ab25760405162461bcd60e51b81526020600482015260156024820152744167656e6379496d703a205265656e7472616e637960581b6044820152606401610399565b604080518481526020810184905282916001600160a01b038d16917f53c6313aa0cdb420b390a846db25405b96983737e602bba548f9ade0e4feaec9910160405180910390a39998505050505050505050565b600080600083806020019051810190610b1e9190611176565b90506000610b2a61029f565b509150506064816020015183610b4091906111be565b610b4a91906111d5565b8160200151610b5991906111f7565b9350612710816080015161ffff168561066d91906111be565b606081604051602001610b8791815260200190565b6040516020818303038152906040529050919050565b6040516331a9108f60e11b815260048101829052600090849082906001600160a01b03831690636352211e90602401602060405180830381865afa158015610be9573d6000803e3d6000fd5b505050506040513d601f19601f82011682018060405250810190610c0d919061122f565b9050806001600160a01b0316856001600160a01b03161480610c9c575060405163e985e9c560e01b81526001600160a01b038281166004830152868116602483015283169063e985e9c590604401602060405180830381865afa158015610c78573d6000803e3d6000fd5b505050506040513d601f19601f82011682018060405250810190610c9c919061124c565b80610d1b575060405163020604bf60e21b8152600481018590526001600160a01b03808716919084169063081812fc90602401602060405180830381865afa158015610cec573d6000803e3d6000fd5b505050506040513d601f19601f82011682018060405250810190610d10919061122f565b6001600160a01b0316145b9695505050505050565b6001600160a01b038316610d4b57610d466001600160a01b03831682610dc4565b505050565b60405163a9059cbb60e01b81526001600160a01b0383811660048301526024820183905284169063a9059cbb906044016020604051808303816000875af1158015610d9a573d6000803e3d6000fd5b505050506040513d601f19601f82011682018060405250810190610dbe919061124c565b50505050565b80471015610de75760405163cd78605960e01b8152306004820152602401610399565b6000826001600160a01b03168260405160006040518083038185875af1925050503d8060008114610e34576040519150601f19603f3d011682016040523d82523d6000602084013e610e39565b606091505b5050905080610d4657604051630a12f52160e11b815260040160405180910390fd5b6000815180845260005b81811015610e8157602081850181015186830182015201610e65565b506000602082860101526020601f19601f83011685010191505092915050565b600060018060a01b0380861683528085511660208401526020850151604084015280604086015116606084015250606084015161ffff80821660808501528060808701511660a0850152505060e060c0830152610f0160e0830184610e5b565b95945050505050565b6001600160a01b0381168114610f1f57600080fd5b50565b60008083601f840112610f3457600080fd5b50813567ffffffffffffffff811115610f4c57600080fd5b602083019150836020828501011115610f6457600080fd5b9250929050565b60008060008060608587031215610f8157600080fd5b8435610f8c81610f0a565b935060208501359250604085013567ffffffffffffffff811115610faf57600080fd5b610fbb87828801610f22565b95989497509550505050565b600060208284031215610fd957600080fd5b8135610fe481610f0a565b9392505050565b634e487b7160e01b600052604160045260246000fd5b60006020828403121561101357600080fd5b813567ffffffffffffffff8082111561102b57600080fd5b818401915084601f83011261103f57600080fd5b81358181111561105157611051610feb565b604051601f8201601f19908116603f0116810190838211818310171561107957611079610feb565b8160405282815287602084870101111561109257600080fd5b826020860160208301376000928101602001929092525095945050505050565b6000806000604084860312156110c757600080fd5b83356110d281610f0a565b9250602084013567ffffffffffffffff8111156110ee57600080fd5b6110fa86828701610f22565b9497909650939450505050565b60006020828403121561111957600080fd5b5035919050565b602081526000610fe46020830184610e5b565b81835281816020850137506000828201602090810191909152601f909101601f19169091010190565b838152604060208201526000610f01604083018486611133565b60006020828403121561118857600080fd5b5051919050565b634e487b7160e01b600052601160045260246000fd5b818103818111156111b8576111b861118f565b92915050565b80820281158282048414176111b8576111b861118f565b6000826111f257634e487b7160e01b600052601260045260246000fd5b500490565b808201808211156111b8576111b861118f565b6001600160a01b0384168152604060208201819052600090610f019083018486611133565b60006020828403121561124157600080fd5b8151610fe481610f0a565b60006020828403121561125e57600080fd5b81518015158114610fe457600080fdfea2646970667358221220f06ed8727c2ad150b9bea93908319813b90697588373f2074a61ec86934a9bb164736f6c63430008150033","opcodes":"PUSH1 0x80 PUSH1 0x40 MSTORE CALLVALUE DUP1 ISZERO PUSH2 0x10 JUMPI PUSH1 0x0 DUP1 REVERT JUMPDEST POP PUSH2 0x12A4 DUP1 PUSH2 0x20 PUSH1 0x0 CODECOPY PUSH1 0x0 RETURN INVALID PUSH1 0x80 PUSH1 0x40 MSTORE PUSH1 0x4 CALLDATASIZE LT PUSH2 0x95 JUMPI PUSH1 0x0 CALLDATALOAD PUSH1 0xE0 SHR DUP1 PUSH4 0x8BA6CD03 GT PUSH2 0x59 JUMPI DUP1 PUSH4 0x8BA6CD03 EQ PUSH2 0x1CC JUMPI DUP1 PUSH4 0x8E1F1447 EQ PUSH2 0x1ED JUMPI DUP1 PUSH4 0xD1BD5128 EQ PUSH2 0x20D JUMPI DUP1 PUSH4 0xDEB21FA2 EQ PUSH2 0x24A JUMPI DUP1 PUSH4 0xFCCBD8EF EQ PUSH2 0x277 JUMPI PUSH1 0x0 DUP1 REVERT JUMPDEST DUP1 PUSH4 0x453453A EQ PUSH2 0xA1 JUMPI DUP1 PUSH4 0x7DA0603 EQ PUSH2 0xF7 JUMPI DUP1 PUSH4 0x3C6E2F22 EQ PUSH2 0x124 JUMPI DUP1 PUSH4 0x432B9FDD EQ PUSH2 0x137 JUMPI DUP1 PUSH4 0x46992736 EQ PUSH2 0x197 JUMPI PUSH1 0x0 DUP1 REVERT JUMPDEST CALLDATASIZE PUSH2 0x9C JUMPI STOP JUMPDEST PUSH1 0x0 DUP1 REVERT JUMPDEST CALLVALUE DUP1 ISZERO PUSH2 0xAD JUMPI PUSH1 0x0 DUP1 REVERT JUMPDEST POP PUSH1 0x2 DUP1 SLOAD PUSH1 0x1 PUSH1 0x1 PUSH1 0xA0 SHL SUB NOT AND SWAP1 SSTORE PUSH8 0x16345785D8A0000 PUSH1 0x3 SSTORE PUSH1 0x4 DUP1 SLOAD PUSH1 0x1 PUSH1 0x1 PUSH1 0xC0 SHL SUB NOT AND PUSH23 0xA000A5B38DA6A701C568545DCFCB03FCB875F56BEDDC4 OR SWAP1 SSTORE STOP JUMPDEST STOP JUMPDEST CALLVALUE DUP1 ISZERO PUSH2 0x103 JUMPI PUSH1 0x0 DUP1 REVERT JUMPDEST POP PUSH2 0x10C PUSH2 0x29F JUMP JUMPDEST PUSH1 0x40 MLOAD PUSH2 0x11B SWAP4 SWAP3 SWAP2 SWAP1 PUSH2 0xEA1 JUMP JUMPDEST PUSH1 0x40 MLOAD DUP1 SWAP2 SUB SWAP1 RETURN JUMPDEST PUSH2 0xF5 PUSH2 0x132 CALLDATASIZE PUSH1 0x4 PUSH2 0xF6B JUMP JUMPDEST PUSH2 0x340 JUMP JUMPDEST CALLVALUE DUP1 ISZERO PUSH2 0x143 JUMPI PUSH1 0x0 DUP1 REVERT JUMPDEST POP PUSH2 0x157 PUSH2 0x152 CALLDATASIZE PUSH1 0x4 PUSH2 0xFC7 JUMP JUMPDEST PUSH2 0x58A JUMP JUMPDEST PUSH1 0x40 MLOAD PUSH2 0x11B SWAP2 SWAP1 DUP2 MLOAD PUSH1 0x1 PUSH1 0x1 PUSH1 0xA0 SHL SUB AND DUP2 MSTORE PUSH1 0x20 DUP1 DUP4 ADD MLOAD SWAP1 DUP3 ADD MSTORE PUSH1 0x40 DUP1 DUP4 ADD MLOAD ISZERO ISZERO SWAP1 DUP3 ADD MSTORE PUSH1 0x60 SWAP2 DUP3 ADD MLOAD ISZERO ISZERO SWAP2 DUP2 ADD SWAP2 SWAP1 SWAP2 MSTORE PUSH1 0x80 ADD SWAP1 JUMP JUMPDEST CALLVALUE DUP1 ISZERO PUSH2 0x1A3 JUMPI PUSH1 0x0 DUP1 REVERT JUMPDEST POP PUSH2 0x1B7 PUSH2 0x1B2 CALLDATASIZE PUSH1 0x4 PUSH2 0x1001 JUMP JUMPDEST PUSH2 0x600 JUMP JUMPDEST PUSH1 0x40 DUP1 MLOAD SWAP3 DUP4 MSTORE PUSH1 0x20 DUP4 ADD SWAP2 SWAP1 SWAP2 MSTORE ADD PUSH2 0x11B JUMP JUMPDEST PUSH2 0x1DF PUSH2 0x1DA CALLDATASIZE PUSH1 0x4 PUSH2 0x10B2 JUMP JUMPDEST PUSH2 0x680 JUMP JUMPDEST PUSH1 0x40 MLOAD SWAP1 DUP2 MSTORE PUSH1 0x20 ADD PUSH2 0x11B JUMP JUMPDEST CALLVALUE DUP1 ISZERO PUSH2 0x1F9 JUMPI PUSH1 0x0 DUP1 REVERT JUMPDEST POP PUSH2 0x1B7 PUSH2 0x208 CALLDATASIZE PUSH1 0x4 PUSH2 0x1001 JUMP JUMPDEST PUSH2 0xB05 JUMP JUMPDEST CALLVALUE DUP1 ISZERO PUSH2 0x219 JUMPI PUSH1 0x0 DUP1 REVERT JUMPDEST POP PUSH2 0xF5 PUSH2 0x228 CALLDATASIZE PUSH1 0x4 PUSH2 0xFC7 JUMP JUMPDEST PUSH1 0x1 DUP1 SLOAD PUSH1 0x1 PUSH1 0x1 PUSH1 0xA0 SHL SUB NOT AND PUSH1 0x1 PUSH1 0x1 PUSH1 0xA0 SHL SUB SWAP3 SWAP1 SWAP3 AND SWAP2 SWAP1 SWAP2 OR SWAP1 SSTORE JUMP JUMPDEST CALLVALUE DUP1 ISZERO PUSH2 0x256 JUMPI PUSH1 0x0 DUP1 REVERT JUMPDEST POP PUSH2 0x26A PUSH2 0x265 CALLDATASIZE PUSH1 0x4 PUSH2 0x1107 JUMP JUMPDEST PUSH2 0xB72 JUMP JUMPDEST PUSH1 0x40 MLOAD PUSH2 0x11B SWAP2 SWAP1 PUSH2 0x1120 JUMP JUMPDEST CALLVALUE DUP1 ISZERO PUSH2 0x283 JUMPI PUSH1 0x0 DUP1 REVERT JUMPDEST POP PUSH1 0x1 SLOAD PUSH1 0x40 MLOAD PUSH1 0x1 PUSH1 0x1 PUSH1 0xA0 SHL SUB SWAP1 SWAP2 AND DUP2 MSTORE PUSH1 0x20 ADD PUSH2 0x11B JUMP JUMPDEST PUSH1 0x40 DUP1 MLOAD PUSH1 0xA0 DUP2 ADD DUP3 MSTORE PUSH1 0x0 DUP1 DUP3 MSTORE PUSH1 0x20 DUP3 ADD DUP2 SWAP1 MSTORE SWAP2 DUP2 ADD DUP3 SWAP1 MSTORE PUSH1 0x60 DUP2 ADD DUP3 SWAP1 MSTORE PUSH1 0x80 DUP2 ADD DUP3 SWAP1 MSTORE PUSH1 0x40 DUP1 MLOAD PUSH1 0xA0 DUP2 ADD DUP3 MSTORE PUSH1 0x0 DUP2 MSTORE PUSH8 0x16345785D8A0000 PUSH1 0x20 DUP3 ADD MSTORE PUSH20 0x5B38DA6A701C568545DCFCB03FCB875F56BEDDC4 SWAP2 DUP2 ADD SWAP2 SWAP1 SWAP2 MSTORE PUSH1 0xA PUSH1 0x60 DUP3 DUP2 ADD DUP3 SWAP1 MSTORE PUSH1 0x80 DUP4 ADD SWAP2 SWAP1 SWAP2 MSTORE SWAP1 PUSH2 0x326 PUSH1 0x1 SLOAD PUSH1 0x1 PUSH1 0x1 PUSH1 0xA0 SHL SUB AND SWAP1 JUMP JUMPDEST PUSH1 0x40 DUP1 MLOAD PUSH1 0x20 DUP2 ADD SWAP1 SWAP2 MSTORE PUSH1 0x0 DUP2 MSTORE SWAP1 SWAP6 SWAP2 SWAP5 POP SWAP3 POP SWAP1 POP JUMP JUMPDEST PUSH1 0x0 DUP1 PUSH2 0x34B PUSH2 0x29F JUMP JUMPDEST POP SWAP2 POP SWAP2 POP PUSH2 0x35B DUP3 CALLER DUP8 PUSH2 0xB9D JUMP JUMPDEST PUSH2 0x3A2 JUMPI PUSH1 0x40 MLOAD PUSH3 0x461BCD PUSH1 0xE5 SHL DUP2 MSTORE PUSH1 0x20 PUSH1 0x4 DUP3 ADD MSTORE PUSH1 0x13 PUSH1 0x24 DUP3 ADD MSTORE PUSH19 0x263726B7B23AB6329D103737BA1037BBB732B9 PUSH1 0x69 SHL PUSH1 0x44 DUP3 ADD MSTORE PUSH1 0x64 ADD JUMPDEST PUSH1 0x40 MLOAD DUP1 SWAP2 SUB SWAP1 REVERT JUMPDEST PUSH1 0x40 MLOAD PUSH4 0xFE9D9303 PUSH1 0xE0 SHL DUP2 MSTORE PUSH1 0x1 PUSH1 0x1 PUSH1 0xA0 SHL SUB DUP4 AND SWAP1 PUSH4 0xFE9D9303 SWAP1 PUSH2 0x3D2 SWAP1 DUP9 SWAP1 DUP9 SWAP1 DUP9 SWAP1 PUSH1 0x4 ADD PUSH2 0x115C JUMP JUMPDEST PUSH1 0x0 PUSH1 0x40 MLOAD DUP1 DUP4 SUB DUP2 PUSH1 0x0 DUP8 DUP1 EXTCODESIZE ISZERO DUP1 ISZERO PUSH2 0x3EC JUMPI PUSH1 0x0 DUP1 REVERT JUMPDEST POP GAS CALL ISZERO DUP1 ISZERO PUSH2 0x400 JUMPI RETURNDATASIZE PUSH1 0x0 DUP1 RETURNDATACOPY RETURNDATASIZE PUSH1 0x0 REVERT JUMPDEST POP POP POP POP PUSH1 0x0 DUP3 PUSH1 0x1 PUSH1 0x1 PUSH1 0xA0 SHL SUB AND PUSH4 0x18160DDD PUSH1 0x40 MLOAD DUP2 PUSH4 0xFFFFFFFF AND PUSH1 0xE0 SHL DUP2 MSTORE PUSH1 0x4 ADD PUSH1 0x20 PUSH1 0x40 MLOAD DUP1 DUP4 SUB DUP2 DUP7 GAS STATICCALL ISZERO DUP1 ISZERO PUSH2 0x444 JUMPI RETURNDATASIZE PUSH1 0x0 DUP1 RETURNDATACOPY RETURNDATASIZE PUSH1 0x0 REVERT JUMPDEST POP POP POP POP PUSH1 0x40 MLOAD RETURNDATASIZE PUSH1 0x1F NOT PUSH1 0x1F DUP3 ADD AND DUP3 ADD DUP1 PUSH1 0x40 MSTORE POP DUP2 ADD SWAP1 PUSH2 0x468 SWAP2 SWAP1 PUSH2 0x1176 JUMP JUMPDEST SWAP1 POP PUSH1 0x0 DUP1 PUSH2 0x497 DUP4 PUSH1 0x40 MLOAD PUSH1 0x20 ADD PUSH2 0x483 SWAP2 DUP2 MSTORE PUSH1 0x20 ADD SWAP1 JUMP JUMPDEST PUSH1 0x40 MLOAD PUSH1 0x20 DUP2 DUP4 SUB SUB DUP2 MSTORE SWAP1 PUSH1 0x40 MSTORE PUSH2 0xB05 JUMP JUMPDEST SWAP1 SWAP3 POP SWAP1 POP PUSH2 0x4B1 PUSH1 0x0 DUP11 PUSH2 0x4AC DUP5 DUP7 PUSH2 0x11A5 JUMP JUMPDEST PUSH2 0xD25 JUMP JUMPDEST PUSH2 0x4C1 PUSH1 0x0 DUP6 PUSH1 0x40 ADD MLOAD DUP4 PUSH2 0xD25 JUMP JUMPDEST CALLER PUSH1 0x0 SWAP1 DUP2 MSTORE PUSH1 0x20 DUP2 SWAP1 MSTORE PUSH1 0x40 SWAP1 KECCAK256 PUSH1 0x2 ADD SLOAD PUSH1 0xFF AND ISZERO ISZERO PUSH1 0x1 EQ PUSH2 0x521 JUMPI PUSH1 0x40 MLOAD PUSH3 0x461BCD PUSH1 0xE5 SHL DUP2 MSTORE PUSH1 0x20 PUSH1 0x4 DUP3 ADD MSTORE PUSH1 0x16 PUSH1 0x24 DUP3 ADD MSTORE PUSH22 0x2AB730BABA3437B934BD32B21027B832B930BA34B7B7 PUSH1 0x51 SHL PUSH1 0x44 DUP3 ADD MSTORE PUSH1 0x64 ADD PUSH2 0x399 JUMP JUMPDEST PUSH1 0x1 PUSH1 0x1 PUSH1 0xA0 SHL SUB DUP10 AND PUSH1 0x0 DUP2 DUP2 MSTORE PUSH1 0x20 DUP2 DUP2 MSTORE PUSH1 0x40 SWAP2 DUP3 SWAP1 KECCAK256 PUSH1 0x2 ADD DUP1 SLOAD PUSH1 0xFF NOT AND SWAP1 SSTORE DUP2 MLOAD DUP6 DUP2 MSTORE SWAP1 DUP2 ADD DUP5 SWAP1 MSTORE DUP11 SWAP3 SWAP2 PUSH32 0x6F3909B7A53C87DE0FBB65758A177C9D1137E29B1555684084E2E4161B064B2B SWAP2 ADD PUSH1 0x40 MLOAD DUP1 SWAP2 SUB SWAP1 LOG3 POP POP POP POP POP POP POP POP POP JUMP JUMPDEST PUSH1 0x40 DUP1 MLOAD PUSH1 0x80 DUP1 DUP3 ADD DUP4 MSTORE PUSH1 0x0 DUP1 DUP4 MSTORE PUSH1 0x20 DUP1 DUP5 ADD DUP3 SWAP1 MSTORE DUP4 DUP6 ADD DUP3 SWAP1 MSTORE PUSH1 0x60 SWAP4 DUP5 ADD DUP3 SWAP1 MSTORE PUSH1 0x1 PUSH1 0x1 PUSH1 0xA0 SHL SUB SWAP6 DUP7 AND DUP3 MSTORE DUP2 DUP2 MSTORE SWAP1 DUP5 SWAP1 KECCAK256 DUP5 MLOAD SWAP3 DUP4 ADD DUP6 MSTORE DUP1 SLOAD SWAP1 SWAP6 AND DUP3 MSTORE PUSH1 0x1 DUP6 ADD SLOAD SWAP1 DUP3 ADD MSTORE PUSH1 0x2 SWAP1 SWAP4 ADD SLOAD PUSH1 0xFF DUP1 DUP3 AND ISZERO ISZERO SWAP4 DUP6 ADD SWAP4 SWAP1 SWAP4 MSTORE PUSH2 0x100 SWAP1 DIV SWAP1 SWAP2 AND ISZERO ISZERO SWAP1 DUP3 ADD MSTORE SWAP1 JUMP JUMPDEST PUSH1 0x0 DUP1 PUSH1 0x0 DUP4 DUP1 PUSH1 0x20 ADD SWAP1 MLOAD DUP2 ADD SWAP1 PUSH2 0x619 SWAP2 SWAP1 PUSH2 0x1176 JUMP JUMPDEST SWAP1 POP PUSH1 0x0 PUSH2 0x625 PUSH2 0x29F JUMP JUMPDEST POP SWAP2 POP POP PUSH1 0x64 DUP2 PUSH1 0x20 ADD MLOAD DUP4 PUSH2 0x63B SWAP2 SWAP1 PUSH2 0x11BE JUMP JUMPDEST PUSH2 0x645 SWAP2 SWAP1 PUSH2 0x11D5 JUMP JUMPDEST DUP2 PUSH1 0x20 ADD MLOAD PUSH2 0x654 SWAP2 SWAP1 PUSH2 0x11F7 JUMP JUMPDEST SWAP4 POP PUSH2 0x2710 DUP2 PUSH1 0x60 ADD MLOAD PUSH2 0xFFFF AND DUP6 PUSH2 0x66D SWAP2 SWAP1 PUSH2 0x11BE JUMP JUMPDEST PUSH2 0x677 SWAP2 SWAP1 PUSH2 0x11D5 JUMP JUMPDEST SWAP3 POP POP POP SWAP2 POP SWAP2 JUMP JUMPDEST PUSH1 0x0 DUP1 PUSH2 0x68C DUP6 PUSH2 0x58A JUMP JUMPDEST MLOAD PUSH1 0x1 PUSH1 0x1 PUSH1 0xA0 SHL SUB AND EQ PUSH2 0x6F7 JUMPI CALLER PUSH1 0x0 SWAP1 DUP2 MSTORE PUSH1 0x20 DUP2 SWAP1 MSTORE PUSH1 0x40 SWAP1 KECCAK256 PUSH1 0x2 ADD SLOAD PUSH1 0xFF AND ISZERO PUSH2 0x6F7 JUMPI PUSH1 0x40 MLOAD PUSH3 0x461BCD PUSH1 0xE5 SHL DUP2 MSTORE PUSH1 0x20 PUSH1 0x4 DUP3 ADD MSTORE PUSH1 0x16 PUSH1 0x24 DUP3 ADD MSTORE PUSH22 0x2AB730BABA3437B934BD32B21027B832B930BA34B7B7 PUSH1 0x51 SHL PUSH1 0x44 DUP3 ADD MSTORE PUSH1 0x64 ADD PUSH2 0x399 JUMP JUMPDEST PUSH1 0x0 DUP1 PUSH2 0x702 PUSH2 0x29F JUMP JUMPDEST POP SWAP2 POP SWAP2 POP PUSH1 0x0 DUP3 PUSH1 0x1 PUSH1 0x1 PUSH1 0xA0 SHL SUB AND PUSH4 0x18160DDD PUSH1 0x40 MLOAD DUP2 PUSH4 0xFFFFFFFF AND PUSH1 0xE0 SHL DUP2 MSTORE PUSH1 0x4 ADD PUSH1 0x20 PUSH1 0x40 MLOAD DUP1 DUP4 SUB DUP2 DUP7 GAS STATICCALL ISZERO DUP1 ISZERO PUSH2 0x747 JUMPI RETURNDATASIZE PUSH1 0x0 DUP1 RETURNDATACOPY RETURNDATASIZE PUSH1 0x0 REVERT JUMPDEST POP POP POP POP PUSH1 0x40 MLOAD RETURNDATASIZE PUSH1 0x1F NOT PUSH1 0x1F DUP3 ADD AND DUP3 ADD DUP1 PUSH1 0x40 MSTORE POP DUP2 ADD SWAP1 PUSH2 0x76B SWAP2 SWAP1 PUSH2 0x1176 JUMP JUMPDEST SWAP1 POP PUSH1 0x0 DUP1 PUSH2 0x79A DUP4 PUSH1 0x40 MLOAD PUSH1 0x20 ADD PUSH2 0x786 SWAP2 DUP2 MSTORE PUSH1 0x20 ADD SWAP1 JUMP JUMPDEST PUSH1 0x40 MLOAD PUSH1 0x20 DUP2 DUP4 SUB SUB DUP2 MSTORE SWAP1 PUSH1 0x40 MSTORE PUSH2 0x600 JUMP JUMPDEST SWAP1 SWAP3 POP SWAP1 POP PUSH2 0x7A9 DUP2 DUP4 PUSH2 0x11F7 JUMP JUMPDEST CALLVALUE LT ISZERO PUSH2 0x7F8 JUMPI PUSH1 0x40 MLOAD PUSH3 0x461BCD PUSH1 0xE5 SHL DUP2 MSTORE PUSH1 0x20 PUSH1 0x4 DUP3 ADD MSTORE PUSH1 0x1D PUSH1 0x24 DUP3 ADD MSTORE PUSH32 0x4167656E6379496D703A20696E73756666696369656E742066756E6473000000 PUSH1 0x44 DUP3 ADD MSTORE PUSH1 0x64 ADD PUSH2 0x399 JUMP JUMPDEST PUSH2 0x808 PUSH1 0x0 DUP6 PUSH1 0x40 ADD MLOAD DUP4 PUSH2 0xD25 JUMP JUMPDEST PUSH2 0x812 DUP2 DUP4 PUSH2 0x11F7 JUMP JUMPDEST CALLVALUE GT ISZERO PUSH2 0x834 JUMPI PUSH2 0x834 PUSH1 0x0 CALLER DUP4 PUSH2 0x82A DUP7 CALLVALUE PUSH2 0x11A5 JUMP JUMPDEST PUSH2 0x4AC SWAP2 SWAP1 PUSH2 0x11A5 JUMP JUMPDEST PUSH1 0x40 MLOAD PUSH4 0xB510391F PUSH1 0xE0 SHL DUP2 MSTORE PUSH1 0x0 SWAP1 PUSH1 0x1 PUSH1 0x1 PUSH1 0xA0 SHL SUB DUP8 AND SWAP1 PUSH4 0xB510391F SWAP1 PUSH2 0x867 SWAP1 DUP14 SWAP1 DUP14 SWAP1 DUP14 SWAP1 PUSH1 0x4 ADD PUSH2 0x120A JUMP JUMPDEST PUSH1 0x20 PUSH1 0x40 MLOAD DUP1 DUP4 SUB DUP2 PUSH1 0x0 DUP8 GAS CALL ISZERO DUP1 ISZERO PUSH2 0x886 JUMPI RETURNDATASIZE PUSH1 0x0 DUP1 RETURNDATACOPY RETURNDATASIZE PUSH1 0x0 REVERT JUMPDEST POP POP POP POP PUSH1 0x40 MLOAD RETURNDATASIZE PUSH1 0x1F NOT PUSH1 0x1F DUP3 ADD AND DUP3 ADD DUP1 PUSH1 0x40 MSTORE POP DUP2 ADD SWAP1 PUSH2 0x8AA SWAP2 SWAP1 PUSH2 0x1176 JUMP JUMPDEST SWAP1 POP PUSH1 0x0 PUSH2 0x8B7 DUP12 PUSH2 0x58A JUMP JUMPDEST MLOAD PUSH1 0x1 PUSH1 0x1 PUSH1 0xA0 SHL SUB AND SUB PUSH2 0x9D9 JUMPI PUSH1 0x40 DUP1 MLOAD PUSH1 0x80 DUP2 ADD DUP3 MSTORE PUSH1 0x0 DUP1 DUP3 MSTORE PUSH1 0x20 DUP3 ADD DUP2 SWAP1 MSTORE SWAP2 DUP2 ADD DUP3 SWAP1 MSTORE PUSH1 0x60 DUP2 ADD SWAP2 SWAP1 SWAP2 MSTORE CALLER DUP2 PUSH1 0x0 ADD SWAP1 PUSH1 0x1 PUSH1 0x1 PUSH1 0xA0 SHL SUB AND SWAP1 DUP2 PUSH1 0x1 PUSH1 0x1 PUSH1 0xA0 SHL SUB AND DUP2 MSTORE POP POP PUSH1 0x0 DUP2 PUSH1 0x60 ADD SWAP1 ISZERO ISZERO SWAP1 DUP2 ISZERO ISZERO DUP2 MSTORE POP POP PUSH1 0x1 DUP2 PUSH1 0x40 ADD SWAP1 ISZERO ISZERO SWAP1 DUP2 ISZERO ISZERO DUP2 MSTORE POP POP DUP2 DUP2 PUSH1 0x20 ADD DUP2 DUP2 MSTORE POP POP DUP1 PUSH1 0x0 DUP1 DUP14 PUSH1 0x1 PUSH1 0x1 PUSH1 0xA0 SHL SUB AND PUSH1 0x1 PUSH1 0x1 PUSH1 0xA0 SHL SUB AND DUP2 MSTORE PUSH1 0x20 ADD SWAP1 DUP2 MSTORE PUSH1 0x20 ADD PUSH1 0x0 KECCAK256 PUSH1 0x0 DUP3 ADD MLOAD DUP2 PUSH1 0x0 ADD PUSH1 0x0 PUSH2 0x100 EXP DUP2 SLOAD DUP2 PUSH1 0x1 PUSH1 0x1 PUSH1 0xA0 SHL SUB MUL NOT AND SWAP1 DUP4 PUSH1 0x1 PUSH1 0x1 PUSH1 0xA0 SHL SUB AND MUL OR SWAP1 SSTORE POP PUSH1 0x20 DUP3 ADD MLOAD DUP2 PUSH1 0x1 ADD SSTORE PUSH1 0x40 DUP3 ADD MLOAD DUP2 PUSH1 0x2 ADD PUSH1 0x0 PUSH2 0x100 EXP DUP2 SLOAD DUP2 PUSH1 0xFF MUL NOT AND SWAP1 DUP4 ISZERO ISZERO MUL OR SWAP1 SSTORE POP PUSH1 0x60 DUP3 ADD MLOAD DUP2 PUSH1 0x2 ADD PUSH1 0x1 PUSH2 0x100 EXP DUP2 SLOAD DUP2 PUSH1 0xFF MUL NOT AND SWAP1 DUP4 ISZERO ISZERO MUL OR SWAP1 SSTORE POP SWAP1 POP POP POP PUSH2 0xA00 JUMP JUMPDEST PUSH1 0x1 PUSH1 0x1 PUSH1 0xA0 SHL SUB DUP11 AND PUSH1 0x0 SWAP1 DUP2 MSTORE PUSH1 0x20 DUP2 SWAP1 MSTORE PUSH1 0x40 SWAP1 KECCAK256 PUSH1 0x2 ADD DUP1 SLOAD PUSH1 0xFF NOT AND PUSH1 0x1 OR SWAP1 SSTORE JUMPDEST DUP6 PUSH1 0x1 PUSH1 0x1 PUSH1 0xA0 SHL SUB AND PUSH4 0x18160DDD PUSH1 0x40 MLOAD DUP2 PUSH4 0xFFFFFFFF AND PUSH1 0xE0 SHL DUP2 MSTORE PUSH1 0x4 ADD PUSH1 0x20 PUSH1 0x40 MLOAD DUP1 DUP4 SUB DUP2 DUP7 GAS STATICCALL ISZERO DUP1 ISZERO PUSH2 0xA3E JUMPI RETURNDATASIZE PUSH1 0x0 DUP1 RETURNDATACOPY RETURNDATASIZE PUSH1 0x0 REVERT JUMPDEST POP POP POP POP PUSH1 0x40 MLOAD RETURNDATASIZE PUSH1 0x1F NOT PUSH1 0x1F DUP3 ADD AND DUP3 ADD DUP1 PUSH1 0x40 MSTORE POP DUP2 ADD SWAP1 PUSH2 0xA62 SWAP2 SWAP1 PUSH2 0x1176 JUMP JUMPDEST PUSH2 0xA6D DUP6 PUSH1 0x1 PUSH2 0x11F7 JUMP JUMPDEST EQ PUSH2 0xAB2 JUMPI PUSH1 0x40 MLOAD PUSH3 0x461BCD PUSH1 0xE5 SHL DUP2 MSTORE PUSH1 0x20 PUSH1 0x4 DUP3 ADD MSTORE PUSH1 0x15 PUSH1 0x24 DUP3 ADD MSTORE PUSH21 0x4167656E6379496D703A205265656E7472616E6379 PUSH1 0x58 SHL PUSH1 0x44 DUP3 ADD MSTORE PUSH1 0x64 ADD PUSH2 0x399 JUMP JUMPDEST PUSH1 0x40 DUP1 MLOAD DUP5 DUP2 MSTORE PUSH1 0x20 DUP2 ADD DUP5 SWAP1 MSTORE DUP3 SWAP2 PUSH1 0x1 PUSH1 0x1 PUSH1 0xA0 SHL SUB DUP14 AND SWAP2 PUSH32 0x53C6313AA0CDB420B390A846DB25405B96983737E602BBA548F9ADE0E4FEAEC9 SWAP2 ADD PUSH1 0x40 MLOAD DUP1 SWAP2 SUB SWAP1 LOG3 SWAP10 SWAP9 POP POP POP POP POP POP POP POP POP JUMP JUMPDEST PUSH1 0x0 DUP1 PUSH1 0x0 DUP4 DUP1 PUSH1 0x20 ADD SWAP1 MLOAD DUP2 ADD SWAP1 PUSH2 0xB1E SWAP2 SWAP1 PUSH2 0x1176 JUMP JUMPDEST SWAP1 POP PUSH1 0x0 PUSH2 0xB2A PUSH2 0x29F JUMP JUMPDEST POP SWAP2 POP POP PUSH1 0x64 DUP2 PUSH1 0x20 ADD MLOAD DUP4 PUSH2 0xB40 SWAP2 SWAP1 PUSH2 0x11BE JUMP JUMPDEST PUSH2 0xB4A SWAP2 SWAP1 PUSH2 0x11D5 JUMP JUMPDEST DUP2 PUSH1 0x20 ADD MLOAD PUSH2 0xB59 SWAP2 SWAP1 PUSH2 0x11F7 JUMP JUMPDEST SWAP4 POP PUSH2 0x2710 DUP2 PUSH1 0x80 ADD MLOAD PUSH2 0xFFFF AND DUP6 PUSH2 0x66D SWAP2 SWAP1 PUSH2 0x11BE JUMP JUMPDEST PUSH1 0x60 DUP2 PUSH1 0x40 MLOAD PUSH1 0x20 ADD PUSH2 0xB87 SWAP2 DUP2 MSTORE PUSH1 0x20 ADD SWAP1 JUMP JUMPDEST PUSH1 0x40 MLOAD PUSH1 0x20 DUP2 DUP4 SUB SUB DUP2 MSTORE SWAP1 PUSH1 0x40 MSTORE SWAP1 POP SWAP2 SWAP1 POP JUMP JUMPDEST PUSH1 0x40 MLOAD PUSH4 0x31A9108F PUSH1 0xE1 SHL DUP2 MSTORE PUSH1 0x4 DUP2 ADD DUP3 SWAP1 MSTORE PUSH1 0x0 SWAP1 DUP5 SWAP1 DUP3 SWAP1 PUSH1 0x1 PUSH1 0x1 PUSH1 0xA0 SHL SUB DUP4 AND SWAP1 PUSH4 0x6352211E SWAP1 PUSH1 0x24 ADD PUSH1 0x20 PUSH1 0x40 MLOAD DUP1 DUP4 SUB DUP2 DUP7 GAS STATICCALL ISZERO DUP1 ISZERO PUSH2 0xBE9 JUMPI RETURNDATASIZE PUSH1 0x0 DUP1 RETURNDATACOPY RETURNDATASIZE PUSH1 0x0 REVERT JUMPDEST POP POP POP POP PUSH1 0x40 MLOAD RETURNDATASIZE PUSH1 0x1F NOT PUSH1 0x1F DUP3 ADD AND DUP3 ADD DUP1 PUSH1 0x40 MSTORE POP DUP2 ADD SWAP1 PUSH2 0xC0D SWAP2 SWAP1 PUSH2 0x122F JUMP JUMPDEST SWAP1 POP DUP1 PUSH1 0x1 PUSH1 0x1 PUSH1 0xA0 SHL SUB AND DUP6 PUSH1 0x1 PUSH1 0x1 PUSH1 0xA0 SHL SUB AND EQ DUP1 PUSH2 0xC9C JUMPI POP PUSH1 0x40 MLOAD PUSH4 0xE985E9C5 PUSH1 0xE0 SHL DUP2 MSTORE PUSH1 0x1 PUSH1 0x1 PUSH1 0xA0 SHL SUB DUP3 DUP2 AND PUSH1 0x4 DUP4 ADD MSTORE DUP7 DUP2 AND PUSH1 0x24 DUP4 ADD MSTORE DUP4 AND SWAP1 PUSH4 0xE985E9C5 SWAP1 PUSH1 0x44 ADD PUSH1 0x20 PUSH1 0x40 MLOAD DUP1 DUP4 SUB DUP2 DUP7 GAS STATICCALL ISZERO DUP1 ISZERO PUSH2 0xC78 JUMPI RETURNDATASIZE PUSH1 0x0 DUP1 RETURNDATACOPY RETURNDATASIZE PUSH1 0x0 REVERT JUMPDEST POP POP POP POP PUSH1 0x40 MLOAD RETURNDATASIZE PUSH1 0x1F NOT PUSH1 0x1F DUP3 ADD AND DUP3 ADD DUP1 PUSH1 0x40 MSTORE POP DUP2 ADD SWAP1 PUSH2 0xC9C SWAP2 SWAP1 PUSH2 0x124C JUMP JUMPDEST DUP1 PUSH2 0xD1B JUMPI POP PUSH1 0x40 MLOAD PUSH4 0x20604BF PUSH1 0xE2 SHL DUP2 MSTORE PUSH1 0x4 DUP2 ADD DUP6 SWAP1 MSTORE PUSH1 0x1 PUSH1 0x1 PUSH1 0xA0 SHL SUB DUP1 DUP8 AND SWAP2 SWAP1 DUP5 AND SWAP1 PUSH4 0x81812FC SWAP1 PUSH1 0x24 ADD PUSH1 0x20 PUSH1 0x40 MLOAD DUP1 DUP4 SUB DUP2 DUP7 GAS STATICCALL ISZERO DUP1 ISZERO PUSH2 0xCEC JUMPI RETURNDATASIZE PUSH1 0x0 DUP1 RETURNDATACOPY RETURNDATASIZE PUSH1 0x0 REVERT JUMPDEST POP POP POP POP PUSH1 0x40 MLOAD RETURNDATASIZE PUSH1 0x1F NOT PUSH1 0x1F DUP3 ADD AND DUP3 ADD DUP1 PUSH1 0x40 MSTORE POP DUP2 ADD SWAP1 PUSH2 0xD10 SWAP2 SWAP1 PUSH2 0x122F JUMP JUMPDEST PUSH1 0x1 PUSH1 0x1 PUSH1 0xA0 SHL SUB AND EQ JUMPDEST SWAP7 SWAP6 POP POP POP POP POP POP JUMP JUMPDEST PUSH1 0x1 PUSH1 0x1 PUSH1 0xA0 SHL SUB DUP4 AND PUSH2 0xD4B JUMPI PUSH2 0xD46 PUSH1 0x1 PUSH1 0x1 PUSH1 0xA0 SHL SUB DUP4 AND DUP3 PUSH2 0xDC4 JUMP JUMPDEST POP POP POP JUMP JUMPDEST PUSH1 0x40 MLOAD PUSH4 0xA9059CBB PUSH1 0xE0 SHL DUP2 MSTORE PUSH1 0x1 PUSH1 0x1 PUSH1 0xA0 SHL SUB DUP4 DUP2 AND PUSH1 0x4 DUP4 ADD MSTORE PUSH1 0x24 DUP3 ADD DUP4 SWAP1 MSTORE DUP5 AND SWAP1 PUSH4 0xA9059CBB SWAP1 PUSH1 0x44 ADD PUSH1 0x20 PUSH1 0x40 MLOAD DUP1 DUP4 SUB DUP2 PUSH1 0x0 DUP8 GAS CALL ISZERO DUP1 ISZERO PUSH2 0xD9A JUMPI RETURNDATASIZE PUSH1 0x0 DUP1 RETURNDATACOPY RETURNDATASIZE PUSH1 0x0 REVERT JUMPDEST POP POP POP POP PUSH1 0x40 MLOAD RETURNDATASIZE PUSH1 0x1F NOT PUSH1 0x1F DUP3 ADD AND DUP3 ADD DUP1 PUSH1 0x40 MSTORE POP DUP2 ADD SWAP1 PUSH2 0xDBE SWAP2 SWAP1 PUSH2 0x124C JUMP JUMPDEST POP POP POP POP JUMP JUMPDEST DUP1 SELFBALANCE LT ISZERO PUSH2 0xDE7 JUMPI PUSH1 0x40 MLOAD PUSH4 0xCD786059 PUSH1 0xE0 SHL DUP2 MSTORE ADDRESS PUSH1 0x4 DUP3 ADD MSTORE PUSH1 0x24 ADD PUSH2 0x399 JUMP JUMPDEST PUSH1 0x0 DUP3 PUSH1 0x1 PUSH1 0x1 PUSH1 0xA0 SHL SUB AND DUP3 PUSH1 0x40 MLOAD PUSH1 0x0 PUSH1 0x40 MLOAD DUP1 DUP4 SUB DUP2 DUP6 DUP8 GAS CALL SWAP3 POP POP POP RETURNDATASIZE DUP1 PUSH1 0x0 DUP2 EQ PUSH2 0xE34 JUMPI PUSH1 0x40 MLOAD SWAP2 POP PUSH1 0x1F NOT PUSH1 0x3F RETURNDATASIZE ADD AND DUP3 ADD PUSH1 0x40 MSTORE RETURNDATASIZE DUP3 MSTORE RETURNDATASIZE PUSH1 0x0 PUSH1 0x20 DUP5 ADD RETURNDATACOPY PUSH2 0xE39 JUMP JUMPDEST PUSH1 0x60 SWAP2 POP JUMPDEST POP POP SWAP1 POP DUP1 PUSH2 0xD46 JUMPI PUSH1 0x40 MLOAD PUSH4 0xA12F521 PUSH1 0xE1 SHL DUP2 MSTORE PUSH1 0x4 ADD PUSH1 0x40 MLOAD DUP1 SWAP2 SUB SWAP1 REVERT JUMPDEST PUSH1 0x0 DUP2 MLOAD DUP1 DUP5 MSTORE PUSH1 0x0 JUMPDEST DUP2 DUP2 LT ISZERO PUSH2 0xE81 JUMPI PUSH1 0x20 DUP2 DUP6 ADD DUP2 ADD MLOAD DUP7 DUP4 ADD DUP3 ADD MSTORE ADD PUSH2 0xE65 JUMP JUMPDEST POP PUSH1 0x0 PUSH1 0x20 DUP3 DUP7 ADD ADD MSTORE PUSH1 0x20 PUSH1 0x1F NOT PUSH1 0x1F DUP4 ADD AND DUP6 ADD ADD SWAP2 POP POP SWAP3 SWAP2 POP POP JUMP JUMPDEST PUSH1 0x0 PUSH1 0x1 DUP1 PUSH1 0xA0 SHL SUB DUP1 DUP7 AND DUP4 MSTORE DUP1 DUP6 MLOAD AND PUSH1 0x20 DUP5 ADD MSTORE PUSH1 0x20 DUP6 ADD MLOAD PUSH1 0x40 DUP5 ADD MSTORE DUP1 PUSH1 0x40 DUP7 ADD MLOAD AND PUSH1 0x60 DUP5 ADD MSTORE POP PUSH1 0x60 DUP5 ADD MLOAD PUSH2 0xFFFF DUP1 DUP3 AND PUSH1 0x80 DUP6 ADD MSTORE DUP1 PUSH1 0x80 DUP8 ADD MLOAD AND PUSH1 0xA0 DUP6 ADD MSTORE POP POP PUSH1 0xE0 PUSH1 0xC0 DUP4 ADD MSTORE PUSH2 0xF01 PUSH1 0xE0 DUP4 ADD DUP5 PUSH2 0xE5B JUMP JUMPDEST SWAP6 SWAP5 POP POP POP POP POP JUMP JUMPDEST PUSH1 0x1 PUSH1 0x1 PUSH1 0xA0 SHL SUB DUP2 AND DUP2 EQ PUSH2 0xF1F JUMPI PUSH1 0x0 DUP1 REVERT JUMPDEST POP JUMP JUMPDEST PUSH1 0x0 DUP1 DUP4 PUSH1 0x1F DUP5 ADD SLT PUSH2 0xF34 JUMPI PUSH1 0x0 DUP1 REVERT JUMPDEST POP DUP2 CALLDATALOAD PUSH8 0xFFFFFFFFFFFFFFFF DUP2 GT ISZERO PUSH2 0xF4C JUMPI PUSH1 0x0 DUP1 REVERT JUMPDEST PUSH1 0x20 DUP4 ADD SWAP2 POP DUP4 PUSH1 0x20 DUP3 DUP6 ADD ADD GT ISZERO PUSH2 0xF64 JUMPI PUSH1 0x0 DUP1 REVERT JUMPDEST SWAP3 POP SWAP3 SWAP1 POP JUMP JUMPDEST PUSH1 0x0 DUP1 PUSH1 0x0 DUP1 PUSH1 0x60 DUP6 DUP8 SUB SLT ISZERO PUSH2 0xF81 JUMPI PUSH1 0x0 DUP1 REVERT JUMPDEST DUP5 CALLDATALOAD PUSH2 0xF8C DUP2 PUSH2 0xF0A JUMP JUMPDEST SWAP4 POP PUSH1 0x20 DUP6 ADD CALLDATALOAD SWAP3 POP PUSH1 0x40 DUP6 ADD CALLDATALOAD PUSH8 0xFFFFFFFFFFFFFFFF DUP2 GT ISZERO PUSH2 0xFAF JUMPI PUSH1 0x0 DUP1 REVERT JUMPDEST PUSH2 0xFBB DUP8 DUP3 DUP9 ADD PUSH2 0xF22 JUMP JUMPDEST SWAP6 SWAP9 SWAP5 SWAP8 POP SWAP6 POP POP POP POP JUMP JUMPDEST PUSH1 0x0 PUSH1 0x20 DUP3 DUP5 SUB SLT ISZERO PUSH2 0xFD9 JUMPI PUSH1 0x0 DUP1 REVERT JUMPDEST DUP2 CALLDATALOAD PUSH2 0xFE4 DUP2 PUSH2 0xF0A JUMP JUMPDEST SWAP4 SWAP3 POP POP POP JUMP JUMPDEST PUSH4 0x4E487B71 PUSH1 0xE0 SHL PUSH1 0x0 MSTORE PUSH1 0x41 PUSH1 0x4 MSTORE PUSH1 0x24 PUSH1 0x0 REVERT JUMPDEST PUSH1 0x0 PUSH1 0x20 DUP3 DUP5 SUB SLT ISZERO PUSH2 0x1013 JUMPI PUSH1 0x0 DUP1 REVERT JUMPDEST DUP2 CALLDATALOAD PUSH8 0xFFFFFFFFFFFFFFFF DUP1 DUP3 GT ISZERO PUSH2 0x102B JUMPI PUSH1 0x0 DUP1 REVERT JUMPDEST DUP2 DUP5 ADD SWAP2 POP DUP5 PUSH1 0x1F DUP4 ADD SLT PUSH2 0x103F JUMPI PUSH1 0x0 DUP1 REVERT JUMPDEST DUP2 CALLDATALOAD DUP2 DUP2 GT ISZERO PUSH2 0x1051 JUMPI PUSH2 0x1051 PUSH2 0xFEB JUMP JUMPDEST PUSH1 0x40 MLOAD PUSH1 0x1F DUP3 ADD PUSH1 0x1F NOT SWAP1 DUP2 AND PUSH1 0x3F ADD AND DUP2 ADD SWAP1 DUP4 DUP3 GT DUP2 DUP4 LT OR ISZERO PUSH2 0x1079 JUMPI PUSH2 0x1079 PUSH2 0xFEB JUMP JUMPDEST DUP2 PUSH1 0x40 MSTORE DUP3 DUP2 MSTORE DUP8 PUSH1 0x20 DUP5 DUP8 ADD ADD GT ISZERO PUSH2 0x1092 JUMPI PUSH1 0x0 DUP1 REVERT JUMPDEST DUP3 PUSH1 0x20 DUP7 ADD PUSH1 0x20 DUP4 ADD CALLDATACOPY PUSH1 0x0 SWAP3 DUP2 ADD PUSH1 0x20 ADD SWAP3 SWAP1 SWAP3 MSTORE POP SWAP6 SWAP5 POP POP POP POP POP JUMP JUMPDEST PUSH1 0x0 DUP1 PUSH1 0x0 PUSH1 0x40 DUP5 DUP7 SUB SLT ISZERO PUSH2 0x10C7 JUMPI PUSH1 0x0 DUP1 REVERT JUMPDEST DUP4 CALLDATALOAD PUSH2 0x10D2 DUP2 PUSH2 0xF0A JUMP JUMPDEST SWAP3 POP PUSH1 0x20 DUP5 ADD CALLDATALOAD PUSH8 0xFFFFFFFFFFFFFFFF DUP2 GT ISZERO PUSH2 0x10EE JUMPI PUSH1 0x0 DUP1 REVERT JUMPDEST PUSH2 0x10FA DUP7 DUP3 DUP8 ADD PUSH2 0xF22 JUMP JUMPDEST SWAP5 SWAP8 SWAP1 SWAP7 POP SWAP4 SWAP5 POP POP POP POP JUMP JUMPDEST PUSH1 0x0 PUSH1 0x20 DUP3 DUP5 SUB SLT ISZERO PUSH2 0x1119 JUMPI PUSH1 0x0 DUP1 REVERT JUMPDEST POP CALLDATALOAD SWAP2 SWAP1 POP JUMP JUMPDEST PUSH1 0x20 DUP2 MSTORE PUSH1 0x0 PUSH2 0xFE4 PUSH1 0x20 DUP4 ADD DUP5 PUSH2 0xE5B JUMP JUMPDEST DUP2 DUP4 MSTORE DUP2 DUP2 PUSH1 0x20 DUP6 ADD CALLDATACOPY POP PUSH1 0x0 DUP3 DUP3 ADD PUSH1 0x20 SWAP1 DUP2 ADD SWAP2 SWAP1 SWAP2 MSTORE PUSH1 0x1F SWAP1 SWAP2 ADD PUSH1 0x1F NOT AND SWAP1 SWAP2 ADD ADD SWAP1 JUMP JUMPDEST DUP4 DUP2 MSTORE PUSH1 0x40 PUSH1 0x20 DUP3 ADD MSTORE PUSH1 0x0 PUSH2 0xF01 PUSH1 0x40 DUP4 ADD DUP5 DUP7 PUSH2 0x1133 JUMP JUMPDEST PUSH1 0x0 PUSH1 0x20 DUP3 DUP5 SUB SLT ISZERO PUSH2 0x1188 JUMPI PUSH1 0x0 DUP1 REVERT JUMPDEST POP MLOAD SWAP2 SWAP1 POP JUMP JUMPDEST PUSH4 0x4E487B71 PUSH1 0xE0 SHL PUSH1 0x0 MSTORE PUSH1 0x11 PUSH1 0x4 MSTORE PUSH1 0x24 PUSH1 0x0 REVERT JUMPDEST DUP2 DUP2 SUB DUP2 DUP2 GT ISZERO PUSH2 0x11B8 JUMPI PUSH2 0x11B8 PUSH2 0x118F JUMP JUMPDEST SWAP3 SWAP2 POP POP JUMP JUMPDEST DUP1 DUP3 MUL DUP2 ISZERO DUP3 DUP3 DIV DUP5 EQ OR PUSH2 0x11B8 JUMPI PUSH2 0x11B8 PUSH2 0x118F JUMP JUMPDEST PUSH1 0x0 DUP3 PUSH2 0x11F2 JUMPI PUSH4 0x4E487B71 PUSH1 0xE0 SHL PUSH1 0x0 MSTORE PUSH1 0x12 PUSH1 0x4 MSTORE PUSH1 0x24 PUSH1 0x0 REVERT JUMPDEST POP DIV SWAP1 JUMP JUMPDEST DUP1 DUP3 ADD DUP1 DUP3 GT ISZERO PUSH2 0x11B8 JUMPI PUSH2 0x11B8 PUSH2 0x118F JUMP JUMPDEST PUSH1 0x1 PUSH1 0x1 PUSH1 0xA0 SHL SUB DUP5 AND DUP2 MSTORE PUSH1 0x40 PUSH1 0x20 DUP3 ADD DUP2 SWAP1 MSTORE PUSH1 0x0 SWAP1 PUSH2 0xF01 SWAP1 DUP4 ADD DUP5 DUP7 PUSH2 0x1133 JUMP JUMPDEST PUSH1 0x0 PUSH1 0x20 DUP3 DUP5 SUB SLT ISZERO PUSH2 0x1241 JUMPI PUSH1 0x0 DUP1 REVERT JUMPDEST DUP2 MLOAD PUSH2 0xFE4 DUP2 PUSH2 0xF0A JUMP JUMPDEST PUSH1 0x0 PUSH1 0x20 DUP3 DUP5 SUB SLT ISZERO PUSH2 0x125E JUMPI PUSH1 0x0 DUP1 REVERT JUMPDEST DUP2 MLOAD DUP1 ISZERO ISZERO DUP2 EQ PUSH2 0xFE4 JUMPI PUSH1 0x0 DUP1 REVERT INVALID LOG2 PUSH5 0x6970667358 0x22 SLT KECCAK256 CREATE PUSH15 0xD8727C2AD150B9BEA93908319813B9 MOD SWAP8 PC DUP4 PUSH20 0xF2074A61EC86934A9BB164736F6C634300081500 CALLER "},"methodIdentifiers":{"encode(uint256)":"deb21fa2","getAppImpAddress()":"fccbd8ef","getStrategy()":"07da0603","getUnwrapOracle(bytes)":"8e1f1447","getWrapOracle(bytes)":"46992736","getparticipated(address)":"432b9fdd","setAppImpAddress(address)":"d1bd5128","setAsset()":"0453453a","unwrap(address,uint256,bytes)":"3c6e2f22","wrap(address,bytes)":"8ba6cd03"}}}}}