{"contracts/ReflectionAppImp.sol":{"AppImp":{"abi":[{"inputs":[],"stateMutability":"nonpayable","type":"constructor"},{"inputs":[],"name":"ERC721EnumerableForbiddenBatchMint","type":"error"},{"inputs":[{"internalType":"address","name":"sender","type":"address"},{"internalType":"uint256","name":"tokenId","type":"uint256"},{"internalType":"address","name":"owner","type":"address"}],"name":"ERC721IncorrectOwner","type":"error"},{"inputs":[{"internalType":"address","name":"operator","type":"address"},{"internalType":"uint256","name":"tokenId","type":"uint256"}],"name":"ERC721InsufficientApproval","type":"error"},{"inputs":[{"internalType":"address","name":"approver","type":"address"}],"name":"ERC721InvalidApprover","type":"error"},{"inputs":[{"internalType":"address","name":"operator","type":"address"}],"name":"ERC721InvalidOperator","type":"error"},{"inputs":[{"internalType":"address","name":"owner","type":"address"}],"name":"ERC721InvalidOwner","type":"error"},{"inputs":[{"internalType":"address","name":"receiver","type":"address"}],"name":"ERC721InvalidReceiver","type":"error"},{"inputs":[{"internalType":"address","name":"sender","type":"address"}],"name":"ERC721InvalidSender","type":"error"},{"inputs":[{"internalType":"uint256","name":"tokenId","type":"uint256"}],"name":"ERC721NonexistentToken","type":"error"},{"inputs":[{"internalType":"address","name":"owner","type":"address"},{"internalType":"uint256","name":"index","type":"uint256"}],"name":"ERC721OutOfBoundsIndex","type":"error"},{"inputs":[{"internalType":"address","name":"tokenURIEngine","type":"address"}],"name":"InvalidTokenURIEngine","type":"error"},{"inputs":[],"name":"NotOwnerOrApproved","type":"error"},{"inputs":[{"internalType":"uint256","name":"tokenId","type":"uint256"}],"name":"TokenURISettingsNonexistentToken","type":"error"},{"anonymous":false,"inputs":[{"indexed":true,"internalType":"address","name":"owner","type":"address"},{"indexed":true,"internalType":"address","name":"approved","type":"address"},{"indexed":true,"internalType":"uint256","name":"tokenId","type":"uint256"}],"name":"Approval","type":"event"},{"anonymous":false,"inputs":[{"indexed":true,"internalType":"address","name":"owner","type":"address"},{"indexed":true,"internalType":"address","name":"operator","type":"address"},{"indexed":false,"internalType":"bool","name":"approved","type":"bool"}],"name":"ApprovalForAll","type":"event"},{"anonymous":false,"inputs":[{"indexed":false,"internalType":"address","name":"oldTokenURIEngine","type":"address"},{"indexed":true,"internalType":"address","name":"newTokenURIEngine","type":"address"}],"name":"SetProxyTokenURIEngine","type":"event"},{"anonymous":false,"inputs":[{"indexed":true,"internalType":"uint256","name":"tokenId","type":"uint256"},{"indexed":true,"internalType":"address","name":"tokenURIEngine","type":"address"}],"name":"SetTokenURIEngine","type":"event"},{"anonymous":false,"inputs":[{"indexed":true,"internalType":"address","name":"from","type":"address"},{"indexed":true,"internalType":"address","name":"to","type":"address"},{"indexed":true,"internalType":"uint256","name":"tokenId","type":"uint256"}],"name":"Transfer","type":"event"},{"inputs":[{"internalType":"address","name":"to","type":"address"},{"internalType":"uint256","name":"tokenId","type":"uint256"}],"name":"approve","outputs":[],"stateMutability":"nonpayable","type":"function"},{"inputs":[{"internalType":"address","name":"owner","type":"address"}],"name":"balanceOf","outputs":[{"internalType":"uint256","name":"","type":"uint256"}],"stateMutability":"view","type":"function"},{"inputs":[{"internalType":"uint256","name":"tokenId","type":"uint256"},{"internalType":"bytes","name":"","type":"bytes"}],"name":"burn","outputs":[],"stateMutability":"nonpayable","type":"function"},{"inputs":[],"name":"factoryAddress","outputs":[{"internalType":"address","name":"","type":"address"}],"stateMutability":"view","type":"function"},{"inputs":[],"name":"getAgency","outputs":[{"internalType":"address payable","name":"","type":"address"}],"stateMutability":"view","type":"function"},{"inputs":[{"internalType":"uint256","name":"tokenId","type":"uint256"}],"name":"getApproved","outputs":[{"internalType":"address","name":"","type":"address"}],"stateMutability":"view","type":"function"},{"inputs":[],"name":"getMaxSupply","outputs":[{"internalType":"uint256","name":"","type":"uint256"}],"stateMutability":"pure","type":"function"},{"inputs":[{"internalType":"uint256","name":"","type":"uint256"}],"name":"getName","outputs":[{"internalType":"string","name":"","type":"string"}],"stateMutability":"view","type":"function"},{"inputs":[],"name":"getOwner","outputs":[],"stateMutability":"nonpayable","type":"function"},{"inputs":[],"name":"getProxyTokenURIEngine","outputs":[{"internalType":"address","name":"","type":"address"}],"stateMutability":"view","type":"function"},{"inputs":[{"internalType":"uint256","name":"tokenId","type":"uint256"}],"name":"getTokenURIEngine","outputs":[{"internalType":"address","name":"","type":"address"}],"stateMutability":"view","type":"function"},{"inputs":[{"internalType":"address","name":"owner","type":"address"},{"internalType":"address","name":"operator","type":"address"}],"name":"isApprovedForAll","outputs":[{"internalType":"bool","name":"","type":"bool"}],"stateMutability":"view","type":"function"},{"inputs":[{"internalType":"address","name":"to","type":"address"},{"internalType":"bytes","name":"data","type":"bytes"}],"name":"mint","outputs":[{"internalType":"uint256","name":"tokenId","type":"uint256"}],"stateMutability":"nonpayable","type":"function"},{"inputs":[],"name":"name","outputs":[{"internalType":"string","name":"","type":"string"}],"stateMutability":"view","type":"function"},{"inputs":[],"name":"owner","outputs":[{"internalType":"address","name":"","type":"address"}],"stateMutability":"view","type":"function"},{"inputs":[{"internalType":"uint256","name":"tokenId","type":"uint256"}],"name":"ownerOf","outputs":[{"internalType":"address","name":"","type":"address"}],"stateMutability":"view","type":"function"},{"inputs":[{"internalType":"address","name":"from","type":"address"},{"internalType":"address","name":"to","type":"address"},{"internalType":"uint256","name":"tokenId","type":"uint256"}],"name":"safeTransferFrom","outputs":[],"stateMutability":"nonpayable","type":"function"},{"inputs":[{"internalType":"address","name":"from","type":"address"},{"internalType":"address","name":"to","type":"address"},{"internalType":"uint256","name":"tokenId","type":"uint256"},{"internalType":"bytes","name":"data","type":"bytes"}],"name":"safeTransferFrom","outputs":[],"stateMutability":"nonpayable","type":"function"},{"inputs":[{"internalType":"address payable","name":"oracle","type":"address"}],"name":"setAgency","outputs":[],"stateMutability":"nonpayable","type":"function"},{"inputs":[{"internalType":"address","name":"operator","type":"address"},{"internalType":"bool","name":"approved","type":"bool"}],"name":"setApprovalForAll","outputs":[],"stateMutability":"nonpayable","type":"function"},{"inputs":[{"internalType":"address","name":"_myContractAddress","type":"address"}],"name":"setMyContractAddress","outputs":[],"stateMutability":"nonpayable","type":"function"},{"inputs":[{"internalType":"address","name":"tokenURIEngine","type":"address"}],"name":"setProxyTokenURIEngine","outputs":[],"stateMutability":"nonpayable","type":"function"},{"inputs":[{"internalType":"uint256","name":"tokenId","type":"uint256"},{"internalType":"address","name":"tokenURIEngine","type":"address"}],"name":"setTokenURIEngine","outputs":[],"stateMutability":"nonpayable","type":"function"},{"inputs":[{"internalType":"bytes4","name":"interfaceId","type":"bytes4"}],"name":"supportsInterface","outputs":[{"internalType":"bool","name":"","type":"bool"}],"stateMutability":"view","type":"function"},{"inputs":[],"name":"symbol","outputs":[{"internalType":"string","name":"","type":"string"}],"stateMutability":"view","type":"function"},{"inputs":[{"internalType":"uint256","name":"index","type":"uint256"}],"name":"tokenByIndex","outputs":[{"internalType":"uint256","name":"","type":"uint256"}],"stateMutability":"view","type":"function"},{"inputs":[{"internalType":"address","name":"owner","type":"address"},{"internalType":"uint256","name":"index","type":"uint256"}],"name":"tokenOfOwnerByIndex","outputs":[{"internalType":"uint256","name":"","type":"uint256"}],"stateMutability":"view","type":"function"},{"inputs":[{"internalType":"uint256","name":"tokenId","type":"uint256"}],"name":"tokenURI","outputs":[{"internalType":"string","name":"","type":"string"}],"stateMutability":"view","type":"function"},{"inputs":[],"name":"totalSupply","outputs":[{"internalType":"uint256","name":"","type":"uint256"}],"stateMutability":"view","type":"function"},{"inputs":[{"internalType":"address","name":"from","type":"address"},{"internalType":"address","name":"to","type":"address"},{"internalType":"uint256","name":"tokenId","type":"uint256"}],"name":"transferFrom","outputs":[],"stateMutability":"nonpayable","type":"function"},{"inputs":[{"internalType":"uint256","name":"number","type":"uint256"}],"name":"uint256ToString","outputs":[{"internalType":"string","name":"","type":"string"}],"stateMutability":"pure","type":"function"}],"evm":{"bytecode":{"linkReferences":{},"object":"60806040526200000e6200010b565b600a906200001d908262000381565b503480156200002b57600080fd5b50600a80546200003b90620002f2565b80601f01602080910402602001604051908101604052809291908181526020018280546200006990620002f2565b8015620000ba5780601f106200008e57610100808354040283529160200191620000ba565b820191906000526020600020905b8154815290600101906020018083116200009c57829003601f168201915b50505050506040518060400160405280600a8152602001692932b33632b1ba34b7b760b11b8152508160009081620000f3919062000381565b50600162000102828262000381565b50505062000494565b6060620001216200011b60085490565b62000147565b6040516020016200013391906200044d565b604051602081830303815290604052905090565b606062000154826200015a565b92915050565b606060006200016983620001f3565b60010190506000816001600160401b038111156200018b576200018b620002dc565b6040519080825280601f01601f191660200182016040528015620001b6576020820181803683370190505b5090508181016020015b600019016f181899199a1a9b1b9c1cb0b131b232b360811b600a86061a8153600a8504945084620001c057509392505050565b6000807a184f03e93ff9f4daa797ed6e38ed64bf6a1f01000000000000000083106200023d577a184f03e93ff9f4daa797ed6e38ed64bf6a1f010000000000000000830492506040015b6d04ee2d6d415b85acef810000000083106200026a576d04ee2d6d415b85acef8100000000830492506020015b662386f26fc1000083106200028957662386f26fc10000830492506010015b6305f5e1008310620002a2576305f5e100830492506008015b6127108310620002b757612710830492506004015b60648310620002ca576064830492506002015b600a8310620001545760010192915050565b634e487b7160e01b600052604160045260246000fd5b600181811c908216806200030757607f821691505b6020821081036200032857634e487b7160e01b600052602260045260246000fd5b50919050565b601f8211156200037c57600081815260208120601f850160051c81016020861015620003575750805b601f850160051c820191505b81811015620003785782815560010162000363565b5050505b505050565b81516001600160401b038111156200039d576200039d620002dc565b620003b581620003ae8454620002f2565b846200032e565b602080601f831160018114620003ed5760008415620003d45750858301515b600019600386901b1c1916600185901b17855562000378565b600085815260208120601f198616915b828110156200041e57888601518255948401946001909101908401620003fd565b50858210156200043d5787850151600019600388901b60f8161c191681555b5050505050600190811b01905550565b692932b33632b1ba34b7b760b11b81526000825160005b8181101562000483576020818601810151600a86840101520162000464565b5060009201600a0191825250919050565b611b9c80620004a46000396000f3fe608060405234801561001057600080fd5b50600436106101e55760003560e01c8063742b5cc71161010f578063b88d4fde116100a2578063ce7e51e311610071578063ce7e51e31461041f578063e0d20fec14610432578063e985e9c514610445578063fe9d93031461045857600080fd5b8063b88d4fde146103bd578063bdc6067d146103d0578063be04bb1d146103e3578063c87b56dd1461040c57600080fd5b8063966dae0e116100de578063966dae0e1461037c578063a22cb4651461038f578063b4f35b9a146103a2578063b510391f146103aa57600080fd5b8063742b5cc714610348578063893d20e8146103595780638da5cb5b1461036157806395d89b411461037457600080fd5b806339b3d243116101875780636352211e116101565780636352211e146102df57806367e0e1ab146102f25780636b8ff5741461032257806370a082311461033557600080fd5b806339b3d2431461029f57806342842e0e146102b25780634c0f38c2146102c55780634f6ccce7146102cc57600080fd5b8063095ea7b3116101c3578063095ea7b31461025257806318160ddd1461026757806323b872dd146102795780632f745c591461028c57600080fd5b806301ffc9a7146101ea57806306fdde0314610212578063081812fc14610227575b600080fd5b6101fd6101f8366004611639565b61046b565b60405190151581526020015b60405180910390f35b61021a610496565b60405161020991906116a6565b61023a6102353660046116b9565b610528565b6040516001600160a01b039091168152602001610209565b6102656102603660046116e7565b610551565b005b6008545b604051908152602001610209565b610265610287366004611713565b610560565b61026b61029a3660046116e7565b6105f0565b6102656102ad366004611754565b610655565b6102656102c0366004611713565b6106cf565b606461026b565b61026b6102da3660046116b9565b6106ef565b61023a6102ed3660046116b9565b610748565b610265610300366004611754565b600f80546001600160a01b0319166001600160a01b0392909216919091179055565b61021a6103303660046116b9565b610753565b61026b610343366004611754565b6107e7565b600d546001600160a01b031661023a565b61026561082f565b60105461023a906001600160a01b031681565b61021a6108c1565b600f5461023a906001600160a01b031681565b61026561039d366004611771565b6108d0565b61023a6108db565b61026b6103b83660046117f8565b6108f4565b6102656103cb3660046118bc565b61095c565b6102656103de366004611754565b610973565b61023a6103f13660046116b9565b6000908152600c60205260409020546001600160a01b031690565b61021a61041a3660046116b9565b610a67565b61021a61042d3660046116b9565b610b68565b61026561044036600461196b565b610b73565b6101fd610453366004611990565b610c38565b6102656104663660046119be565b610c66565b60006001600160e01b0319821663973bee4b60e01b1480610490575061049082610c6f565b92915050565b6060600080546104a5906119f1565b80601f01602080910402602001604051908101604052809291908181526020018280546104d1906119f1565b801561051e5780601f106104f35761010080835404028352916020019161051e565b820191906000526020600020905b81548152906001019060200180831161050157829003601f168201915b5050505050905090565b600061053382610c94565b506000828152600460205260409020546001600160a01b0316610490565b61055c828233610ccd565b5050565b6001600160a01b03821661058f57604051633250574960e11b8152600060048201526024015b60405180910390fd5b600061059c838333610cda565b9050836001600160a01b0316816001600160a01b0316146105ea576040516364283d7b60e01b81526001600160a01b0380861660048301526024820184905282166044820152606401610586565b50505050565b60006105fb836107e7565b821061062c5760405163295f44f760e21b81526001600160a01b038416600482015260248101839052604401610586565b506001600160a01b03919091166000908152600660209081526040808320938352929052205490565b6000610669600e546001600160a01b031690565b6001600160a01b0316146106ad5760405162461bcd60e51b815260206004820152600b60248201526a185b1c9958591e481cd95d60aa1b6044820152606401610586565b600e80546001600160a01b0319166001600160a01b0392909216919091179055565b6106ea8383836040518060200160405280600081525061095c565b505050565b60006106fa60085490565b82106107235760405163295f44f760e21b81526000600482015260248101839052604401610586565b6008828154811061073657610736611a2b565b90600052602060002001549050919050565b600061049082610c94565b6060600a8054610762906119f1565b80601f016020809104026020016040519081016040528092919081815260200182805461078e906119f1565b80156107db5780601f106107b0576101008083540402835291602001916107db565b820191906000526020600020905b8154815290600101906020018083116107be57829003601f168201915b50505050509050919050565b60006001600160a01b038216610813576040516322718ad960e21b815260006004820152602401610586565b506001600160a01b031660009081526003602052604090205490565b600f5460408051631127a41d60e31b815290516001600160a01b0390921691829163893d20e89160048083019260209291908290030181865afa15801561087a573d6000803e3d6000fd5b505050506040513d601f19601f8201168201806040525081019061089e9190611a41565b601080546001600160a01b0319166001600160a01b039290921691909117905550565b6060600180546104a5906119f1565b61055c338383610da7565b60006108ef600e546001600160a01b031690565b905090565b600060646008541061093d5760405162461bcd60e51b81526020600482015260126024820152711b585e081cdd5c1c1b1e481c995858da195960721b6044820152606401610586565b610949828401846116b9565b90506109558482610e46565b9392505050565b610967848484610560565b6105ea84848484610eab565b6010546001600160a01b031633146109db5760405162461bcd60e51b815260206004820152602560248201527f4f6e6c7920746865206f776e65722063616e2063616c6c20746869732066756e60448201526431ba34b7b760d91b6064820152608401610586565b6001600160a01b038116610a0d57604051632b58e82160e21b81526001600160a01b0382166004820152602401610586565b600d80546001600160a01b038381166001600160a01b031983168117909355604051911680825291907fcee9b4b221997e942679d9d57d8c171984dca4bc5ff74d92711200ac3d232e3e9060200160405180910390a25050565b6000818152600260205260409020546060906001600160a01b031680610aa35760405163230d897d60e21b815260048101849052602401610586565b6000838152600c60205260409020546001600160a01b03168015610b37576040516330c8446360e21b8152600481018590526001600160a01b0382169063c321118c906024015b600060405180830381865afa158015610b07573d6000803e3d6000fd5b505050506040513d6000823e601f3d908101601f19168201604052610b2f9190810190611a5e565b949350505050565b600d546040516330c8446360e21b8152600481018690526001600160a01b039091169063c321118c90602401610aea565b606061049082610fd4565b6000828152600260205260409020546001600160a01b031680610bac5760405163230d897d60e21b815260048101849052602401610586565b6001600160a01b038216610bde57604051632b58e82160e21b81526001600160a01b0383166004820152602401610586565b6000838152600c602052604080822080546001600160a01b0319166001600160a01b0386169081179091559051909185917f87ee21445db73fc31d1912380e621ad53034d6c810353610b23e349b7143a5a99190a3505050565b6001600160a01b03918216600090815260056020908152604080832093909416825291909152205460ff1690565b6106ea83611067565b60006001600160e01b0319821663780e9d6360e01b14806104905750610490826110a2565b6000818152600260205260408120546001600160a01b03168061049057604051637e27328960e01b815260048101849052602401610586565b6106ea83838360016110f2565b600080610ce88585856111f8565b90506001600160a01b038116610d4557610d4084600880546000838152600960205260408120829055600182018355919091527ff3f7a9fe364faab93b216da50a3214154f22a0a2b415b23a84c8169e8b636ee30155565b610d68565b846001600160a01b0316816001600160a01b031614610d6857610d6881856112f1565b6001600160a01b038516610d8457610d7f84611382565b610b2f565b846001600160a01b0316816001600160a01b031614610b2f57610b2f8585611431565b6001600160a01b038216610dd957604051630b61174360e31b81526001600160a01b0383166004820152602401610586565b6001600160a01b03838116600081815260056020908152604080832094871680845294825291829020805460ff191686151590811790915591519182527f17307eab39ab6107e8899845ad3d59bd9653f200f220920489ca2b5937696c31910160405180910390a3505050565b6001600160a01b038216610e7057604051633250574960e11b815260006004820152602401610586565b6000610e7e83836000610cda565b90506001600160a01b038116156106ea576040516339e3563760e11b815260006004820152602401610586565b6001600160a01b0383163b156105ea57604051630a85bd0160e11b81526001600160a01b0384169063150b7a0290610eed903390889087908790600401611ad5565b6020604051808303816000875af1925050508015610f28575060408051601f3d908101601f19168201909252610f2591810190611b12565b60015b610f91573d808015610f56576040519150601f19603f3d011682016040523d82523d6000602084013e610f5b565b606091505b508051600003610f8957604051633250574960e11b81526001600160a01b0385166004820152602401610586565b805181602001fd5b6001600160e01b03198116630a85bd0160e11b14610fcd57604051633250574960e11b81526001600160a01b0385166004820152602401610586565b5050505050565b60606000610fe183611481565b600101905060008167ffffffffffffffff8111156110015761100161184d565b6040519080825280601f01601f19166020018201604052801561102b576020820181803683370190505b5090508181016020015b600019016f181899199a1a9b1b9c1cb0b131b232b360811b600a86061a8153600a850494508461103557509392505050565b60006110766000836000610cda565b90506001600160a01b03811661055c57604051637e27328960e01b815260048101839052602401610586565b60006001600160e01b031982166380ac58cd60e01b14806110d357506001600160e01b03198216635b5e139f60e01b145b8061049057506301ffc9a760e01b6001600160e01b0319831614610490565b808061110657506001600160a01b03821615155b156111c857600061111684610c94565b90506001600160a01b038316158015906111425750826001600160a01b0316816001600160a01b031614155b801561115557506111538184610c38565b155b1561117e5760405163a9fbf51f60e01b81526001600160a01b0384166004820152602401610586565b81156111c65783856001600160a01b0316826001600160a01b03167f8c5be1e5ebec7d5bd14f71427d1e84f3dd0314c0f7b2291e5b200ac8c7c3b92560405160405180910390a45b505b5050600090815260046020526040902080546001600160a01b0319166001600160a01b0392909216919091179055565b6000828152600260205260408120546001600160a01b039081169083161561122557611225818486611559565b6001600160a01b03811615611263576112426000856000806110f2565b6001600160a01b038116600090815260036020526040902080546000190190555b6001600160a01b03851615611292576001600160a01b0385166000908152600360205260409020805460010190555b60008481526002602052604080822080546001600160a01b0319166001600160a01b0389811691821790925591518793918516917fddf252ad1be2c89b69c2b068fc378daa952ba7f163c4a11628f55a4df523b3ef91a4949350505050565b60006112fc836107e7565b60008381526007602052604090205490915080821461134f576001600160a01b03841660009081526006602090815260408083208584528252808320548484528184208190558352600790915290208190555b5060009182526007602090815260408084208490556001600160a01b039094168352600681528383209183525290812055565b60085460009061139490600190611b2f565b600083815260096020526040812054600880549394509092849081106113bc576113bc611a2b565b9060005260206000200154905080600883815481106113dd576113dd611a2b565b600091825260208083209091019290925582815260099091526040808220849055858252812055600880548061141557611415611b50565b6001900381819060005260206000200160009055905550505050565b6000600161143e846107e7565b6114489190611b2f565b6001600160a01b039093166000908152600660209081526040808320868452825280832085905593825260079052919091209190915550565b60008072184f03e93ff9f4daa797ed6e38ed64bf6a1f0160401b83106114c05772184f03e93ff9f4daa797ed6e38ed64bf6a1f0160401b830492506040015b6d04ee2d6d415b85acef810000000083106114ec576d04ee2d6d415b85acef8100000000830492506020015b662386f26fc10000831061150a57662386f26fc10000830492506010015b6305f5e1008310611522576305f5e100830492506008015b612710831061153657612710830492506004015b60648310611548576064830492506002015b600a83106104905760010192915050565b6115648383836115bd565b6106ea576001600160a01b03831661159257604051637e27328960e01b815260048101829052602401610586565b60405163177e802f60e01b81526001600160a01b038316600482015260248101829052604401610586565b60006001600160a01b03831615801590610b2f5750826001600160a01b0316846001600160a01b031614806115f757506115f78484610c38565b80610b2f5750506000908152600460205260409020546001600160a01b03908116911614919050565b6001600160e01b03198116811461163657600080fd5b50565b60006020828403121561164b57600080fd5b813561095581611620565b60005b83811015611671578181015183820152602001611659565b50506000910152565b60008151808452611692816020860160208601611656565b601f01601f19169290920160200192915050565b602081526000610955602083018461167a565b6000602082840312156116cb57600080fd5b5035919050565b6001600160a01b038116811461163657600080fd5b600080604083850312156116fa57600080fd5b8235611705816116d2565b946020939093013593505050565b60008060006060848603121561172857600080fd5b8335611733816116d2565b92506020840135611743816116d2565b929592945050506040919091013590565b60006020828403121561176657600080fd5b8135610955816116d2565b6000806040838503121561178457600080fd5b823561178f816116d2565b9150602083013580151581146117a457600080fd5b809150509250929050565b60008083601f8401126117c157600080fd5b50813567ffffffffffffffff8111156117d957600080fd5b6020830191508360208285010111156117f157600080fd5b9250929050565b60008060006040848603121561180d57600080fd5b8335611818816116d2565b9250602084013567ffffffffffffffff81111561183457600080fd5b611840868287016117af565b9497909650939450505050565b634e487b7160e01b600052604160045260246000fd5b604051601f8201601f1916810167ffffffffffffffff8111828210171561188c5761188c61184d565b604052919050565b600067ffffffffffffffff8211156118ae576118ae61184d565b50601f01601f191660200190565b600080600080608085870312156118d257600080fd5b84356118dd816116d2565b935060208501356118ed816116d2565b925060408501359150606085013567ffffffffffffffff81111561191057600080fd5b8501601f8101871361192157600080fd5b803561193461192f82611894565b611863565b81815288602083850101111561194957600080fd5b8160208401602083013760006020838301015280935050505092959194509250565b6000806040838503121561197e57600080fd5b8235915060208301356117a4816116d2565b600080604083850312156119a357600080fd5b82356119ae816116d2565b915060208301356117a4816116d2565b6000806000604084860312156119d357600080fd5b83359250602084013567ffffffffffffffff81111561183457600080fd5b600181811c90821680611a0557607f821691505b602082108103611a2557634e487b7160e01b600052602260045260246000fd5b50919050565b634e487b7160e01b600052603260045260246000fd5b600060208284031215611a5357600080fd5b8151610955816116d2565b600060208284031215611a7057600080fd5b815167ffffffffffffffff811115611a8757600080fd5b8201601f81018413611a9857600080fd5b8051611aa661192f82611894565b818152856020838501011115611abb57600080fd5b611acc826020830160208601611656565b95945050505050565b6001600160a01b0385811682528416602082015260408101839052608060608201819052600090611b089083018461167a565b9695505050505050565b600060208284031215611b2457600080fd5b815161095581611620565b8181038181111561049057634e487b7160e01b600052601160045260246000fd5b634e487b7160e01b600052603160045260246000fdfea264697066735822122010d7cac6237b00bb977031cfbfd5a4c6e8ebf33f7f9fe906d15868734ad2a5db64736f6c63430008150033","opcodes":"PUSH1 0x80 PUSH1 0x40 MSTORE PUSH3 0xE PUSH3 0x10B JUMP JUMPDEST PUSH1 0xA SWAP1 PUSH3 0x1D SWAP1 DUP3 PUSH3 0x381 JUMP JUMPDEST POP CALLVALUE DUP1 ISZERO PUSH3 0x2B JUMPI PUSH1 0x0 DUP1 REVERT JUMPDEST POP PUSH1 0xA DUP1 SLOAD PUSH3 0x3B SWAP1 PUSH3 0x2F2 JUMP JUMPDEST DUP1 PUSH1 0x1F ADD PUSH1 0x20 DUP1 SWAP2 DIV MUL PUSH1 0x20 ADD PUSH1 0x40 MLOAD SWAP1 DUP2 ADD PUSH1 0x40 MSTORE DUP1 SWAP3 SWAP2 SWAP1 DUP2 DUP2 MSTORE PUSH1 0x20 ADD DUP3 DUP1 SLOAD PUSH3 0x69 SWAP1 PUSH3 0x2F2 JUMP JUMPDEST DUP1 ISZERO PUSH3 0xBA JUMPI DUP1 PUSH1 0x1F LT PUSH3 0x8E JUMPI PUSH2 0x100 DUP1 DUP4 SLOAD DIV MUL DUP4 MSTORE SWAP2 PUSH1 0x20 ADD SWAP2 PUSH3 0xBA JUMP JUMPDEST DUP3 ADD SWAP2 SWAP1 PUSH1 0x0 MSTORE PUSH1 0x20 PUSH1 0x0 KECCAK256 SWAP1 JUMPDEST DUP2 SLOAD DUP2 MSTORE SWAP1 PUSH1 0x1 ADD SWAP1 PUSH1 0x20 ADD DUP1 DUP4 GT PUSH3 0x9C JUMPI DUP3 SWAP1 SUB PUSH1 0x1F AND DUP3 ADD SWAP2 JUMPDEST POP POP POP POP POP PUSH1 0x40 MLOAD DUP1 PUSH1 0x40 ADD PUSH1 0x40 MSTORE DUP1 PUSH1 0xA DUP2 MSTORE PUSH1 0x20 ADD PUSH10 0x2932B33632B1BA34B7B7 PUSH1 0xB1 SHL DUP2 MSTORE POP DUP2 PUSH1 0x0 SWAP1 DUP2 PUSH3 0xF3 SWAP2 SWAP1 PUSH3 0x381 JUMP JUMPDEST POP PUSH1 0x1 PUSH3 0x102 DUP3 DUP3 PUSH3 0x381 JUMP JUMPDEST POP POP POP PUSH3 0x494 JUMP JUMPDEST PUSH1 0x60 PUSH3 0x121 PUSH3 0x11B PUSH1 0x8 SLOAD SWAP1 JUMP JUMPDEST PUSH3 0x147 JUMP JUMPDEST PUSH1 0x40 MLOAD PUSH1 0x20 ADD PUSH3 0x133 SWAP2 SWAP1 PUSH3 0x44D JUMP JUMPDEST PUSH1 0x40 MLOAD PUSH1 0x20 DUP2 DUP4 SUB SUB DUP2 MSTORE SWAP1 PUSH1 0x40 MSTORE SWAP1 POP SWAP1 JUMP JUMPDEST PUSH1 0x60 PUSH3 0x154 DUP3 PUSH3 0x15A JUMP JUMPDEST SWAP3 SWAP2 POP POP JUMP JUMPDEST PUSH1 0x60 PUSH1 0x0 PUSH3 0x169 DUP4 PUSH3 0x1F3 JUMP JUMPDEST PUSH1 0x1 ADD SWAP1 POP PUSH1 0x0 DUP2 PUSH1 0x1 PUSH1 0x1 PUSH1 0x40 SHL SUB DUP2 GT ISZERO PUSH3 0x18B JUMPI PUSH3 0x18B PUSH3 0x2DC JUMP JUMPDEST PUSH1 0x40 MLOAD SWAP1 DUP1 DUP3 MSTORE DUP1 PUSH1 0x1F ADD PUSH1 0x1F NOT AND PUSH1 0x20 ADD DUP3 ADD PUSH1 0x40 MSTORE DUP1 ISZERO PUSH3 0x1B6 JUMPI PUSH1 0x20 DUP3 ADD DUP2 DUP1 CALLDATASIZE DUP4 CALLDATACOPY ADD SWAP1 POP JUMPDEST POP SWAP1 POP DUP2 DUP2 ADD PUSH1 0x20 ADD JUMPDEST PUSH1 0x0 NOT ADD PUSH16 0x181899199A1A9B1B9C1CB0B131B232B3 PUSH1 0x81 SHL PUSH1 0xA DUP7 MOD BYTE DUP2 MSTORE8 PUSH1 0xA DUP6 DIV SWAP5 POP DUP5 PUSH3 0x1C0 JUMPI POP SWAP4 SWAP3 POP POP POP JUMP JUMPDEST PUSH1 0x0 DUP1 PUSH27 0x184F03E93FF9F4DAA797ED6E38ED64BF6A1F010000000000000000 DUP4 LT PUSH3 0x23D JUMPI PUSH27 0x184F03E93FF9F4DAA797ED6E38ED64BF6A1F010000000000000000 DUP4 DIV SWAP3 POP PUSH1 0x40 ADD JUMPDEST PUSH14 0x4EE2D6D415B85ACEF8100000000 DUP4 LT PUSH3 0x26A JUMPI PUSH14 0x4EE2D6D415B85ACEF8100000000 DUP4 DIV SWAP3 POP PUSH1 0x20 ADD JUMPDEST PUSH7 0x2386F26FC10000 DUP4 LT PUSH3 0x289 JUMPI PUSH7 0x2386F26FC10000 DUP4 DIV SWAP3 POP PUSH1 0x10 ADD JUMPDEST PUSH4 0x5F5E100 DUP4 LT PUSH3 0x2A2 JUMPI PUSH4 0x5F5E100 DUP4 DIV SWAP3 POP PUSH1 0x8 ADD JUMPDEST PUSH2 0x2710 DUP4 LT PUSH3 0x2B7 JUMPI PUSH2 0x2710 DUP4 DIV SWAP3 POP PUSH1 0x4 ADD JUMPDEST PUSH1 0x64 DUP4 LT PUSH3 0x2CA JUMPI PUSH1 0x64 DUP4 DIV SWAP3 POP PUSH1 0x2 ADD JUMPDEST PUSH1 0xA DUP4 LT PUSH3 0x154 JUMPI PUSH1 0x1 ADD SWAP3 SWAP2 POP POP JUMP JUMPDEST PUSH4 0x4E487B71 PUSH1 0xE0 SHL PUSH1 0x0 MSTORE PUSH1 0x41 PUSH1 0x4 MSTORE PUSH1 0x24 PUSH1 0x0 REVERT JUMPDEST PUSH1 0x1 DUP2 DUP2 SHR SWAP1 DUP3 AND DUP1 PUSH3 0x307 JUMPI PUSH1 0x7F DUP3 AND SWAP2 POP JUMPDEST PUSH1 0x20 DUP3 LT DUP2 SUB PUSH3 0x328 JUMPI PUSH4 0x4E487B71 PUSH1 0xE0 SHL PUSH1 0x0 MSTORE PUSH1 0x22 PUSH1 0x4 MSTORE PUSH1 0x24 PUSH1 0x0 REVERT JUMPDEST POP SWAP2 SWAP1 POP JUMP JUMPDEST PUSH1 0x1F DUP3 GT ISZERO PUSH3 0x37C JUMPI PUSH1 0x0 DUP2 DUP2 MSTORE PUSH1 0x20 DUP2 KECCAK256 PUSH1 0x1F DUP6 ADD PUSH1 0x5 SHR DUP2 ADD PUSH1 0x20 DUP7 LT ISZERO PUSH3 0x357 JUMPI POP DUP1 JUMPDEST PUSH1 0x1F DUP6 ADD PUSH1 0x5 SHR DUP3 ADD SWAP2 POP JUMPDEST DUP2 DUP2 LT ISZERO PUSH3 0x378 JUMPI DUP3 DUP2 SSTORE PUSH1 0x1 ADD PUSH3 0x363 JUMP JUMPDEST POP POP POP JUMPDEST POP POP POP JUMP JUMPDEST DUP2 MLOAD PUSH1 0x1 PUSH1 0x1 PUSH1 0x40 SHL SUB DUP2 GT ISZERO PUSH3 0x39D JUMPI PUSH3 0x39D PUSH3 0x2DC JUMP JUMPDEST PUSH3 0x3B5 DUP2 PUSH3 0x3AE DUP5 SLOAD PUSH3 0x2F2 JUMP JUMPDEST DUP5 PUSH3 0x32E JUMP JUMPDEST PUSH1 0x20 DUP1 PUSH1 0x1F DUP4 GT PUSH1 0x1 DUP2 EQ PUSH3 0x3ED JUMPI PUSH1 0x0 DUP5 ISZERO PUSH3 0x3D4 JUMPI POP DUP6 DUP4 ADD MLOAD JUMPDEST PUSH1 0x0 NOT PUSH1 0x3 DUP7 SWAP1 SHL SHR NOT AND PUSH1 0x1 DUP6 SWAP1 SHL OR DUP6 SSTORE PUSH3 0x378 JUMP JUMPDEST PUSH1 0x0 DUP6 DUP2 MSTORE PUSH1 0x20 DUP2 KECCAK256 PUSH1 0x1F NOT DUP7 AND SWAP2 JUMPDEST DUP3 DUP2 LT ISZERO PUSH3 0x41E JUMPI DUP9 DUP7 ADD MLOAD DUP3 SSTORE SWAP5 DUP5 ADD SWAP5 PUSH1 0x1 SWAP1 SWAP2 ADD SWAP1 DUP5 ADD PUSH3 0x3FD JUMP JUMPDEST POP DUP6 DUP3 LT ISZERO PUSH3 0x43D JUMPI DUP8 DUP6 ADD MLOAD PUSH1 0x0 NOT PUSH1 0x3 DUP9 SWAP1 SHL PUSH1 0xF8 AND SHR NOT AND DUP2 SSTORE JUMPDEST POP POP POP POP POP PUSH1 0x1 SWAP1 DUP2 SHL ADD SWAP1 SSTORE POP JUMP JUMPDEST PUSH10 0x2932B33632B1BA34B7B7 PUSH1 0xB1 SHL DUP2 MSTORE PUSH1 0x0 DUP3 MLOAD PUSH1 0x0 JUMPDEST DUP2 DUP2 LT ISZERO PUSH3 0x483 JUMPI PUSH1 0x20 DUP2 DUP7 ADD DUP2 ADD MLOAD PUSH1 0xA DUP7 DUP5 ADD ADD MSTORE ADD PUSH3 0x464 JUMP JUMPDEST POP PUSH1 0x0 SWAP3 ADD PUSH1 0xA ADD SWAP2 DUP3 MSTORE POP SWAP2 SWAP1 POP JUMP JUMPDEST PUSH2 0x1B9C DUP1 PUSH3 0x4A4 PUSH1 0x0 CODECOPY PUSH1 0x0 RETURN INVALID PUSH1 0x80 PUSH1 0x40 MSTORE CALLVALUE DUP1 ISZERO PUSH2 0x10 JUMPI PUSH1 0x0 DUP1 REVERT JUMPDEST POP PUSH1 0x4 CALLDATASIZE LT PUSH2 0x1E5 JUMPI PUSH1 0x0 CALLDATALOAD PUSH1 0xE0 SHR DUP1 PUSH4 0x742B5CC7 GT PUSH2 0x10F JUMPI DUP1 PUSH4 0xB88D4FDE GT PUSH2 0xA2 JUMPI DUP1 PUSH4 0xCE7E51E3 GT PUSH2 0x71 JUMPI DUP1 PUSH4 0xCE7E51E3 EQ PUSH2 0x41F JUMPI DUP1 PUSH4 0xE0D20FEC EQ PUSH2 0x432 JUMPI DUP1 PUSH4 0xE985E9C5 EQ PUSH2 0x445 JUMPI DUP1 PUSH4 0xFE9D9303 EQ PUSH2 0x458 JUMPI PUSH1 0x0 DUP1 REVERT JUMPDEST DUP1 PUSH4 0xB88D4FDE EQ PUSH2 0x3BD JUMPI DUP1 PUSH4 0xBDC6067D EQ PUSH2 0x3D0 JUMPI DUP1 PUSH4 0xBE04BB1D EQ PUSH2 0x3E3 JUMPI DUP1 PUSH4 0xC87B56DD EQ PUSH2 0x40C JUMPI PUSH1 0x0 DUP1 REVERT JUMPDEST DUP1 PUSH4 0x966DAE0E GT PUSH2 0xDE JUMPI DUP1 PUSH4 0x966DAE0E EQ PUSH2 0x37C JUMPI DUP1 PUSH4 0xA22CB465 EQ PUSH2 0x38F JUMPI DUP1 PUSH4 0xB4F35B9A EQ PUSH2 0x3A2 JUMPI DUP1 PUSH4 0xB510391F EQ PUSH2 0x3AA JUMPI PUSH1 0x0 DUP1 REVERT JUMPDEST DUP1 PUSH4 0x742B5CC7 EQ PUSH2 0x348 JUMPI DUP1 PUSH4 0x893D20E8 EQ PUSH2 0x359 JUMPI DUP1 PUSH4 0x8DA5CB5B EQ PUSH2 0x361 JUMPI DUP1 PUSH4 0x95D89B41 EQ PUSH2 0x374 JUMPI PUSH1 0x0 DUP1 REVERT JUMPDEST DUP1 PUSH4 0x39B3D243 GT PUSH2 0x187 JUMPI DUP1 PUSH4 0x6352211E GT PUSH2 0x156 JUMPI DUP1 PUSH4 0x6352211E EQ PUSH2 0x2DF JUMPI DUP1 PUSH4 0x67E0E1AB EQ PUSH2 0x2F2 JUMPI DUP1 PUSH4 0x6B8FF574 EQ PUSH2 0x322 JUMPI DUP1 PUSH4 0x70A08231 EQ PUSH2 0x335 JUMPI PUSH1 0x0 DUP1 REVERT JUMPDEST DUP1 PUSH4 0x39B3D243 EQ PUSH2 0x29F JUMPI DUP1 PUSH4 0x42842E0E EQ PUSH2 0x2B2 JUMPI DUP1 PUSH4 0x4C0F38C2 EQ PUSH2 0x2C5 JUMPI DUP1 PUSH4 0x4F6CCCE7 EQ PUSH2 0x2CC JUMPI PUSH1 0x0 DUP1 REVERT JUMPDEST DUP1 PUSH4 0x95EA7B3 GT PUSH2 0x1C3 JUMPI DUP1 PUSH4 0x95EA7B3 EQ PUSH2 0x252 JUMPI DUP1 PUSH4 0x18160DDD EQ PUSH2 0x267 JUMPI DUP1 PUSH4 0x23B872DD EQ PUSH2 0x279 JUMPI DUP1 PUSH4 0x2F745C59 EQ PUSH2 0x28C JUMPI PUSH1 0x0 DUP1 REVERT JUMPDEST DUP1 PUSH4 0x1FFC9A7 EQ PUSH2 0x1EA JUMPI DUP1 PUSH4 0x6FDDE03 EQ PUSH2 0x212 JUMPI DUP1 PUSH4 0x81812FC EQ PUSH2 0x227 JUMPI JUMPDEST PUSH1 0x0 DUP1 REVERT JUMPDEST PUSH2 0x1FD PUSH2 0x1F8 CALLDATASIZE PUSH1 0x4 PUSH2 0x1639 JUMP JUMPDEST PUSH2 0x46B JUMP JUMPDEST PUSH1 0x40 MLOAD SWAP1 ISZERO ISZERO DUP2 MSTORE PUSH1 0x20 ADD JUMPDEST PUSH1 0x40 MLOAD DUP1 SWAP2 SUB SWAP1 RETURN JUMPDEST PUSH2 0x21A PUSH2 0x496 JUMP JUMPDEST PUSH1 0x40 MLOAD PUSH2 0x209 SWAP2 SWAP1 PUSH2 0x16A6 JUMP JUMPDEST PUSH2 0x23A PUSH2 0x235 CALLDATASIZE PUSH1 0x4 PUSH2 0x16B9 JUMP JUMPDEST PUSH2 0x528 JUMP JUMPDEST PUSH1 0x40 MLOAD PUSH1 0x1 PUSH1 0x1 PUSH1 0xA0 SHL SUB SWAP1 SWAP2 AND DUP2 MSTORE PUSH1 0x20 ADD PUSH2 0x209 JUMP JUMPDEST PUSH2 0x265 PUSH2 0x260 CALLDATASIZE PUSH1 0x4 PUSH2 0x16E7 JUMP JUMPDEST PUSH2 0x551 JUMP JUMPDEST STOP JUMPDEST PUSH1 0x8 SLOAD JUMPDEST PUSH1 0x40 MLOAD SWAP1 DUP2 MSTORE PUSH1 0x20 ADD PUSH2 0x209 JUMP JUMPDEST PUSH2 0x265 PUSH2 0x287 CALLDATASIZE PUSH1 0x4 PUSH2 0x1713 JUMP JUMPDEST PUSH2 0x560 JUMP JUMPDEST PUSH2 0x26B PUSH2 0x29A CALLDATASIZE PUSH1 0x4 PUSH2 0x16E7 JUMP JUMPDEST PUSH2 0x5F0 JUMP JUMPDEST PUSH2 0x265 PUSH2 0x2AD CALLDATASIZE PUSH1 0x4 PUSH2 0x1754 JUMP JUMPDEST PUSH2 0x655 JUMP JUMPDEST PUSH2 0x265 PUSH2 0x2C0 CALLDATASIZE PUSH1 0x4 PUSH2 0x1713 JUMP JUMPDEST PUSH2 0x6CF JUMP JUMPDEST PUSH1 0x64 PUSH2 0x26B JUMP JUMPDEST PUSH2 0x26B PUSH2 0x2DA CALLDATASIZE PUSH1 0x4 PUSH2 0x16B9 JUMP JUMPDEST PUSH2 0x6EF JUMP JUMPDEST PUSH2 0x23A PUSH2 0x2ED CALLDATASIZE PUSH1 0x4 PUSH2 0x16B9 JUMP JUMPDEST PUSH2 0x748 JUMP JUMPDEST PUSH2 0x265 PUSH2 0x300 CALLDATASIZE PUSH1 0x4 PUSH2 0x1754 JUMP JUMPDEST PUSH1 0xF DUP1 SLOAD PUSH1 0x1 PUSH1 0x1 PUSH1 0xA0 SHL SUB NOT AND PUSH1 0x1 PUSH1 0x1 PUSH1 0xA0 SHL SUB SWAP3 SWAP1 SWAP3 AND SWAP2 SWAP1 SWAP2 OR SWAP1 SSTORE JUMP JUMPDEST PUSH2 0x21A PUSH2 0x330 CALLDATASIZE PUSH1 0x4 PUSH2 0x16B9 JUMP JUMPDEST PUSH2 0x753 JUMP JUMPDEST PUSH2 0x26B PUSH2 0x343 CALLDATASIZE PUSH1 0x4 PUSH2 0x1754 JUMP JUMPDEST PUSH2 0x7E7 JUMP JUMPDEST PUSH1 0xD SLOAD PUSH1 0x1 PUSH1 0x1 PUSH1 0xA0 SHL SUB AND PUSH2 0x23A JUMP JUMPDEST PUSH2 0x265 PUSH2 0x82F JUMP JUMPDEST PUSH1 0x10 SLOAD PUSH2 0x23A SWAP1 PUSH1 0x1 PUSH1 0x1 PUSH1 0xA0 SHL SUB AND DUP2 JUMP JUMPDEST PUSH2 0x21A PUSH2 0x8C1 JUMP JUMPDEST PUSH1 0xF SLOAD PUSH2 0x23A SWAP1 PUSH1 0x1 PUSH1 0x1 PUSH1 0xA0 SHL SUB AND DUP2 JUMP JUMPDEST PUSH2 0x265 PUSH2 0x39D CALLDATASIZE PUSH1 0x4 PUSH2 0x1771 JUMP JUMPDEST PUSH2 0x8D0 JUMP JUMPDEST PUSH2 0x23A PUSH2 0x8DB JUMP JUMPDEST PUSH2 0x26B PUSH2 0x3B8 CALLDATASIZE PUSH1 0x4 PUSH2 0x17F8 JUMP JUMPDEST PUSH2 0x8F4 JUMP JUMPDEST PUSH2 0x265 PUSH2 0x3CB CALLDATASIZE PUSH1 0x4 PUSH2 0x18BC JUMP JUMPDEST PUSH2 0x95C JUMP JUMPDEST PUSH2 0x265 PUSH2 0x3DE CALLDATASIZE PUSH1 0x4 PUSH2 0x1754 JUMP JUMPDEST PUSH2 0x973 JUMP JUMPDEST PUSH2 0x23A PUSH2 0x3F1 CALLDATASIZE PUSH1 0x4 PUSH2 0x16B9 JUMP JUMPDEST PUSH1 0x0 SWAP1 DUP2 MSTORE PUSH1 0xC PUSH1 0x20 MSTORE PUSH1 0x40 SWAP1 KECCAK256 SLOAD PUSH1 0x1 PUSH1 0x1 PUSH1 0xA0 SHL SUB AND SWAP1 JUMP JUMPDEST PUSH2 0x21A PUSH2 0x41A CALLDATASIZE PUSH1 0x4 PUSH2 0x16B9 JUMP JUMPDEST PUSH2 0xA67 JUMP JUMPDEST PUSH2 0x21A PUSH2 0x42D CALLDATASIZE PUSH1 0x4 PUSH2 0x16B9 JUMP JUMPDEST PUSH2 0xB68 JUMP JUMPDEST PUSH2 0x265 PUSH2 0x440 CALLDATASIZE PUSH1 0x4 PUSH2 0x196B JUMP JUMPDEST PUSH2 0xB73 JUMP JUMPDEST PUSH2 0x1FD PUSH2 0x453 CALLDATASIZE PUSH1 0x4 PUSH2 0x1990 JUMP JUMPDEST PUSH2 0xC38 JUMP JUMPDEST PUSH2 0x265 PUSH2 0x466 CALLDATASIZE PUSH1 0x4 PUSH2 0x19BE JUMP JUMPDEST PUSH2 0xC66 JUMP JUMPDEST PUSH1 0x0 PUSH1 0x1 PUSH1 0x1 PUSH1 0xE0 SHL SUB NOT DUP3 AND PUSH4 0x973BEE4B PUSH1 0xE0 SHL EQ DUP1 PUSH2 0x490 JUMPI POP PUSH2 0x490 DUP3 PUSH2 0xC6F JUMP JUMPDEST SWAP3 SWAP2 POP POP JUMP JUMPDEST PUSH1 0x60 PUSH1 0x0 DUP1 SLOAD PUSH2 0x4A5 SWAP1 PUSH2 0x19F1 JUMP JUMPDEST DUP1 PUSH1 0x1F ADD PUSH1 0x20 DUP1 SWAP2 DIV MUL PUSH1 0x20 ADD PUSH1 0x40 MLOAD SWAP1 DUP2 ADD PUSH1 0x40 MSTORE DUP1 SWAP3 SWAP2 SWAP1 DUP2 DUP2 MSTORE PUSH1 0x20 ADD DUP3 DUP1 SLOAD PUSH2 0x4D1 SWAP1 PUSH2 0x19F1 JUMP JUMPDEST DUP1 ISZERO PUSH2 0x51E JUMPI DUP1 PUSH1 0x1F LT PUSH2 0x4F3 JUMPI PUSH2 0x100 DUP1 DUP4 SLOAD DIV MUL DUP4 MSTORE SWAP2 PUSH1 0x20 ADD SWAP2 PUSH2 0x51E JUMP JUMPDEST DUP3 ADD SWAP2 SWAP1 PUSH1 0x0 MSTORE PUSH1 0x20 PUSH1 0x0 KECCAK256 SWAP1 JUMPDEST DUP2 SLOAD DUP2 MSTORE SWAP1 PUSH1 0x1 ADD SWAP1 PUSH1 0x20 ADD DUP1 DUP4 GT PUSH2 0x501 JUMPI DUP3 SWAP1 SUB PUSH1 0x1F AND DUP3 ADD SWAP2 JUMPDEST POP POP POP POP POP SWAP1 POP SWAP1 JUMP JUMPDEST PUSH1 0x0 PUSH2 0x533 DUP3 PUSH2 0xC94 JUMP JUMPDEST POP PUSH1 0x0 DUP3 DUP2 MSTORE PUSH1 0x4 PUSH1 0x20 MSTORE PUSH1 0x40 SWAP1 KECCAK256 SLOAD PUSH1 0x1 PUSH1 0x1 PUSH1 0xA0 SHL SUB AND PUSH2 0x490 JUMP JUMPDEST PUSH2 0x55C DUP3 DUP3 CALLER PUSH2 0xCCD JUMP JUMPDEST POP POP JUMP JUMPDEST PUSH1 0x1 PUSH1 0x1 PUSH1 0xA0 SHL SUB DUP3 AND PUSH2 0x58F JUMPI PUSH1 0x40 MLOAD PUSH4 0x32505749 PUSH1 0xE1 SHL DUP2 MSTORE PUSH1 0x0 PUSH1 0x4 DUP3 ADD MSTORE PUSH1 0x24 ADD JUMPDEST PUSH1 0x40 MLOAD DUP1 SWAP2 SUB SWAP1 REVERT JUMPDEST PUSH1 0x0 PUSH2 0x59C DUP4 DUP4 CALLER PUSH2 0xCDA JUMP JUMPDEST SWAP1 POP DUP4 PUSH1 0x1 PUSH1 0x1 PUSH1 0xA0 SHL SUB AND DUP2 PUSH1 0x1 PUSH1 0x1 PUSH1 0xA0 SHL SUB AND EQ PUSH2 0x5EA JUMPI PUSH1 0x40 MLOAD PUSH4 0x64283D7B PUSH1 0xE0 SHL DUP2 MSTORE PUSH1 0x1 PUSH1 0x1 PUSH1 0xA0 SHL SUB DUP1 DUP7 AND PUSH1 0x4 DUP4 ADD MSTORE PUSH1 0x24 DUP3 ADD DUP5 SWAP1 MSTORE DUP3 AND PUSH1 0x44 DUP3 ADD MSTORE PUSH1 0x64 ADD PUSH2 0x586 JUMP JUMPDEST POP POP POP POP JUMP JUMPDEST PUSH1 0x0 PUSH2 0x5FB DUP4 PUSH2 0x7E7 JUMP JUMPDEST DUP3 LT PUSH2 0x62C JUMPI PUSH1 0x40 MLOAD PUSH4 0x295F44F7 PUSH1 0xE2 SHL DUP2 MSTORE PUSH1 0x1 PUSH1 0x1 PUSH1 0xA0 SHL SUB DUP5 AND PUSH1 0x4 DUP3 ADD MSTORE PUSH1 0x24 DUP2 ADD DUP4 SWAP1 MSTORE PUSH1 0x44 ADD PUSH2 0x586 JUMP JUMPDEST POP PUSH1 0x1 PUSH1 0x1 PUSH1 0xA0 SHL SUB SWAP2 SWAP1 SWAP2 AND PUSH1 0x0 SWAP1 DUP2 MSTORE PUSH1 0x6 PUSH1 0x20 SWAP1 DUP2 MSTORE PUSH1 0x40 DUP1 DUP4 KECCAK256 SWAP4 DUP4 MSTORE SWAP3 SWAP1 MSTORE KECCAK256 SLOAD SWAP1 JUMP JUMPDEST PUSH1 0x0 PUSH2 0x669 PUSH1 0xE SLOAD PUSH1 0x1 PUSH1 0x1 PUSH1 0xA0 SHL SUB AND SWAP1 JUMP JUMPDEST PUSH1 0x1 PUSH1 0x1 PUSH1 0xA0 SHL SUB AND EQ PUSH2 0x6AD JUMPI PUSH1 0x40 MLOAD PUSH3 0x461BCD PUSH1 0xE5 SHL DUP2 MSTORE PUSH1 0x20 PUSH1 0x4 DUP3 ADD MSTORE PUSH1 0xB PUSH1 0x24 DUP3 ADD MSTORE PUSH11 0x185B1C9958591E481CD95D PUSH1 0xAA SHL PUSH1 0x44 DUP3 ADD MSTORE PUSH1 0x64 ADD PUSH2 0x586 JUMP JUMPDEST PUSH1 0xE DUP1 SLOAD PUSH1 0x1 PUSH1 0x1 PUSH1 0xA0 SHL SUB NOT AND PUSH1 0x1 PUSH1 0x1 PUSH1 0xA0 SHL SUB SWAP3 SWAP1 SWAP3 AND SWAP2 SWAP1 SWAP2 OR SWAP1 SSTORE JUMP JUMPDEST PUSH2 0x6EA DUP4 DUP4 DUP4 PUSH1 0x40 MLOAD DUP1 PUSH1 0x20 ADD PUSH1 0x40 MSTORE DUP1 PUSH1 0x0 DUP2 MSTORE POP PUSH2 0x95C JUMP JUMPDEST POP POP POP JUMP JUMPDEST PUSH1 0x0 PUSH2 0x6FA PUSH1 0x8 SLOAD SWAP1 JUMP JUMPDEST DUP3 LT PUSH2 0x723 JUMPI PUSH1 0x40 MLOAD PUSH4 0x295F44F7 PUSH1 0xE2 SHL DUP2 MSTORE PUSH1 0x0 PUSH1 0x4 DUP3 ADD MSTORE PUSH1 0x24 DUP2 ADD DUP4 SWAP1 MSTORE PUSH1 0x44 ADD PUSH2 0x586 JUMP JUMPDEST PUSH1 0x8 DUP3 DUP2 SLOAD DUP2 LT PUSH2 0x736 JUMPI PUSH2 0x736 PUSH2 0x1A2B JUMP JUMPDEST SWAP1 PUSH1 0x0 MSTORE PUSH1 0x20 PUSH1 0x0 KECCAK256 ADD SLOAD SWAP1 POP SWAP2 SWAP1 POP JUMP JUMPDEST PUSH1 0x0 PUSH2 0x490 DUP3 PUSH2 0xC94 JUMP JUMPDEST PUSH1 0x60 PUSH1 0xA DUP1 SLOAD PUSH2 0x762 SWAP1 PUSH2 0x19F1 JUMP JUMPDEST DUP1 PUSH1 0x1F ADD PUSH1 0x20 DUP1 SWAP2 DIV MUL PUSH1 0x20 ADD PUSH1 0x40 MLOAD SWAP1 DUP2 ADD PUSH1 0x40 MSTORE DUP1 SWAP3 SWAP2 SWAP1 DUP2 DUP2 MSTORE PUSH1 0x20 ADD DUP3 DUP1 SLOAD PUSH2 0x78E SWAP1 PUSH2 0x19F1 JUMP JUMPDEST DUP1 ISZERO PUSH2 0x7DB JUMPI DUP1 PUSH1 0x1F LT PUSH2 0x7B0 JUMPI PUSH2 0x100 DUP1 DUP4 SLOAD DIV MUL DUP4 MSTORE SWAP2 PUSH1 0x20 ADD SWAP2 PUSH2 0x7DB JUMP JUMPDEST DUP3 ADD SWAP2 SWAP1 PUSH1 0x0 MSTORE PUSH1 0x20 PUSH1 0x0 KECCAK256 SWAP1 JUMPDEST DUP2 SLOAD DUP2 MSTORE SWAP1 PUSH1 0x1 ADD SWAP1 PUSH1 0x20 ADD DUP1 DUP4 GT PUSH2 0x7BE JUMPI DUP3 SWAP1 SUB PUSH1 0x1F AND DUP3 ADD SWAP2 JUMPDEST POP POP POP POP POP SWAP1 POP SWAP2 SWAP1 POP JUMP JUMPDEST PUSH1 0x0 PUSH1 0x1 PUSH1 0x1 PUSH1 0xA0 SHL SUB DUP3 AND PUSH2 0x813 JUMPI PUSH1 0x40 MLOAD PUSH4 0x22718AD9 PUSH1 0xE2 SHL DUP2 MSTORE PUSH1 0x0 PUSH1 0x4 DUP3 ADD MSTORE PUSH1 0x24 ADD PUSH2 0x586 JUMP JUMPDEST POP PUSH1 0x1 PUSH1 0x1 PUSH1 0xA0 SHL SUB AND PUSH1 0x0 SWAP1 DUP2 MSTORE PUSH1 0x3 PUSH1 0x20 MSTORE PUSH1 0x40 SWAP1 KECCAK256 SLOAD SWAP1 JUMP JUMPDEST PUSH1 0xF SLOAD PUSH1 0x40 DUP1 MLOAD PUSH4 0x1127A41D PUSH1 0xE3 SHL DUP2 MSTORE SWAP1 MLOAD PUSH1 0x1 PUSH1 0x1 PUSH1 0xA0 SHL SUB SWAP1 SWAP3 AND SWAP2 DUP3 SWAP2 PUSH4 0x893D20E8 SWAP2 PUSH1 0x4 DUP1 DUP4 ADD SWAP3 PUSH1 0x20 SWAP3 SWAP2 SWAP1 DUP3 SWAP1 SUB ADD DUP2 DUP7 GAS STATICCALL ISZERO DUP1 ISZERO PUSH2 0x87A JUMPI RETURNDATASIZE PUSH1 0x0 DUP1 RETURNDATACOPY RETURNDATASIZE PUSH1 0x0 REVERT JUMPDEST POP POP POP POP PUSH1 0x40 MLOAD RETURNDATASIZE PUSH1 0x1F NOT PUSH1 0x1F DUP3 ADD AND DUP3 ADD DUP1 PUSH1 0x40 MSTORE POP DUP2 ADD SWAP1 PUSH2 0x89E SWAP2 SWAP1 PUSH2 0x1A41 JUMP JUMPDEST PUSH1 0x10 DUP1 SLOAD PUSH1 0x1 PUSH1 0x1 PUSH1 0xA0 SHL SUB NOT AND PUSH1 0x1 PUSH1 0x1 PUSH1 0xA0 SHL SUB SWAP3 SWAP1 SWAP3 AND SWAP2 SWAP1 SWAP2 OR SWAP1 SSTORE POP JUMP JUMPDEST PUSH1 0x60 PUSH1 0x1 DUP1 SLOAD PUSH2 0x4A5 SWAP1 PUSH2 0x19F1 JUMP JUMPDEST PUSH2 0x55C CALLER DUP4 DUP4 PUSH2 0xDA7 JUMP JUMPDEST PUSH1 0x0 PUSH2 0x8EF PUSH1 0xE SLOAD PUSH1 0x1 PUSH1 0x1 PUSH1 0xA0 SHL SUB AND SWAP1 JUMP JUMPDEST SWAP1 POP SWAP1 JUMP JUMPDEST PUSH1 0x0 PUSH1 0x64 PUSH1 0x8 SLOAD LT PUSH2 0x93D JUMPI PUSH1 0x40 MLOAD PUSH3 0x461BCD PUSH1 0xE5 SHL DUP2 MSTORE PUSH1 0x20 PUSH1 0x4 DUP3 ADD MSTORE PUSH1 0x12 PUSH1 0x24 DUP3 ADD MSTORE PUSH18 0x1B585E081CDD5C1C1B1E481C995858DA1959 PUSH1 0x72 SHL PUSH1 0x44 DUP3 ADD MSTORE PUSH1 0x64 ADD PUSH2 0x586 JUMP JUMPDEST PUSH2 0x949 DUP3 DUP5 ADD DUP5 PUSH2 0x16B9 JUMP JUMPDEST SWAP1 POP PUSH2 0x955 DUP5 DUP3 PUSH2 0xE46 JUMP JUMPDEST SWAP4 SWAP3 POP POP POP JUMP JUMPDEST PUSH2 0x967 DUP5 DUP5 DUP5 PUSH2 0x560 JUMP JUMPDEST PUSH2 0x5EA DUP5 DUP5 DUP5 DUP5 PUSH2 0xEAB JUMP JUMPDEST PUSH1 0x10 SLOAD PUSH1 0x1 PUSH1 0x1 PUSH1 0xA0 SHL SUB AND CALLER EQ PUSH2 0x9DB JUMPI PUSH1 0x40 MLOAD PUSH3 0x461BCD PUSH1 0xE5 SHL DUP2 MSTORE PUSH1 0x20 PUSH1 0x4 DUP3 ADD MSTORE PUSH1 0x25 PUSH1 0x24 DUP3 ADD MSTORE PUSH32 0x4F6E6C7920746865206F776E65722063616E2063616C6C20746869732066756E PUSH1 0x44 DUP3 ADD MSTORE PUSH5 0x31BA34B7B7 PUSH1 0xD9 SHL PUSH1 0x64 DUP3 ADD MSTORE PUSH1 0x84 ADD PUSH2 0x586 JUMP JUMPDEST PUSH1 0x1 PUSH1 0x1 PUSH1 0xA0 SHL SUB DUP2 AND PUSH2 0xA0D JUMPI PUSH1 0x40 MLOAD PUSH4 0x2B58E821 PUSH1 0xE2 SHL DUP2 MSTORE PUSH1 0x1 PUSH1 0x1 PUSH1 0xA0 SHL SUB DUP3 AND PUSH1 0x4 DUP3 ADD MSTORE PUSH1 0x24 ADD PUSH2 0x586 JUMP JUMPDEST PUSH1 0xD DUP1 SLOAD PUSH1 0x1 PUSH1 0x1 PUSH1 0xA0 SHL SUB DUP4 DUP2 AND PUSH1 0x1 PUSH1 0x1 PUSH1 0xA0 SHL SUB NOT DUP4 AND DUP2 OR SWAP1 SWAP4 SSTORE PUSH1 0x40 MLOAD SWAP2 AND DUP1 DUP3 MSTORE SWAP2 SWAP1 PUSH32 0xCEE9B4B221997E942679D9D57D8C171984DCA4BC5FF74D92711200AC3D232E3E SWAP1 PUSH1 0x20 ADD PUSH1 0x40 MLOAD DUP1 SWAP2 SUB SWAP1 LOG2 POP POP JUMP JUMPDEST PUSH1 0x0 DUP2 DUP2 MSTORE PUSH1 0x2 PUSH1 0x20 MSTORE PUSH1 0x40 SWAP1 KECCAK256 SLOAD PUSH1 0x60 SWAP1 PUSH1 0x1 PUSH1 0x1 PUSH1 0xA0 SHL SUB AND DUP1 PUSH2 0xAA3 JUMPI PUSH1 0x40 MLOAD PUSH4 0x230D897D PUSH1 0xE2 SHL DUP2 MSTORE PUSH1 0x4 DUP2 ADD DUP5 SWAP1 MSTORE PUSH1 0x24 ADD PUSH2 0x586 JUMP JUMPDEST PUSH1 0x0 DUP4 DUP2 MSTORE PUSH1 0xC PUSH1 0x20 MSTORE PUSH1 0x40 SWAP1 KECCAK256 SLOAD PUSH1 0x1 PUSH1 0x1 PUSH1 0xA0 SHL SUB AND DUP1 ISZERO PUSH2 0xB37 JUMPI PUSH1 0x40 MLOAD PUSH4 0x30C84463 PUSH1 0xE2 SHL DUP2 MSTORE PUSH1 0x4 DUP2 ADD DUP6 SWAP1 MSTORE PUSH1 0x1 PUSH1 0x1 PUSH1 0xA0 SHL SUB DUP3 AND SWAP1 PUSH4 0xC321118C SWAP1 PUSH1 0x24 ADD JUMPDEST PUSH1 0x0 PUSH1 0x40 MLOAD DUP1 DUP4 SUB DUP2 DUP7 GAS STATICCALL ISZERO DUP1 ISZERO PUSH2 0xB07 JUMPI RETURNDATASIZE PUSH1 0x0 DUP1 RETURNDATACOPY RETURNDATASIZE PUSH1 0x0 REVERT JUMPDEST POP POP POP POP PUSH1 0x40 MLOAD RETURNDATASIZE PUSH1 0x0 DUP3 RETURNDATACOPY PUSH1 0x1F RETURNDATASIZE SWAP1 DUP2 ADD PUSH1 0x1F NOT AND DUP3 ADD PUSH1 0x40 MSTORE PUSH2 0xB2F SWAP2 SWAP1 DUP2 ADD SWAP1 PUSH2 0x1A5E JUMP JUMPDEST SWAP5 SWAP4 POP POP POP POP JUMP JUMPDEST PUSH1 0xD SLOAD PUSH1 0x40 MLOAD PUSH4 0x30C84463 PUSH1 0xE2 SHL DUP2 MSTORE PUSH1 0x4 DUP2 ADD DUP7 SWAP1 MSTORE PUSH1 0x1 PUSH1 0x1 PUSH1 0xA0 SHL SUB SWAP1 SWAP2 AND SWAP1 PUSH4 0xC321118C SWAP1 PUSH1 0x24 ADD PUSH2 0xAEA JUMP JUMPDEST PUSH1 0x60 PUSH2 0x490 DUP3 PUSH2 0xFD4 JUMP JUMPDEST PUSH1 0x0 DUP3 DUP2 MSTORE PUSH1 0x2 PUSH1 0x20 MSTORE PUSH1 0x40 SWAP1 KECCAK256 SLOAD PUSH1 0x1 PUSH1 0x1 PUSH1 0xA0 SHL SUB AND DUP1 PUSH2 0xBAC JUMPI PUSH1 0x40 MLOAD PUSH4 0x230D897D PUSH1 0xE2 SHL DUP2 MSTORE PUSH1 0x4 DUP2 ADD DUP5 SWAP1 MSTORE PUSH1 0x24 ADD PUSH2 0x586 JUMP JUMPDEST PUSH1 0x1 PUSH1 0x1 PUSH1 0xA0 SHL SUB DUP3 AND PUSH2 0xBDE JUMPI PUSH1 0x40 MLOAD PUSH4 0x2B58E821 PUSH1 0xE2 SHL DUP2 MSTORE PUSH1 0x1 PUSH1 0x1 PUSH1 0xA0 SHL SUB DUP4 AND PUSH1 0x4 DUP3 ADD MSTORE PUSH1 0x24 ADD PUSH2 0x586 JUMP JUMPDEST PUSH1 0x0 DUP4 DUP2 MSTORE PUSH1 0xC PUSH1 0x20 MSTORE PUSH1 0x40 DUP1 DUP3 KECCAK256 DUP1 SLOAD PUSH1 0x1 PUSH1 0x1 PUSH1 0xA0 SHL SUB NOT AND PUSH1 0x1 PUSH1 0x1 PUSH1 0xA0 SHL SUB DUP7 AND SWAP1 DUP2 OR SWAP1 SWAP2 SSTORE SWAP1 MLOAD SWAP1 SWAP2 DUP6 SWAP2 PUSH32 0x87EE21445DB73FC31D1912380E621AD53034D6C810353610B23E349B7143A5A9 SWAP2 SWAP1 LOG3 POP POP POP JUMP JUMPDEST PUSH1 0x1 PUSH1 0x1 PUSH1 0xA0 SHL SUB SWAP2 DUP3 AND PUSH1 0x0 SWAP1 DUP2 MSTORE PUSH1 0x5 PUSH1 0x20 SWAP1 DUP2 MSTORE PUSH1 0x40 DUP1 DUP4 KECCAK256 SWAP4 SWAP1 SWAP5 AND DUP3 MSTORE SWAP2 SWAP1 SWAP2 MSTORE KECCAK256 SLOAD PUSH1 0xFF AND SWAP1 JUMP JUMPDEST PUSH2 0x6EA DUP4 PUSH2 0x1067 JUMP JUMPDEST PUSH1 0x0 PUSH1 0x1 PUSH1 0x1 PUSH1 0xE0 SHL SUB NOT DUP3 AND PUSH4 0x780E9D63 PUSH1 0xE0 SHL EQ DUP1 PUSH2 0x490 JUMPI POP PUSH2 0x490 DUP3 PUSH2 0x10A2 JUMP JUMPDEST PUSH1 0x0 DUP2 DUP2 MSTORE PUSH1 0x2 PUSH1 0x20 MSTORE PUSH1 0x40 DUP2 KECCAK256 SLOAD PUSH1 0x1 PUSH1 0x1 PUSH1 0xA0 SHL SUB AND DUP1 PUSH2 0x490 JUMPI PUSH1 0x40 MLOAD PUSH4 0x7E273289 PUSH1 0xE0 SHL DUP2 MSTORE PUSH1 0x4 DUP2 ADD DUP5 SWAP1 MSTORE PUSH1 0x24 ADD PUSH2 0x586 JUMP JUMPDEST PUSH2 0x6EA DUP4 DUP4 DUP4 PUSH1 0x1 PUSH2 0x10F2 JUMP JUMPDEST PUSH1 0x0 DUP1 PUSH2 0xCE8 DUP6 DUP6 DUP6 PUSH2 0x11F8 JUMP JUMPDEST SWAP1 POP PUSH1 0x1 PUSH1 0x1 PUSH1 0xA0 SHL SUB DUP2 AND PUSH2 0xD45 JUMPI PUSH2 0xD40 DUP5 PUSH1 0x8 DUP1 SLOAD PUSH1 0x0 DUP4 DUP2 MSTORE PUSH1 0x9 PUSH1 0x20 MSTORE PUSH1 0x40 DUP2 KECCAK256 DUP3 SWAP1 SSTORE PUSH1 0x1 DUP3 ADD DUP4 SSTORE SWAP2 SWAP1 SWAP2 MSTORE PUSH32 0xF3F7A9FE364FAAB93B216DA50A3214154F22A0A2B415B23A84C8169E8B636EE3 ADD SSTORE JUMP JUMPDEST PUSH2 0xD68 JUMP JUMPDEST DUP5 PUSH1 0x1 PUSH1 0x1 PUSH1 0xA0 SHL SUB AND DUP2 PUSH1 0x1 PUSH1 0x1 PUSH1 0xA0 SHL SUB AND EQ PUSH2 0xD68 JUMPI PUSH2 0xD68 DUP2 DUP6 PUSH2 0x12F1 JUMP JUMPDEST PUSH1 0x1 PUSH1 0x1 PUSH1 0xA0 SHL SUB DUP6 AND PUSH2 0xD84 JUMPI PUSH2 0xD7F DUP5 PUSH2 0x1382 JUMP JUMPDEST PUSH2 0xB2F JUMP JUMPDEST DUP5 PUSH1 0x1 PUSH1 0x1 PUSH1 0xA0 SHL SUB AND DUP2 PUSH1 0x1 PUSH1 0x1 PUSH1 0xA0 SHL SUB AND EQ PUSH2 0xB2F JUMPI PUSH2 0xB2F DUP6 DUP6 PUSH2 0x1431 JUMP JUMPDEST PUSH1 0x1 PUSH1 0x1 PUSH1 0xA0 SHL SUB DUP3 AND PUSH2 0xDD9 JUMPI PUSH1 0x40 MLOAD PUSH4 0xB611743 PUSH1 0xE3 SHL DUP2 MSTORE PUSH1 0x1 PUSH1 0x1 PUSH1 0xA0 SHL SUB DUP4 AND PUSH1 0x4 DUP3 ADD MSTORE PUSH1 0x24 ADD PUSH2 0x586 JUMP JUMPDEST PUSH1 0x1 PUSH1 0x1 PUSH1 0xA0 SHL SUB DUP4 DUP2 AND PUSH1 0x0 DUP2 DUP2 MSTORE PUSH1 0x5 PUSH1 0x20 SWAP1 DUP2 MSTORE PUSH1 0x40 DUP1 DUP4 KECCAK256 SWAP5 DUP8 AND DUP1 DUP5 MSTORE SWAP5 DUP3 MSTORE SWAP2 DUP3 SWAP1 KECCAK256 DUP1 SLOAD PUSH1 0xFF NOT AND DUP7 ISZERO ISZERO SWAP1 DUP2 OR SWAP1 SWAP2 SSTORE SWAP2 MLOAD SWAP2 DUP3 MSTORE PUSH32 0x17307EAB39AB6107E8899845AD3D59BD9653F200F220920489CA2B5937696C31 SWAP2 ADD PUSH1 0x40 MLOAD DUP1 SWAP2 SUB SWAP1 LOG3 POP POP POP JUMP JUMPDEST PUSH1 0x1 PUSH1 0x1 PUSH1 0xA0 SHL SUB DUP3 AND PUSH2 0xE70 JUMPI PUSH1 0x40 MLOAD PUSH4 0x32505749 PUSH1 0xE1 SHL DUP2 MSTORE PUSH1 0x0 PUSH1 0x4 DUP3 ADD MSTORE PUSH1 0x24 ADD PUSH2 0x586 JUMP JUMPDEST PUSH1 0x0 PUSH2 0xE7E DUP4 DUP4 PUSH1 0x0 PUSH2 0xCDA JUMP JUMPDEST SWAP1 POP PUSH1 0x1 PUSH1 0x1 PUSH1 0xA0 SHL SUB DUP2 AND ISZERO PUSH2 0x6EA JUMPI PUSH1 0x40 MLOAD PUSH4 0x39E35637 PUSH1 0xE1 SHL DUP2 MSTORE PUSH1 0x0 PUSH1 0x4 DUP3 ADD MSTORE PUSH1 0x24 ADD PUSH2 0x586 JUMP JUMPDEST PUSH1 0x1 PUSH1 0x1 PUSH1 0xA0 SHL SUB DUP4 AND EXTCODESIZE ISZERO PUSH2 0x5EA JUMPI PUSH1 0x40 MLOAD PUSH4 0xA85BD01 PUSH1 0xE1 SHL DUP2 MSTORE PUSH1 0x1 PUSH1 0x1 PUSH1 0xA0 SHL SUB DUP5 AND SWAP1 PUSH4 0x150B7A02 SWAP1 PUSH2 0xEED SWAP1 CALLER SWAP1 DUP9 SWAP1 DUP8 SWAP1 DUP8 SWAP1 PUSH1 0x4 ADD PUSH2 0x1AD5 JUMP JUMPDEST PUSH1 0x20 PUSH1 0x40 MLOAD DUP1 DUP4 SUB DUP2 PUSH1 0x0 DUP8 GAS CALL SWAP3 POP POP POP DUP1 ISZERO PUSH2 0xF28 JUMPI POP PUSH1 0x40 DUP1 MLOAD PUSH1 0x1F RETURNDATASIZE SWAP1 DUP2 ADD PUSH1 0x1F NOT AND DUP3 ADD SWAP1 SWAP3 MSTORE PUSH2 0xF25 SWAP2 DUP2 ADD SWAP1 PUSH2 0x1B12 JUMP JUMPDEST PUSH1 0x1 JUMPDEST PUSH2 0xF91 JUMPI RETURNDATASIZE DUP1 DUP1 ISZERO PUSH2 0xF56 JUMPI PUSH1 0x40 MLOAD SWAP2 POP PUSH1 0x1F NOT PUSH1 0x3F RETURNDATASIZE ADD AND DUP3 ADD PUSH1 0x40 MSTORE RETURNDATASIZE DUP3 MSTORE RETURNDATASIZE PUSH1 0x0 PUSH1 0x20 DUP5 ADD RETURNDATACOPY PUSH2 0xF5B JUMP JUMPDEST PUSH1 0x60 SWAP2 POP JUMPDEST POP DUP1 MLOAD PUSH1 0x0 SUB PUSH2 0xF89 JUMPI PUSH1 0x40 MLOAD PUSH4 0x32505749 PUSH1 0xE1 SHL DUP2 MSTORE PUSH1 0x1 PUSH1 0x1 PUSH1 0xA0 SHL SUB DUP6 AND PUSH1 0x4 DUP3 ADD MSTORE PUSH1 0x24 ADD PUSH2 0x586 JUMP JUMPDEST DUP1 MLOAD DUP2 PUSH1 0x20 ADD REVERT JUMPDEST PUSH1 0x1 PUSH1 0x1 PUSH1 0xE0 SHL SUB NOT DUP2 AND PUSH4 0xA85BD01 PUSH1 0xE1 SHL EQ PUSH2 0xFCD JUMPI PUSH1 0x40 MLOAD PUSH4 0x32505749 PUSH1 0xE1 SHL DUP2 MSTORE PUSH1 0x1 PUSH1 0x1 PUSH1 0xA0 SHL SUB DUP6 AND PUSH1 0x4 DUP3 ADD MSTORE PUSH1 0x24 ADD PUSH2 0x586 JUMP JUMPDEST POP POP POP POP POP JUMP JUMPDEST PUSH1 0x60 PUSH1 0x0 PUSH2 0xFE1 DUP4 PUSH2 0x1481 JUMP JUMPDEST PUSH1 0x1 ADD SWAP1 POP PUSH1 0x0 DUP2 PUSH8 0xFFFFFFFFFFFFFFFF DUP2 GT ISZERO PUSH2 0x1001 JUMPI PUSH2 0x1001 PUSH2 0x184D JUMP JUMPDEST PUSH1 0x40 MLOAD SWAP1 DUP1 DUP3 MSTORE DUP1 PUSH1 0x1F ADD PUSH1 0x1F NOT AND PUSH1 0x20 ADD DUP3 ADD PUSH1 0x40 MSTORE DUP1 ISZERO PUSH2 0x102B JUMPI PUSH1 0x20 DUP3 ADD DUP2 DUP1 CALLDATASIZE DUP4 CALLDATACOPY ADD SWAP1 POP JUMPDEST POP SWAP1 POP DUP2 DUP2 ADD PUSH1 0x20 ADD JUMPDEST PUSH1 0x0 NOT ADD PUSH16 0x181899199A1A9B1B9C1CB0B131B232B3 PUSH1 0x81 SHL PUSH1 0xA DUP7 MOD BYTE DUP2 MSTORE8 PUSH1 0xA DUP6 DIV SWAP5 POP DUP5 PUSH2 0x1035 JUMPI POP SWAP4 SWAP3 POP POP POP JUMP JUMPDEST PUSH1 0x0 PUSH2 0x1076 PUSH1 0x0 DUP4 PUSH1 0x0 PUSH2 0xCDA JUMP JUMPDEST SWAP1 POP PUSH1 0x1 PUSH1 0x1 PUSH1 0xA0 SHL SUB DUP2 AND PUSH2 0x55C JUMPI PUSH1 0x40 MLOAD PUSH4 0x7E273289 PUSH1 0xE0 SHL DUP2 MSTORE PUSH1 0x4 DUP2 ADD DUP4 SWAP1 MSTORE PUSH1 0x24 ADD PUSH2 0x586 JUMP JUMPDEST PUSH1 0x0 PUSH1 0x1 PUSH1 0x1 PUSH1 0xE0 SHL SUB NOT DUP3 AND PUSH4 0x80AC58CD PUSH1 0xE0 SHL EQ DUP1 PUSH2 0x10D3 JUMPI POP PUSH1 0x1 PUSH1 0x1 PUSH1 0xE0 SHL SUB NOT DUP3 AND PUSH4 0x5B5E139F PUSH1 0xE0 SHL EQ JUMPDEST DUP1 PUSH2 0x490 JUMPI POP PUSH4 0x1FFC9A7 PUSH1 0xE0 SHL PUSH1 0x1 PUSH1 0x1 PUSH1 0xE0 SHL SUB NOT DUP4 AND EQ PUSH2 0x490 JUMP JUMPDEST DUP1 DUP1 PUSH2 0x1106 JUMPI POP PUSH1 0x1 PUSH1 0x1 PUSH1 0xA0 SHL SUB DUP3 AND ISZERO ISZERO JUMPDEST ISZERO PUSH2 0x11C8 JUMPI PUSH1 0x0 PUSH2 0x1116 DUP5 PUSH2 0xC94 JUMP JUMPDEST SWAP1 POP PUSH1 0x1 PUSH1 0x1 PUSH1 0xA0 SHL SUB DUP4 AND ISZERO DUP1 ISZERO SWAP1 PUSH2 0x1142 JUMPI POP DUP3 PUSH1 0x1 PUSH1 0x1 PUSH1 0xA0 SHL SUB AND DUP2 PUSH1 0x1 PUSH1 0x1 PUSH1 0xA0 SHL SUB AND EQ ISZERO JUMPDEST DUP1 ISZERO PUSH2 0x1155 JUMPI POP PUSH2 0x1153 DUP2 DUP5 PUSH2 0xC38 JUMP JUMPDEST ISZERO JUMPDEST ISZERO PUSH2 0x117E JUMPI PUSH1 0x40 MLOAD PUSH4 0xA9FBF51F PUSH1 0xE0 SHL DUP2 MSTORE PUSH1 0x1 PUSH1 0x1 PUSH1 0xA0 SHL SUB DUP5 AND PUSH1 0x4 DUP3 ADD MSTORE PUSH1 0x24 ADD PUSH2 0x586 JUMP JUMPDEST DUP2 ISZERO PUSH2 0x11C6 JUMPI DUP4 DUP6 PUSH1 0x1 PUSH1 0x1 PUSH1 0xA0 SHL SUB AND DUP3 PUSH1 0x1 PUSH1 0x1 PUSH1 0xA0 SHL SUB AND PUSH32 0x8C5BE1E5EBEC7D5BD14F71427D1E84F3DD0314C0F7B2291E5B200AC8C7C3B925 PUSH1 0x40 MLOAD PUSH1 0x40 MLOAD DUP1 SWAP2 SUB SWAP1 LOG4 JUMPDEST POP JUMPDEST POP POP PUSH1 0x0 SWAP1 DUP2 MSTORE PUSH1 0x4 PUSH1 0x20 MSTORE PUSH1 0x40 SWAP1 KECCAK256 DUP1 SLOAD PUSH1 0x1 PUSH1 0x1 PUSH1 0xA0 SHL SUB NOT AND PUSH1 0x1 PUSH1 0x1 PUSH1 0xA0 SHL SUB SWAP3 SWAP1 SWAP3 AND SWAP2 SWAP1 SWAP2 OR SWAP1 SSTORE JUMP JUMPDEST PUSH1 0x0 DUP3 DUP2 MSTORE PUSH1 0x2 PUSH1 0x20 MSTORE PUSH1 0x40 DUP2 KECCAK256 SLOAD PUSH1 0x1 PUSH1 0x1 PUSH1 0xA0 SHL SUB SWAP1 DUP2 AND SWAP1 DUP4 AND ISZERO PUSH2 0x1225 JUMPI PUSH2 0x1225 DUP2 DUP5 DUP7 PUSH2 0x1559 JUMP JUMPDEST PUSH1 0x1 PUSH1 0x1 PUSH1 0xA0 SHL SUB DUP2 AND ISZERO PUSH2 0x1263 JUMPI PUSH2 0x1242 PUSH1 0x0 DUP6 PUSH1 0x0 DUP1 PUSH2 0x10F2 JUMP JUMPDEST PUSH1 0x1 PUSH1 0x1 PUSH1 0xA0 SHL SUB DUP2 AND PUSH1 0x0 SWAP1 DUP2 MSTORE PUSH1 0x3 PUSH1 0x20 MSTORE PUSH1 0x40 SWAP1 KECCAK256 DUP1 SLOAD PUSH1 0x0 NOT ADD SWAP1 SSTORE JUMPDEST PUSH1 0x1 PUSH1 0x1 PUSH1 0xA0 SHL SUB DUP6 AND ISZERO PUSH2 0x1292 JUMPI PUSH1 0x1 PUSH1 0x1 PUSH1 0xA0 SHL SUB DUP6 AND PUSH1 0x0 SWAP1 DUP2 MSTORE PUSH1 0x3 PUSH1 0x20 MSTORE PUSH1 0x40 SWAP1 KECCAK256 DUP1 SLOAD PUSH1 0x1 ADD SWAP1 SSTORE JUMPDEST PUSH1 0x0 DUP5 DUP2 MSTORE PUSH1 0x2 PUSH1 0x20 MSTORE PUSH1 0x40 DUP1 DUP3 KECCAK256 DUP1 SLOAD PUSH1 0x1 PUSH1 0x1 PUSH1 0xA0 SHL SUB NOT AND PUSH1 0x1 PUSH1 0x1 PUSH1 0xA0 SHL SUB DUP10 DUP2 AND SWAP2 DUP3 OR SWAP1 SWAP3 SSTORE SWAP2 MLOAD DUP8 SWAP4 SWAP2 DUP6 AND SWAP2 PUSH32 0xDDF252AD1BE2C89B69C2B068FC378DAA952BA7F163C4A11628F55A4DF523B3EF SWAP2 LOG4 SWAP5 SWAP4 POP POP POP POP JUMP JUMPDEST PUSH1 0x0 PUSH2 0x12FC DUP4 PUSH2 0x7E7 JUMP JUMPDEST PUSH1 0x0 DUP4 DUP2 MSTORE PUSH1 0x7 PUSH1 0x20 MSTORE PUSH1 0x40 SWAP1 KECCAK256 SLOAD SWAP1 SWAP2 POP DUP1 DUP3 EQ PUSH2 0x134F JUMPI PUSH1 0x1 PUSH1 0x1 PUSH1 0xA0 SHL SUB DUP5 AND PUSH1 0x0 SWAP1 DUP2 MSTORE PUSH1 0x6 PUSH1 0x20 SWAP1 DUP2 MSTORE PUSH1 0x40 DUP1 DUP4 KECCAK256 DUP6 DUP5 MSTORE DUP3 MSTORE DUP1 DUP4 KECCAK256 SLOAD DUP5 DUP5 MSTORE DUP2 DUP5 KECCAK256 DUP2 SWAP1 SSTORE DUP4 MSTORE PUSH1 0x7 SWAP1 SWAP2 MSTORE SWAP1 KECCAK256 DUP2 SWAP1 SSTORE JUMPDEST POP PUSH1 0x0 SWAP2 DUP3 MSTORE PUSH1 0x7 PUSH1 0x20 SWAP1 DUP2 MSTORE PUSH1 0x40 DUP1 DUP5 KECCAK256 DUP5 SWAP1 SSTORE PUSH1 0x1 PUSH1 0x1 PUSH1 0xA0 SHL SUB SWAP1 SWAP5 AND DUP4 MSTORE PUSH1 0x6 DUP2 MSTORE DUP4 DUP4 KECCAK256 SWAP2 DUP4 MSTORE MSTORE SWAP1 DUP2 KECCAK256 SSTORE JUMP JUMPDEST PUSH1 0x8 SLOAD PUSH1 0x0 SWAP1 PUSH2 0x1394 SWAP1 PUSH1 0x1 SWAP1 PUSH2 0x1B2F JUMP JUMPDEST PUSH1 0x0 DUP4 DUP2 MSTORE PUSH1 0x9 PUSH1 0x20 MSTORE PUSH1 0x40 DUP2 KECCAK256 SLOAD PUSH1 0x8 DUP1 SLOAD SWAP4 SWAP5 POP SWAP1 SWAP3 DUP5 SWAP1 DUP2 LT PUSH2 0x13BC JUMPI PUSH2 0x13BC PUSH2 0x1A2B JUMP JUMPDEST SWAP1 PUSH1 0x0 MSTORE PUSH1 0x20 PUSH1 0x0 KECCAK256 ADD SLOAD SWAP1 POP DUP1 PUSH1 0x8 DUP4 DUP2 SLOAD DUP2 LT PUSH2 0x13DD JUMPI PUSH2 0x13DD PUSH2 0x1A2B JUMP JUMPDEST PUSH1 0x0 SWAP2 DUP3 MSTORE PUSH1 0x20 DUP1 DUP4 KECCAK256 SWAP1 SWAP2 ADD SWAP3 SWAP1 SWAP3 SSTORE DUP3 DUP2 MSTORE PUSH1 0x9 SWAP1 SWAP2 MSTORE PUSH1 0x40 DUP1 DUP3 KECCAK256 DUP5 SWAP1 SSTORE DUP6 DUP3 MSTORE DUP2 KECCAK256 SSTORE PUSH1 0x8 DUP1 SLOAD DUP1 PUSH2 0x1415 JUMPI PUSH2 0x1415 PUSH2 0x1B50 JUMP JUMPDEST PUSH1 0x1 SWAP1 SUB DUP2 DUP2 SWAP1 PUSH1 0x0 MSTORE PUSH1 0x20 PUSH1 0x0 KECCAK256 ADD PUSH1 0x0 SWAP1 SSTORE SWAP1 SSTORE POP POP POP POP JUMP JUMPDEST PUSH1 0x0 PUSH1 0x1 PUSH2 0x143E DUP5 PUSH2 0x7E7 JUMP JUMPDEST PUSH2 0x1448 SWAP2 SWAP1 PUSH2 0x1B2F JUMP JUMPDEST PUSH1 0x1 PUSH1 0x1 PUSH1 0xA0 SHL SUB SWAP1 SWAP4 AND PUSH1 0x0 SWAP1 DUP2 MSTORE PUSH1 0x6 PUSH1 0x20 SWAP1 DUP2 MSTORE PUSH1 0x40 DUP1 DUP4 KECCAK256 DUP7 DUP5 MSTORE DUP3 MSTORE DUP1 DUP4 KECCAK256 DUP6 SWAP1 SSTORE SWAP4 DUP3 MSTORE PUSH1 0x7 SWAP1 MSTORE SWAP2 SWAP1 SWAP2 KECCAK256 SWAP2 SWAP1 SWAP2 SSTORE POP JUMP JUMPDEST PUSH1 0x0 DUP1 PUSH19 0x184F03E93FF9F4DAA797ED6E38ED64BF6A1F01 PUSH1 0x40 SHL DUP4 LT PUSH2 0x14C0 JUMPI PUSH19 0x184F03E93FF9F4DAA797ED6E38ED64BF6A1F01 PUSH1 0x40 SHL DUP4 DIV SWAP3 POP PUSH1 0x40 ADD JUMPDEST PUSH14 0x4EE2D6D415B85ACEF8100000000 DUP4 LT PUSH2 0x14EC JUMPI PUSH14 0x4EE2D6D415B85ACEF8100000000 DUP4 DIV SWAP3 POP PUSH1 0x20 ADD JUMPDEST PUSH7 0x2386F26FC10000 DUP4 LT PUSH2 0x150A JUMPI PUSH7 0x2386F26FC10000 DUP4 DIV SWAP3 POP PUSH1 0x10 ADD JUMPDEST PUSH4 0x5F5E100 DUP4 LT PUSH2 0x1522 JUMPI PUSH4 0x5F5E100 DUP4 DIV SWAP3 POP PUSH1 0x8 ADD JUMPDEST PUSH2 0x2710 DUP4 LT PUSH2 0x1536 JUMPI PUSH2 0x2710 DUP4 DIV SWAP3 POP PUSH1 0x4 ADD JUMPDEST PUSH1 0x64 DUP4 LT PUSH2 0x1548 JUMPI PUSH1 0x64 DUP4 DIV SWAP3 POP PUSH1 0x2 ADD JUMPDEST PUSH1 0xA DUP4 LT PUSH2 0x490 JUMPI PUSH1 0x1 ADD SWAP3 SWAP2 POP POP JUMP JUMPDEST PUSH2 0x1564 DUP4 DUP4 DUP4 PUSH2 0x15BD JUMP JUMPDEST PUSH2 0x6EA JUMPI PUSH1 0x1 PUSH1 0x1 PUSH1 0xA0 SHL SUB DUP4 AND PUSH2 0x1592 JUMPI PUSH1 0x40 MLOAD PUSH4 0x7E273289 PUSH1 0xE0 SHL DUP2 MSTORE PUSH1 0x4 DUP2 ADD DUP3 SWAP1 MSTORE PUSH1 0x24 ADD PUSH2 0x586 JUMP JUMPDEST PUSH1 0x40 MLOAD PUSH4 0x177E802F PUSH1 0xE0 SHL DUP2 MSTORE PUSH1 0x1 PUSH1 0x1 PUSH1 0xA0 SHL SUB DUP4 AND PUSH1 0x4 DUP3 ADD MSTORE PUSH1 0x24 DUP2 ADD DUP3 SWAP1 MSTORE PUSH1 0x44 ADD PUSH2 0x586 JUMP JUMPDEST PUSH1 0x0 PUSH1 0x1 PUSH1 0x1 PUSH1 0xA0 SHL SUB DUP4 AND ISZERO DUP1 ISZERO SWAP1 PUSH2 0xB2F JUMPI POP DUP3 PUSH1 0x1 PUSH1 0x1 PUSH1 0xA0 SHL SUB AND DUP5 PUSH1 0x1 PUSH1 0x1 PUSH1 0xA0 SHL SUB AND EQ DUP1 PUSH2 0x15F7 JUMPI POP PUSH2 0x15F7 DUP5 DUP5 PUSH2 0xC38 JUMP JUMPDEST DUP1 PUSH2 0xB2F JUMPI POP POP PUSH1 0x0 SWAP1 DUP2 MSTORE PUSH1 0x4 PUSH1 0x20 MSTORE PUSH1 0x40 SWAP1 KECCAK256 SLOAD PUSH1 0x1 PUSH1 0x1 PUSH1 0xA0 SHL SUB SWAP1 DUP2 AND SWAP2 AND EQ SWAP2 SWAP1 POP JUMP JUMPDEST PUSH1 0x1 PUSH1 0x1 PUSH1 0xE0 SHL SUB NOT DUP2 AND DUP2 EQ PUSH2 0x1636 JUMPI PUSH1 0x0 DUP1 REVERT JUMPDEST POP JUMP JUMPDEST PUSH1 0x0 PUSH1 0x20 DUP3 DUP5 SUB SLT ISZERO PUSH2 0x164B JUMPI PUSH1 0x0 DUP1 REVERT JUMPDEST DUP2 CALLDATALOAD PUSH2 0x955 DUP2 PUSH2 0x1620 JUMP JUMPDEST PUSH1 0x0 JUMPDEST DUP4 DUP2 LT ISZERO PUSH2 0x1671 JUMPI DUP2 DUP2 ADD MLOAD DUP4 DUP3 ADD MSTORE PUSH1 0x20 ADD PUSH2 0x1659 JUMP JUMPDEST POP POP PUSH1 0x0 SWAP2 ADD MSTORE JUMP JUMPDEST PUSH1 0x0 DUP2 MLOAD DUP1 DUP5 MSTORE PUSH2 0x1692 DUP2 PUSH1 0x20 DUP7 ADD PUSH1 0x20 DUP7 ADD PUSH2 0x1656 JUMP JUMPDEST PUSH1 0x1F ADD PUSH1 0x1F NOT AND SWAP3 SWAP1 SWAP3 ADD PUSH1 0x20 ADD SWAP3 SWAP2 POP POP JUMP JUMPDEST PUSH1 0x20 DUP2 MSTORE PUSH1 0x0 PUSH2 0x955 PUSH1 0x20 DUP4 ADD DUP5 PUSH2 0x167A JUMP JUMPDEST PUSH1 0x0 PUSH1 0x20 DUP3 DUP5 SUB SLT ISZERO PUSH2 0x16CB JUMPI PUSH1 0x0 DUP1 REVERT JUMPDEST POP CALLDATALOAD SWAP2 SWAP1 POP JUMP JUMPDEST PUSH1 0x1 PUSH1 0x1 PUSH1 0xA0 SHL SUB DUP2 AND DUP2 EQ PUSH2 0x1636 JUMPI PUSH1 0x0 DUP1 REVERT JUMPDEST PUSH1 0x0 DUP1 PUSH1 0x40 DUP4 DUP6 SUB SLT ISZERO PUSH2 0x16FA JUMPI PUSH1 0x0 DUP1 REVERT JUMPDEST DUP3 CALLDATALOAD PUSH2 0x1705 DUP2 PUSH2 0x16D2 JUMP JUMPDEST SWAP5 PUSH1 0x20 SWAP4 SWAP1 SWAP4 ADD CALLDATALOAD SWAP4 POP POP POP JUMP JUMPDEST PUSH1 0x0 DUP1 PUSH1 0x0 PUSH1 0x60 DUP5 DUP7 SUB SLT ISZERO PUSH2 0x1728 JUMPI PUSH1 0x0 DUP1 REVERT JUMPDEST DUP4 CALLDATALOAD PUSH2 0x1733 DUP2 PUSH2 0x16D2 JUMP JUMPDEST SWAP3 POP PUSH1 0x20 DUP5 ADD CALLDATALOAD PUSH2 0x1743 DUP2 PUSH2 0x16D2 JUMP JUMPDEST SWAP3 SWAP6 SWAP3 SWAP5 POP POP POP PUSH1 0x40 SWAP2 SWAP1 SWAP2 ADD CALLDATALOAD SWAP1 JUMP JUMPDEST PUSH1 0x0 PUSH1 0x20 DUP3 DUP5 SUB SLT ISZERO PUSH2 0x1766 JUMPI PUSH1 0x0 DUP1 REVERT JUMPDEST DUP2 CALLDATALOAD PUSH2 0x955 DUP2 PUSH2 0x16D2 JUMP JUMPDEST PUSH1 0x0 DUP1 PUSH1 0x40 DUP4 DUP6 SUB SLT ISZERO PUSH2 0x1784 JUMPI PUSH1 0x0 DUP1 REVERT JUMPDEST DUP3 CALLDATALOAD PUSH2 0x178F DUP2 PUSH2 0x16D2 JUMP JUMPDEST SWAP2 POP PUSH1 0x20 DUP4 ADD CALLDATALOAD DUP1 ISZERO ISZERO DUP2 EQ PUSH2 0x17A4 JUMPI PUSH1 0x0 DUP1 REVERT JUMPDEST DUP1 SWAP2 POP POP SWAP3 POP SWAP3 SWAP1 POP JUMP JUMPDEST PUSH1 0x0 DUP1 DUP4 PUSH1 0x1F DUP5 ADD SLT PUSH2 0x17C1 JUMPI PUSH1 0x0 DUP1 REVERT JUMPDEST POP DUP2 CALLDATALOAD PUSH8 0xFFFFFFFFFFFFFFFF DUP2 GT ISZERO PUSH2 0x17D9 JUMPI PUSH1 0x0 DUP1 REVERT JUMPDEST PUSH1 0x20 DUP4 ADD SWAP2 POP DUP4 PUSH1 0x20 DUP3 DUP6 ADD ADD GT ISZERO PUSH2 0x17F1 JUMPI PUSH1 0x0 DUP1 REVERT JUMPDEST SWAP3 POP SWAP3 SWAP1 POP JUMP JUMPDEST PUSH1 0x0 DUP1 PUSH1 0x0 PUSH1 0x40 DUP5 DUP7 SUB SLT ISZERO PUSH2 0x180D JUMPI PUSH1 0x0 DUP1 REVERT JUMPDEST DUP4 CALLDATALOAD PUSH2 0x1818 DUP2 PUSH2 0x16D2 JUMP JUMPDEST SWAP3 POP PUSH1 0x20 DUP5 ADD CALLDATALOAD PUSH8 0xFFFFFFFFFFFFFFFF DUP2 GT ISZERO PUSH2 0x1834 JUMPI PUSH1 0x0 DUP1 REVERT JUMPDEST PUSH2 0x1840 DUP7 DUP3 DUP8 ADD PUSH2 0x17AF JUMP JUMPDEST SWAP5 SWAP8 SWAP1 SWAP7 POP SWAP4 SWAP5 POP POP POP POP JUMP JUMPDEST PUSH4 0x4E487B71 PUSH1 0xE0 SHL PUSH1 0x0 MSTORE PUSH1 0x41 PUSH1 0x4 MSTORE PUSH1 0x24 PUSH1 0x0 REVERT JUMPDEST PUSH1 0x40 MLOAD PUSH1 0x1F DUP3 ADD PUSH1 0x1F NOT AND DUP2 ADD PUSH8 0xFFFFFFFFFFFFFFFF DUP2 GT DUP3 DUP3 LT OR ISZERO PUSH2 0x188C JUMPI PUSH2 0x188C PUSH2 0x184D JUMP JUMPDEST PUSH1 0x40 MSTORE SWAP2 SWAP1 POP JUMP JUMPDEST PUSH1 0x0 PUSH8 0xFFFFFFFFFFFFFFFF DUP3 GT ISZERO PUSH2 0x18AE JUMPI PUSH2 0x18AE PUSH2 0x184D JUMP JUMPDEST POP PUSH1 0x1F ADD PUSH1 0x1F NOT AND PUSH1 0x20 ADD SWAP1 JUMP JUMPDEST PUSH1 0x0 DUP1 PUSH1 0x0 DUP1 PUSH1 0x80 DUP6 DUP8 SUB SLT ISZERO PUSH2 0x18D2 JUMPI PUSH1 0x0 DUP1 REVERT JUMPDEST DUP5 CALLDATALOAD PUSH2 0x18DD DUP2 PUSH2 0x16D2 JUMP JUMPDEST SWAP4 POP PUSH1 0x20 DUP6 ADD CALLDATALOAD PUSH2 0x18ED DUP2 PUSH2 0x16D2 JUMP JUMPDEST SWAP3 POP PUSH1 0x40 DUP6 ADD CALLDATALOAD SWAP2 POP PUSH1 0x60 DUP6 ADD CALLDATALOAD PUSH8 0xFFFFFFFFFFFFFFFF DUP2 GT ISZERO PUSH2 0x1910 JUMPI PUSH1 0x0 DUP1 REVERT JUMPDEST DUP6 ADD PUSH1 0x1F DUP2 ADD DUP8 SGT PUSH2 0x1921 JUMPI PUSH1 0x0 DUP1 REVERT JUMPDEST DUP1 CALLDATALOAD PUSH2 0x1934 PUSH2 0x192F DUP3 PUSH2 0x1894 JUMP JUMPDEST PUSH2 0x1863 JUMP JUMPDEST DUP2 DUP2 MSTORE DUP9 PUSH1 0x20 DUP4 DUP6 ADD ADD GT ISZERO PUSH2 0x1949 JUMPI PUSH1 0x0 DUP1 REVERT JUMPDEST DUP2 PUSH1 0x20 DUP5 ADD PUSH1 0x20 DUP4 ADD CALLDATACOPY PUSH1 0x0 PUSH1 0x20 DUP4 DUP4 ADD ADD MSTORE DUP1 SWAP4 POP POP POP POP SWAP3 SWAP6 SWAP2 SWAP5 POP SWAP3 POP JUMP JUMPDEST PUSH1 0x0 DUP1 PUSH1 0x40 DUP4 DUP6 SUB SLT ISZERO PUSH2 0x197E JUMPI PUSH1 0x0 DUP1 REVERT JUMPDEST DUP3 CALLDATALOAD SWAP2 POP PUSH1 0x20 DUP4 ADD CALLDATALOAD PUSH2 0x17A4 DUP2 PUSH2 0x16D2 JUMP JUMPDEST PUSH1 0x0 DUP1 PUSH1 0x40 DUP4 DUP6 SUB SLT ISZERO PUSH2 0x19A3 JUMPI PUSH1 0x0 DUP1 REVERT JUMPDEST DUP3 CALLDATALOAD PUSH2 0x19AE DUP2 PUSH2 0x16D2 JUMP JUMPDEST SWAP2 POP PUSH1 0x20 DUP4 ADD CALLDATALOAD PUSH2 0x17A4 DUP2 PUSH2 0x16D2 JUMP JUMPDEST PUSH1 0x0 DUP1 PUSH1 0x0 PUSH1 0x40 DUP5 DUP7 SUB SLT ISZERO PUSH2 0x19D3 JUMPI PUSH1 0x0 DUP1 REVERT JUMPDEST DUP4 CALLDATALOAD SWAP3 POP PUSH1 0x20 DUP5 ADD CALLDATALOAD PUSH8 0xFFFFFFFFFFFFFFFF DUP2 GT ISZERO PUSH2 0x1834 JUMPI PUSH1 0x0 DUP1 REVERT JUMPDEST PUSH1 0x1 DUP2 DUP2 SHR SWAP1 DUP3 AND DUP1 PUSH2 0x1A05 JUMPI PUSH1 0x7F DUP3 AND SWAP2 POP JUMPDEST PUSH1 0x20 DUP3 LT DUP2 SUB PUSH2 0x1A25 JUMPI PUSH4 0x4E487B71 PUSH1 0xE0 SHL PUSH1 0x0 MSTORE PUSH1 0x22 PUSH1 0x4 MSTORE PUSH1 0x24 PUSH1 0x0 REVERT JUMPDEST POP SWAP2 SWAP1 POP JUMP JUMPDEST PUSH4 0x4E487B71 PUSH1 0xE0 SHL PUSH1 0x0 MSTORE PUSH1 0x32 PUSH1 0x4 MSTORE PUSH1 0x24 PUSH1 0x0 REVERT JUMPDEST PUSH1 0x0 PUSH1 0x20 DUP3 DUP5 SUB SLT ISZERO PUSH2 0x1A53 JUMPI PUSH1 0x0 DUP1 REVERT JUMPDEST DUP2 MLOAD PUSH2 0x955 DUP2 PUSH2 0x16D2 JUMP JUMPDEST PUSH1 0x0 PUSH1 0x20 DUP3 DUP5 SUB SLT ISZERO PUSH2 0x1A70 JUMPI PUSH1 0x0 DUP1 REVERT JUMPDEST DUP2 MLOAD PUSH8 0xFFFFFFFFFFFFFFFF DUP2 GT ISZERO PUSH2 0x1A87 JUMPI PUSH1 0x0 DUP1 REVERT JUMPDEST DUP3 ADD PUSH1 0x1F DUP2 ADD DUP5 SGT PUSH2 0x1A98 JUMPI PUSH1 0x0 DUP1 REVERT JUMPDEST DUP1 MLOAD PUSH2 0x1AA6 PUSH2 0x192F DUP3 PUSH2 0x1894 JUMP JUMPDEST DUP2 DUP2 MSTORE DUP6 PUSH1 0x20 DUP4 DUP6 ADD ADD GT ISZERO PUSH2 0x1ABB JUMPI PUSH1 0x0 DUP1 REVERT JUMPDEST PUSH2 0x1ACC DUP3 PUSH1 0x20 DUP4 ADD PUSH1 0x20 DUP7 ADD PUSH2 0x1656 JUMP JUMPDEST SWAP6 SWAP5 POP POP POP POP POP JUMP JUMPDEST PUSH1 0x1 PUSH1 0x1 PUSH1 0xA0 SHL SUB DUP6 DUP2 AND DUP3 MSTORE DUP5 AND PUSH1 0x20 DUP3 ADD MSTORE PUSH1 0x40 DUP2 ADD DUP4 SWAP1 MSTORE PUSH1 0x80 PUSH1 0x60 DUP3 ADD DUP2 SWAP1 MSTORE PUSH1 0x0 SWAP1 PUSH2 0x1B08 SWAP1 DUP4 ADD DUP5 PUSH2 0x167A JUMP JUMPDEST SWAP7 SWAP6 POP POP POP POP POP POP JUMP JUMPDEST PUSH1 0x0 PUSH1 0x20 DUP3 DUP5 SUB SLT ISZERO PUSH2 0x1B24 JUMPI PUSH1 0x0 DUP1 REVERT JUMPDEST DUP2 MLOAD PUSH2 0x955 DUP2 PUSH2 0x1620 JUMP JUMPDEST DUP2 DUP2 SUB DUP2 DUP2 GT ISZERO PUSH2 0x490 JUMPI PUSH4 0x4E487B71 PUSH1 0xE0 SHL PUSH1 0x0 MSTORE PUSH1 0x11 PUSH1 0x4 MSTORE PUSH1 0x24 PUSH1 0x0 REVERT JUMPDEST PUSH4 0x4E487B71 PUSH1 0xE0 SHL PUSH1 0x0 MSTORE PUSH1 0x31 PUSH1 0x4 MSTORE PUSH1 0x24 PUSH1 0x0 REVERT INVALID LOG2 PUSH5 0x6970667358 0x22 SLT KECCAK256 LT 0xD7 0xCA 0xC6 0x23 PUSH28 0xBB977031CFBFD5A4C6E8EBF33F7F9FE906D15868734AD2A5DB6473 PUSH16 0x6C634300081500330000000000000000 "},"methodIdentifiers":{"approve(address,uint256)":"095ea7b3","balanceOf(address)":"70a08231","burn(uint256,bytes)":"fe9d9303","factoryAddress()":"966dae0e","getAgency()":"b4f35b9a","getApproved(uint256)":"081812fc","getMaxSupply()":"4c0f38c2","getName(uint256)":"6b8ff574","getOwner()":"893d20e8","getProxyTokenURIEngine()":"742b5cc7","getTokenURIEngine(uint256)":"be04bb1d","isApprovedForAll(address,address)":"e985e9c5","mint(address,bytes)":"b510391f","name()":"06fdde03","owner()":"8da5cb5b","ownerOf(uint256)":"6352211e","safeTransferFrom(address,address,uint256)":"42842e0e","safeTransferFrom(address,address,uint256,bytes)":"b88d4fde","setAgency(address)":"39b3d243","setApprovalForAll(address,bool)":"a22cb465","setMyContractAddress(address)":"67e0e1ab","setProxyTokenURIEngine(address)":"bdc6067d","setTokenURIEngine(uint256,address)":"e0d20fec","supportsInterface(bytes4)":"01ffc9a7","symbol()":"95d89b41","tokenByIndex(uint256)":"4f6ccce7","tokenOfOwnerByIndex(address,uint256)":"2f745c59","tokenURI(uint256)":"c87b56dd","totalSupply()":"18160ddd","transferFrom(address,address,uint256)":"23b872dd","uint256ToString(uint256)":"ce7e51e3"}}}}}