{
  "_format": "hh-sol-artifact-1",
  "contractName": "TokenEngineImp",
  "sourceName": "contracts/TokenEngineImp.sol",
  "abi": [
    {
      "inputs": [
        {
          "internalType": "uint256",
          "name": "tokenId",
          "type": "uint256"
        }
      ],
      "name": "render",
      "outputs": [
        {
          "internalType": "string",
          "name": "",
          "type": "string"
        }
      ],
      "stateMutability": "view",
      "type": "function"
    },
    {
      "inputs": [
        {
          "internalType": "uint256",
          "name": "tokenId",
          "type": "uint256"
        },
        {
          "internalType": "string",
          "name": "tokenURI",
          "type": "string"
        }
      ],
      "name": "setTokenURI",
      "outputs": [],
      "stateMutability": "nonpayable",
      "type": "function"
    },
    {
      "inputs": [
        {
          "internalType": "bytes4",
          "name": "interfaceId",
          "type": "bytes4"
        }
      ],
      "name": "supportsInterface",
      "outputs": [
        {
          "internalType": "bool",
          "name": "",
          "type": "bool"
        }
      ],
      "stateMutability": "view",
      "type": "function"
    }
  ],
  "bytecode": "0x608060405234801561001057600080fd5b5061045a806100206000396000f3fe608060405234801561001057600080fd5b50600436106100415760003560e01c806301ffc9a714610046578063162094c41461007f578063c321118c14610094575b600080fd5b61006a610054366004610173565b6001600160e01b0319166301ffc9a760e01b1490565b60405190151581526020015b60405180910390f35b61009261008d3660046101ba565b6100b4565b005b6100a76100a2366004610275565b6100d1565b604051610076919061028e565b60008281526020819052604090206100cc8282610364565b505050565b60008181526020819052604090208054606091906100ee906102dc565b80601f016020809104026020016040519081016040528092919081815260200182805461011a906102dc565b80156101675780601f1061013c57610100808354040283529160200191610167565b820191906000526020600020905b81548152906001019060200180831161014a57829003601f168201915b50505050509050919050565b60006020828403121561018557600080fd5b81356001600160e01b03198116811461019d57600080fd5b9392505050565b634e487b7160e01b600052604160045260246000fd5b600080604083850312156101cd57600080fd5b82359150602083013567ffffffffffffffff808211156101ec57600080fd5b818501915085601f83011261020057600080fd5b813581811115610212576102126101a4565b604051601f8201601f19908116603f0116810190838211818310171561023a5761023a6101a4565b8160405282815288602084870101111561025357600080fd5b8260208601602083013760006020848301015280955050505050509250929050565b60006020828403121561028757600080fd5b5035919050565b600060208083528351808285015260005b818110156102bb5785810183015185820160400152820161029f565b506000604082860101526040601f19601f8301168501019250505092915050565b600181811c908216806102f057607f821691505b60208210810361031057634e487b7160e01b600052602260045260246000fd5b50919050565b601f8211156100cc57600081815260208120601f850160051c8101602086101561033d5750805b601f850160051c820191505b8181101561035c57828155600101610349565b505050505050565b815167ffffffffffffffff81111561037e5761037e6101a4565b6103928161038c84546102dc565b84610316565b602080601f8311600181146103c757600084156103af5750858301515b600019600386901b1c1916600185901b17855561035c565b600085815260208120601f198616915b828110156103f6578886015182559484019460019091019084016103d7565b50858210156104145787850151600019600388901b60f8161c191681555b5050505050600190811b0190555056fea264697066735822122052304b8ce234293c90832a43867c658764b910598119e81fc6b805fc3b98c24464736f6c63430008150033",
  "linkReferences": {},
  "deployedLinkReferences": {}
}