{
	"ReflectionFactoryImp.sol": {
		"FactoryImp": {
			"abi": [
				{
					"inputs": [],
					"stateMutability": "nonpayable",
					"type": "constructor"
				},
				{
					"inputs": [],
					"name": "CreateFail",
					"type": "error"
				},
				{
					"inputs": [
						{
							"components": [
								{
									"internalType": "address payable",
									"name": "implementation",
									"type": "address"
								},
								{
									"components": [
										{
											"internalType": "address",
											"name": "currency",
											"type": "address"
										},
										{
											"internalType": "uint256",
											"name": "premium",
											"type": "uint256"
										},
										{
											"internalType": "address",
											"name": "feeRecipient",
											"type": "address"
										},
										{
											"internalType": "uint16",
											"name": "mintFeePercent",
											"type": "uint16"
										},
										{
											"internalType": "uint16",
											"name": "burnFeePercent",
											"type": "uint16"
										}
									],
									"internalType": "struct Asset",
									"name": "asset",
									"type": "tuple"
								},
								{
									"internalType": "bytes",
									"name": "immutableData",
									"type": "bytes"
								},
								{
									"internalType": "bytes",
									"name": "initData",
									"type": "bytes"
								}
							],
							"internalType": "struct AgencySettings",
							"name": "agencySettings",
							"type": "tuple"
						},
						{
							"components": [
								{
									"internalType": "address",
									"name": "implementation",
									"type": "address"
								},
								{
									"internalType": "bytes",
									"name": "immutableData",
									"type": "bytes"
								},
								{
									"internalType": "bytes",
									"name": "initData",
									"type": "bytes"
								}
							],
							"internalType": "struct AppSettings",
							"name": "appSettings",
							"type": "tuple"
						},
						{
							"internalType": "bytes",
							"name": "",
							"type": "bytes"
						}
					],
					"name": "deployWrap",
					"outputs": [
						{
							"internalType": "address",
							"name": "appInstance",
							"type": "address"
						},
						{
							"internalType": "address",
							"name": "agencyInstance",
							"type": "address"
						}
					],
					"stateMutability": "nonpayable",
					"type": "function"
				},
				{
					"inputs": [],
					"name": "getOwner",
					"outputs": [
						{
							"internalType": "address",
							"name": "",
							"type": "address"
						}
					],
					"stateMutability": "view",
					"type": "function"
				},
				{
					"inputs": [],
					"name": "owner",
					"outputs": [
						{
							"internalType": "address",
							"name": "",
							"type": "address"
						}
					],
					"stateMutability": "view",
					"type": "function"
				}
			],
			"devdoc": {
				"kind": "dev",
				"methods": {},
				"version": 1
			},
			"evm": {
				"assembly": "    /* \"ReflectionFactoryImp.sol\":476:1789  contract FactoryImp is IERC7527Factory{... */\n  mstore(0x40, 0x80)\n    /* \"ReflectionFactoryImp.sol\":745:796  constructor() {... */\n  callvalue\n  dup1\n  iszero\n  tag_1\n  jumpi\n  0x00\n  dup1\n  revert\ntag_1:\n  pop\n    /* \"ReflectionFactoryImp.sol\":778:788  msg.sender */\n  caller\n    /* \"ReflectionFactoryImp.sol\":770:775  owner */\n  0x00\n  dup1\n    /* \"ReflectionFactoryImp.sol\":770:788  owner = msg.sender */\n  0x0100\n  exp\n  dup2\n  sload\n  dup2\n  0xffffffffffffffffffffffffffffffffffffffff\n  mul\n  not\n  and\n  swap1\n  dup4\n  0xffffffffffffffffffffffffffffffffffffffff\n  and\n  mul\n  or\n  swap1\n  sstore\n  pop\n    /* \"ReflectionFactoryImp.sol\":476:1789  contract FactoryImp is IERC7527Factory{... */\n  dataSize(sub_0)\n  dup1\n  dataOffset(sub_0)\n  0x00\n  codecopy\n  0x00\n  return\nstop\n\nsub_0: assembly {\n        /* \"ReflectionFactoryImp.sol\":476:1789  contract FactoryImp is IERC7527Factory{... */\n      mstore(0x40, 0x80)\n      callvalue\n      dup1\n      iszero\n      tag_1\n      jumpi\n      0x00\n      dup1\n      revert\n    tag_1:\n      pop\n      jumpi(tag_2, lt(calldatasize, 0x04))\n      shr(0xe0, calldataload(0x00))\n      dup1\n      0x0f478991\n      eq\n      tag_3\n      jumpi\n      dup1\n      0x893d20e8\n      eq\n      tag_4\n      jumpi\n      dup1\n      0x8da5cb5b\n      eq\n      tag_5\n      jumpi\n    tag_2:\n      0x00\n      dup1\n      revert\n        /* \"ReflectionFactoryImp.sol\":834:1679  function deployWrap(AgencySettings calldata agencySettings, AppSettings calldata appSettings, bytes calldata)... */\n    tag_3:\n      tag_6\n      0x04\n      dup1\n      calldatasize\n      sub\n      dup2\n      add\n      swap1\n      tag_7\n      swap2\n      swap1\n      tag_8\n      jump\t// in\n    tag_7:\n      tag_9\n      jump\t// in\n    tag_6:\n      mload(0x40)\n      tag_10\n      swap3\n      swap2\n      swap1\n      tag_11\n      jump\t// in\n    tag_10:\n      mload(0x40)\n      dup1\n      swap2\n      sub\n      swap1\n      return\n        /* \"ReflectionFactoryImp.sol\":1705:1786  function getOwner() public view returns (address) {... */\n    tag_4:\n      tag_12\n      tag_13\n      jump\t// in\n    tag_12:\n      mload(0x40)\n      tag_14\n      swap2\n      swap1\n      tag_15\n      jump\t// in\n    tag_14:\n      mload(0x40)\n      dup1\n      swap2\n      sub\n      swap1\n      return\n        /* \"ReflectionFactoryImp.sol\":569:589  address public owner */\n    tag_5:\n      tag_16\n      tag_17\n      jump\t// in\n    tag_16:\n      mload(0x40)\n      tag_18\n      swap2\n      swap1\n      tag_15\n      jump\t// in\n    tag_18:\n      mload(0x40)\n      dup1\n      swap2\n      sub\n      swap1\n      return\n        /* \"ReflectionFactoryImp.sol\":834:1679  function deployWrap(AgencySettings calldata agencySettings, AppSettings calldata appSettings, bytes calldata)... */\n    tag_9:\n        /* \"ReflectionFactoryImp.sol\":998:1017  address appInstance */\n      0x00\n        /* \"ReflectionFactoryImp.sol\":1019:1041  address agencyInstance */\n      dup1\n        /* \"ReflectionFactoryImp.sol\":1085:1144  appSettings.implementation.clone(appSettings.immutableData) */\n      tag_20\n        /* \"ReflectionFactoryImp.sol\":1118:1129  appSettings */\n      dup6\n        /* \"ReflectionFactoryImp.sol\":1118:1143  appSettings.immutableData */\n      dup1\n      0x20\n      add\n      swap1\n      tag_21\n      swap2\n      swap1\n      tag_22\n      jump\t// in\n    tag_21:\n        /* \"ReflectionFactoryImp.sol\":1085:1144  appSettings.implementation.clone(appSettings.immutableData) */\n      dup1\n      dup1\n      0x1f\n      add\n      0x20\n      dup1\n      swap2\n      div\n      mul\n      0x20\n      add\n      mload(0x40)\n      swap1\n      dup2\n      add\n      0x40\n      mstore\n      dup1\n      swap4\n      swap3\n      swap2\n      swap1\n      dup2\n      dup2\n      mstore\n      0x20\n      add\n      dup4\n      dup4\n      dup1\n      dup3\n      dup5\n      calldatacopy\n      0x00\n      dup2\n      dup5\n      add\n      mstore\n      not(0x1f)\n      0x1f\n      dup3\n      add\n      and\n      swap1\n      pop\n      dup1\n      dup4\n      add\n      swap3\n      pop\n      pop\n      pop\n      pop\n      pop\n      pop\n      pop\n        /* \"ReflectionFactoryImp.sol\":1085:1096  appSettings */\n      dup7\n        /* \"ReflectionFactoryImp.sol\":1085:1111  appSettings.implementation */\n      0x00\n      add\n      0x20\n      dup2\n      add\n      swap1\n      tag_23\n      swap2\n      swap1\n      tag_24\n      jump\t// in\n    tag_23:\n        /* \"ReflectionFactoryImp.sol\":1085:1117  appSettings.implementation.clone */\n      0xffffffffffffffffffffffffffffffffffffffff\n      and\n      tag_25\n      swap1\n        /* \"ReflectionFactoryImp.sol\":1085:1144  appSettings.implementation.clone(appSettings.immutableData) */\n      swap2\n      swap1\n      0xffffffff\n      and\n      jump\t// in\n    tag_20:\n        /* \"ReflectionFactoryImp.sol\":1071:1144  appInstance = appSettings.implementation.clone(appSettings.immutableData) */\n      swap2\n      pop\n        /* \"ReflectionFactoryImp.sol\":1187:1660  address(agencySettings.implementation).clone(... */\n      tag_26\n        /* \"ReflectionFactoryImp.sol\":1289:1300  appInstance */\n      dup3\n        /* \"ReflectionFactoryImp.sol\":1323:1337  agencySettings */\n      dup8\n        /* \"ReflectionFactoryImp.sol\":1323:1343  agencySettings.asset */\n      0x20\n      add\n        /* \"ReflectionFactoryImp.sol\":1323:1352  agencySettings.asset.currency */\n      0x00\n      add\n      0x20\n      dup2\n      add\n      swap1\n      tag_27\n      swap2\n      swap1\n      tag_24\n      jump\t// in\n    tag_27:\n        /* \"ReflectionFactoryImp.sol\":1375:1389  agencySettings */\n      dup9\n        /* \"ReflectionFactoryImp.sol\":1375:1395  agencySettings.asset */\n      0x20\n      add\n        /* \"ReflectionFactoryImp.sol\":1375:1403  agencySettings.asset.premium */\n      0x20\n      add\n      calldataload\n        /* \"ReflectionFactoryImp.sol\":1426:1440  agencySettings */\n      dup10\n        /* \"ReflectionFactoryImp.sol\":1426:1446  agencySettings.asset */\n      0x20\n      add\n        /* \"ReflectionFactoryImp.sol\":1426:1459  agencySettings.asset.feeRecipient */\n      0x40\n      add\n      0x20\n      dup2\n      add\n      swap1\n      tag_28\n      swap2\n      swap1\n      tag_24\n      jump\t// in\n    tag_28:\n        /* \"ReflectionFactoryImp.sol\":1482:1496  agencySettings */\n      dup11\n        /* \"ReflectionFactoryImp.sol\":1482:1502  agencySettings.asset */\n      0x20\n      add\n        /* \"ReflectionFactoryImp.sol\":1482:1517  agencySettings.asset.mintFeePercent */\n      0x60\n      add\n      0x20\n      dup2\n      add\n      swap1\n      tag_29\n      swap2\n      swap1\n      tag_30\n      jump\t// in\n    tag_29:\n        /* \"ReflectionFactoryImp.sol\":1540:1554  agencySettings */\n      dup12\n        /* \"ReflectionFactoryImp.sol\":1540:1560  agencySettings.asset */\n      0x20\n      add\n        /* \"ReflectionFactoryImp.sol\":1540:1575  agencySettings.asset.burnFeePercent */\n      0x80\n      add\n      0x20\n      dup2\n      add\n      swap1\n      tag_31\n      swap2\n      swap1\n      tag_30\n      jump\t// in\n    tag_31:\n        /* \"ReflectionFactoryImp.sol\":1598:1612  agencySettings */\n      dup13\n        /* \"ReflectionFactoryImp.sol\":1598:1626  agencySettings.immutableData */\n      dup1\n      0xc0\n      add\n      swap1\n      tag_32\n      swap2\n      swap1\n      tag_22\n      jump\t// in\n    tag_32:\n        /* \"ReflectionFactoryImp.sol\":1250:1645  abi.encodePacked(... */\n      add(0x20, mload(0x40))\n      tag_33\n      swap9\n      swap8\n      swap7\n      swap6\n      swap5\n      swap4\n      swap3\n      swap2\n      swap1\n      tag_34\n      jump\t// in\n    tag_33:\n      mload(0x40)\n      0x20\n      dup2\n      dup4\n      sub\n      sub\n      dup2\n      mstore\n      swap1\n      0x40\n      mstore\n        /* \"ReflectionFactoryImp.sol\":1195:1209  agencySettings */\n      dup8\n        /* \"ReflectionFactoryImp.sol\":1195:1224  agencySettings.implementation */\n      0x00\n      add\n      0x20\n      dup2\n      add\n      swap1\n      tag_35\n      swap2\n      swap1\n      tag_36\n      jump\t// in\n    tag_35:\n        /* \"ReflectionFactoryImp.sol\":1187:1231  address(agencySettings.implementation).clone */\n      0xffffffffffffffffffffffffffffffffffffffff\n      and\n      tag_25\n      swap1\n        /* \"ReflectionFactoryImp.sol\":1187:1660  address(agencySettings.implementation).clone(... */\n      swap2\n      swap1\n      0xffffffff\n      and\n      jump\t// in\n    tag_26:\n        /* \"ReflectionFactoryImp.sol\":1170:1660  agencyInstance = address(agencySettings.implementation).clone(... */\n      swap1\n      pop\n        /* \"ReflectionFactoryImp.sol\":834:1679  function deployWrap(AgencySettings calldata agencySettings, AppSettings calldata appSettings, bytes calldata)... */\n      swap5\n      pop\n      swap5\n      swap3\n      pop\n      pop\n      pop\n      jump\t// out\n        /* \"ReflectionFactoryImp.sol\":1705:1786  function getOwner() public view returns (address) {... */\n    tag_13:\n        /* \"ReflectionFactoryImp.sol\":1746:1753  address */\n      0x00\n        /* \"ReflectionFactoryImp.sol\":1773:1778  owner */\n      dup1\n      0x00\n      swap1\n      sload\n      swap1\n      0x0100\n      exp\n      swap1\n      div\n      0xffffffffffffffffffffffffffffffffffffffff\n      and\n        /* \"ReflectionFactoryImp.sol\":1766:1778  return owner */\n      swap1\n      pop\n        /* \"ReflectionFactoryImp.sol\":1705:1786  function getOwner() public view returns (address) {... */\n      swap1\n      jump\t// out\n        /* \"ReflectionFactoryImp.sol\":569:589  address public owner */\n    tag_17:\n      0x00\n      dup1\n      sload\n      swap1\n      0x0100\n      exp\n      swap1\n      div\n      0xffffffffffffffffffffffffffffffffffffffff\n      and\n      dup2\n      jump\t// out\n        /* \"clones-with-immutable-args/ClonesWithImmutableArgs.sol\":1150:1326  function clone(address implementation, bytes memory data)... */\n    tag_25:\n        /* \"clones-with-immutable-args/ClonesWithImmutableArgs.sol\":1242:1266  address payable instance */\n      0x00\n        /* \"clones-with-immutable-args/ClonesWithImmutableArgs.sol\":1289:1319  clone(implementation, data, 0) */\n      tag_39\n        /* \"clones-with-immutable-args/ClonesWithImmutableArgs.sol\":1295:1309  implementation */\n      dup4\n        /* \"clones-with-immutable-args/ClonesWithImmutableArgs.sol\":1311:1315  data */\n      dup4\n        /* \"clones-with-immutable-args/ClonesWithImmutableArgs.sol\":1317:1318  0 */\n      0x00\n        /* \"clones-with-immutable-args/ClonesWithImmutableArgs.sol\":1289:1294  clone */\n      tag_40\n        /* \"clones-with-immutable-args/ClonesWithImmutableArgs.sol\":1289:1319  clone(implementation, data, 0) */\n      jump\t// in\n    tag_39:\n        /* \"clones-with-immutable-args/ClonesWithImmutableArgs.sol\":1282:1319  return clone(implementation, data, 0) */\n      swap1\n      pop\n        /* \"clones-with-immutable-args/ClonesWithImmutableArgs.sol\":1150:1326  function clone(address implementation, bytes memory data)... */\n      swap3\n      swap2\n      pop\n      pop\n      jump\t// out\n        /* \"clones-with-immutable-args/ClonesWithImmutableArgs.sol\":1755:2228  function clone(address implementation, bytes memory data, uint256 value)... */\n    tag_40:\n        /* \"clones-with-immutable-args/ClonesWithImmutableArgs.sol\":1862:1886  address payable instance */\n      0x00\n        /* \"clones-with-immutable-args/ClonesWithImmutableArgs.sol\":1902:1927  bytes memory creationcode */\n      dup1\n        /* \"clones-with-immutable-args/ClonesWithImmutableArgs.sol\":1930:1971  getCreationBytecode(implementation, data) */\n      tag_42\n        /* \"clones-with-immutable-args/ClonesWithImmutableArgs.sol\":1950:1964  implementation */\n      dup6\n        /* \"clones-with-immutable-args/ClonesWithImmutableArgs.sol\":1966:1970  data */\n      dup6\n        /* \"clones-with-immutable-args/ClonesWithImmutableArgs.sol\":1930:1949  getCreationBytecode */\n      tag_43\n        /* \"clones-with-immutable-args/ClonesWithImmutableArgs.sol\":1930:1971  getCreationBytecode(implementation, data) */\n      jump\t// in\n    tag_42:\n        /* \"clones-with-immutable-args/ClonesWithImmutableArgs.sol\":1902:1971  bytes memory creationcode = getCreationBytecode(implementation, data) */\n      swap1\n      pop\n        /* \"clones-with-immutable-args/ClonesWithImmutableArgs.sol\":2117:2129  creationcode */\n      dup1\n        /* \"clones-with-immutable-args/ClonesWithImmutableArgs.sol\":2111:2130  mload(creationcode) */\n      mload\n        /* \"clones-with-immutable-args/ClonesWithImmutableArgs.sol\":2104:2108  0x20 */\n      0x20\n        /* \"clones-with-immutable-args/ClonesWithImmutableArgs.sol\":2090:2102  creationcode */\n      dup3\n        /* \"clones-with-immutable-args/ClonesWithImmutableArgs.sol\":2086:2109  add(creationcode, 0x20) */\n      add\n        /* \"clones-with-immutable-args/ClonesWithImmutableArgs.sol\":2079:2084  value */\n      dup5\n        /* \"clones-with-immutable-args/ClonesWithImmutableArgs.sol\":2072:2131  create(value, add(creationcode, 0x20), mload(creationcode)) */\n      create\n        /* \"clones-with-immutable-args/ClonesWithImmutableArgs.sol\":2060:2131  instance := create(value, add(creationcode, 0x20), mload(creationcode)) */\n      swap2\n      pop\n        /* \"clones-with-immutable-args/ClonesWithImmutableArgs.sol\":2174:2175  0 */\n      0x00\n        /* \"clones-with-immutable-args/ClonesWithImmutableArgs.sol\":2154:2176  instance == address(0) */\n      0xffffffffffffffffffffffffffffffffffffffff\n      and\n        /* \"clones-with-immutable-args/ClonesWithImmutableArgs.sol\":2154:2162  instance */\n      dup3\n        /* \"clones-with-immutable-args/ClonesWithImmutableArgs.sol\":2154:2176  instance == address(0) */\n      0xffffffffffffffffffffffffffffffffffffffff\n      and\n      sub\n        /* \"clones-with-immutable-args/ClonesWithImmutableArgs.sol\":2150:2222  if (instance == address(0)) {... */\n      tag_44\n      jumpi\n        /* \"clones-with-immutable-args/ClonesWithImmutableArgs.sol\":2199:2211  CreateFail() */\n      mload(0x40)\n      0xebfef18800000000000000000000000000000000000000000000000000000000\n      dup2\n      mstore\n      0x04\n      add\n      mload(0x40)\n      dup1\n      swap2\n      sub\n      swap1\n      revert\n        /* \"clones-with-immutable-args/ClonesWithImmutableArgs.sol\":2150:2222  if (instance == address(0)) {... */\n    tag_44:\n        /* \"clones-with-immutable-args/ClonesWithImmutableArgs.sol\":1892:2228  {... */\n      pop\n        /* \"clones-with-immutable-args/ClonesWithImmutableArgs.sol\":1755:2228  function clone(address implementation, bytes memory data, uint256 value)... */\n      swap4\n      swap3\n      pop\n      pop\n      pop\n      jump\t// out\n        /* \"clones-with-immutable-args/ClonesWithImmutableArgs.sol\":4858:12958  function getCreationBytecode(address implementation, bytes memory data) internal pure returns (bytes memory ret) {... */\n    tag_43:\n        /* \"clones-with-immutable-args/ClonesWithImmutableArgs.sol\":4953:4969  bytes memory ret */\n      0x60\n        /* \"clones-with-immutable-args/ClonesWithImmutableArgs.sol\":5077:5096  uint256 extraLength */\n      0x00\n        /* \"clones-with-immutable-args/ClonesWithImmutableArgs.sol\":5113:5114  2 */\n      0x02\n        /* \"clones-with-immutable-args/ClonesWithImmutableArgs.sol\":5099:5103  data */\n      dup4\n        /* \"clones-with-immutable-args/ClonesWithImmutableArgs.sol\":5099:5110  data.length */\n      mload\n        /* \"clones-with-immutable-args/ClonesWithImmutableArgs.sol\":5099:5114  data.length + 2 */\n      add\n        /* \"clones-with-immutable-args/ClonesWithImmutableArgs.sol\":5077:5114  uint256 extraLength = data.length + 2 */\n      swap1\n      pop\n        /* \"clones-with-immutable-args/ClonesWithImmutableArgs.sol\":5196:5216  uint256 creationSize */\n      0x00\n        /* \"clones-with-immutable-args/ClonesWithImmutableArgs.sol\":5226:5237  extraLength */\n      dup2\n        /* \"clones-with-immutable-args/ClonesWithImmutableArgs.sol\":5219:5223  0x41 */\n      0x41\n        /* \"clones-with-immutable-args/ClonesWithImmutableArgs.sol\":5219:5237  0x41 + extraLength */\n      add\n        /* \"clones-with-immutable-args/ClonesWithImmutableArgs.sol\":5196:5237  uint256 creationSize = 0x41 + extraLength */\n      swap1\n      pop\n        /* \"clones-with-immutable-args/ClonesWithImmutableArgs.sol\":5251:5266  uint256 runSize */\n      0x00\n        /* \"clones-with-immutable-args/ClonesWithImmutableArgs.sol\":5284:5286  10 */\n      0x0a\n        /* \"clones-with-immutable-args/ClonesWithImmutableArgs.sol\":5269:5281  creationSize */\n      dup3\n        /* \"clones-with-immutable-args/ClonesWithImmutableArgs.sol\":5269:5286  creationSize - 10 */\n      sub\n        /* \"clones-with-immutable-args/ClonesWithImmutableArgs.sol\":5251:5286  uint256 runSize = creationSize - 10 */\n      swap1\n      pop\n        /* \"clones-with-immutable-args/ClonesWithImmutableArgs.sol\":5300:5315  uint256 dataPtr */\n      0x00\n        /* \"clones-with-immutable-args/ClonesWithImmutableArgs.sol\":5329:5340  uint256 ptr */\n      dup1\n        /* \"clones-with-immutable-args/ClonesWithImmutableArgs.sol\":5455:5459  0x40 */\n      0x40\n        /* \"clones-with-immutable-args/ClonesWithImmutableArgs.sol\":5449:5460  mload(0x40) */\n      mload\n        /* \"clones-with-immutable-args/ClonesWithImmutableArgs.sol\":5442:5460  ret := mload(0x40) */\n      swap6\n      pop\n        /* \"clones-with-immutable-args/ClonesWithImmutableArgs.sol\":5489:5501  creationSize */\n      dup4\n        /* \"clones-with-immutable-args/ClonesWithImmutableArgs.sol\":5484:5487  ret */\n      dup7\n        /* \"clones-with-immutable-args/ClonesWithImmutableArgs.sol\":5477:5502  mstore(ret, creationSize) */\n      mstore\n        /* \"clones-with-immutable-args/ClonesWithImmutableArgs.sol\":5541:5553  creationSize */\n      dup4\n        /* \"clones-with-immutable-args/ClonesWithImmutableArgs.sol\":5536:5539  ret */\n      dup7\n        /* \"clones-with-immutable-args/ClonesWithImmutableArgs.sol\":5532:5554  add(ret, creationSize) */\n      add\n        /* \"clones-with-immutable-args/ClonesWithImmutableArgs.sol\":5526:5530  0x40 */\n      0x40\n        /* \"clones-with-immutable-args/ClonesWithImmutableArgs.sol\":5519:5555  mstore(0x40, add(ret, creationSize)) */\n      mstore\n        /* \"clones-with-immutable-args/ClonesWithImmutableArgs.sol\":5588:5592  0x20 */\n      0x20\n        /* \"clones-with-immutable-args/ClonesWithImmutableArgs.sol\":5583:5586  ret */\n      dup7\n        /* \"clones-with-immutable-args/ClonesWithImmutableArgs.sol\":5579:5593  add(ret, 0x20) */\n      add\n        /* \"clones-with-immutable-args/ClonesWithImmutableArgs.sol\":5572:5593  ptr := add(ret, 0x20) */\n      swap1\n      pop\n        /* \"clones-with-immutable-args/ClonesWithImmutableArgs.sol\":6055:6121  0x6100000000000000000000000000000000000000000000000000000000000000 */\n      0x6100000000000000000000000000000000000000000000000000000000000000\n        /* \"clones-with-immutable-args/ClonesWithImmutableArgs.sol\":6030:6033  ptr */\n      dup2\n        /* \"clones-with-immutable-args/ClonesWithImmutableArgs.sol\":6002:6139  mstore(... */\n      mstore\n        /* \"clones-with-immutable-args/ClonesWithImmutableArgs.sol\":6188:6195  runSize */\n      dup3\n        /* \"clones-with-immutable-args/ClonesWithImmutableArgs.sol\":6183:6186  240 */\n      0xf0\n        /* \"clones-with-immutable-args/ClonesWithImmutableArgs.sol\":6179:6196  shl(240, runSize) */\n      shl\n        /* \"clones-with-immutable-args/ClonesWithImmutableArgs.sol\":6172:6176  0x01 */\n      0x01\n        /* \"clones-with-immutable-args/ClonesWithImmutableArgs.sol\":6167:6170  ptr */\n      dup3\n        /* \"clones-with-immutable-args/ClonesWithImmutableArgs.sol\":6163:6177  add(ptr, 0x01) */\n      add\n        /* \"clones-with-immutable-args/ClonesWithImmutableArgs.sol\":6156:6197  mstore(add(ptr, 0x01), shl(240, runSize)) */\n      mstore\n        /* \"clones-with-immutable-args/ClonesWithImmutableArgs.sol\":8151:8217  0x3d81600a3d39f33d3d3d3d363d3d376100000000000000000000000000000000 */\n      0x3d81600a3d39f33d3d3d3d363d3d376100000000000000000000000000000000\n        /* \"clones-with-immutable-args/ClonesWithImmutableArgs.sol\":8124:8128  0x03 */\n      0x03\n        /* \"clones-with-immutable-args/ClonesWithImmutableArgs.sol\":8119:8122  ptr */\n      dup3\n        /* \"clones-with-immutable-args/ClonesWithImmutableArgs.sol\":8115:8129  add(ptr, 0x03) */\n      add\n        /* \"clones-with-immutable-args/ClonesWithImmutableArgs.sol\":8087:8235  mstore(... */\n      mstore\n        /* \"clones-with-immutable-args/ClonesWithImmutableArgs.sol\":8284:8295  extraLength */\n      dup5\n        /* \"clones-with-immutable-args/ClonesWithImmutableArgs.sol\":8279:8282  240 */\n      0xf0\n        /* \"clones-with-immutable-args/ClonesWithImmutableArgs.sol\":8275:8296  shl(240, extraLength) */\n      shl\n        /* \"clones-with-immutable-args/ClonesWithImmutableArgs.sol\":8268:8272  0x13 */\n      0x13\n        /* \"clones-with-immutable-args/ClonesWithImmutableArgs.sol\":8263:8266  ptr */\n      dup3\n        /* \"clones-with-immutable-args/ClonesWithImmutableArgs.sol\":8259:8273  add(ptr, 0x13) */\n      add\n        /* \"clones-with-immutable-args/ClonesWithImmutableArgs.sol\":8252:8297  mstore(add(ptr, 0x13), shl(240, extraLength)) */\n      mstore\n        /* \"clones-with-immutable-args/ClonesWithImmutableArgs.sol\":9050:9116  0x6037363936610000000000000000000000000000000000000000000000000000 */\n      0x6037363936610000000000000000000000000000000000000000000000000000\n        /* \"clones-with-immutable-args/ClonesWithImmutableArgs.sol\":9023:9027  0x15 */\n      0x15\n        /* \"clones-with-immutable-args/ClonesWithImmutableArgs.sol\":9018:9021  ptr */\n      dup3\n        /* \"clones-with-immutable-args/ClonesWithImmutableArgs.sol\":9014:9028  add(ptr, 0x15) */\n      add\n        /* \"clones-with-immutable-args/ClonesWithImmutableArgs.sol\":8986:9134  mstore(... */\n      mstore\n        /* \"clones-with-immutable-args/ClonesWithImmutableArgs.sol\":9183:9194  extraLength */\n      dup5\n        /* \"clones-with-immutable-args/ClonesWithImmutableArgs.sol\":9178:9181  240 */\n      0xf0\n        /* \"clones-with-immutable-args/ClonesWithImmutableArgs.sol\":9174:9195  shl(240, extraLength) */\n      shl\n        /* \"clones-with-immutable-args/ClonesWithImmutableArgs.sol\":9167:9171  0x1b */\n      0x1b\n        /* \"clones-with-immutable-args/ClonesWithImmutableArgs.sol\":9162:9165  ptr */\n      dup3\n        /* \"clones-with-immutable-args/ClonesWithImmutableArgs.sol\":9158:9172  add(ptr, 0x1b) */\n      add\n        /* \"clones-with-immutable-args/ClonesWithImmutableArgs.sol\":9151:9196  mstore(add(ptr, 0x1b), shl(240, extraLength)) */\n      mstore\n        /* \"clones-with-immutable-args/ClonesWithImmutableArgs.sol\":9697:9763  0x013d730000000000000000000000000000000000000000000000000000000000 */\n      0x013d730000000000000000000000000000000000000000000000000000000000\n        /* \"clones-with-immutable-args/ClonesWithImmutableArgs.sol\":9670:9674  0x1d */\n      0x1d\n        /* \"clones-with-immutable-args/ClonesWithImmutableArgs.sol\":9665:9668  ptr */\n      dup3\n        /* \"clones-with-immutable-args/ClonesWithImmutableArgs.sol\":9661:9675  add(ptr, 0x1d) */\n      add\n        /* \"clones-with-immutable-args/ClonesWithImmutableArgs.sol\":9633:9781  mstore(... */\n      mstore\n        /* \"clones-with-immutable-args/ClonesWithImmutableArgs.sol\":9831:9845  implementation */\n      dup8\n        /* \"clones-with-immutable-args/ClonesWithImmutableArgs.sol\":9825:9829  0x60 */\n      0x60\n        /* \"clones-with-immutable-args/ClonesWithImmutableArgs.sol\":9821:9846  shl(0x60, implementation) */\n      shl\n        /* \"clones-with-immutable-args/ClonesWithImmutableArgs.sol\":9814:9818  0x20 */\n      0x20\n        /* \"clones-with-immutable-args/ClonesWithImmutableArgs.sol\":9809:9812  ptr */\n      dup3\n        /* \"clones-with-immutable-args/ClonesWithImmutableArgs.sol\":9805:9819  add(ptr, 0x20) */\n      add\n        /* \"clones-with-immutable-args/ClonesWithImmutableArgs.sol\":9798:9847  mstore(add(ptr, 0x20), shl(0x60, implementation)) */\n      mstore\n        /* \"clones-with-immutable-args/ClonesWithImmutableArgs.sol\":11528:11594  0x5af43d3d93803e603557fd5bf300000000000000000000000000000000000000 */\n      0x5af43d3d93803e603557fd5bf300000000000000000000000000000000000000\n        /* \"clones-with-immutable-args/ClonesWithImmutableArgs.sol\":11501:11505  0x34 */\n      0x34\n        /* \"clones-with-immutable-args/ClonesWithImmutableArgs.sol\":11496:11499  ptr */\n      dup3\n        /* \"clones-with-immutable-args/ClonesWithImmutableArgs.sol\":11492:11506  add(ptr, 0x34) */\n      add\n        /* \"clones-with-immutable-args/ClonesWithImmutableArgs.sol\":11464:11612  mstore(... */\n      mstore\n        /* \"clones-with-immutable-args/ClonesWithImmutableArgs.sol\":12033:12034  2 */\n      0x02\n        /* \"clones-with-immutable-args/ClonesWithImmutableArgs.sol\":12018:12034  extraLength -= 2 */\n      dup6\n      sub\n      swap5\n      pop\n        /* \"clones-with-immutable-args/ClonesWithImmutableArgs.sol\":12048:12063  uint256 counter */\n      0x00\n        /* \"clones-with-immutable-args/ClonesWithImmutableArgs.sol\":12066:12077  extraLength */\n      dup6\n        /* \"clones-with-immutable-args/ClonesWithImmutableArgs.sol\":12048:12077  uint256 counter = extraLength */\n      swap1\n      pop\n        /* \"clones-with-immutable-args/ClonesWithImmutableArgs.sol\":12091:12106  uint256 copyPtr */\n      0x00\n        /* \"clones-with-immutable-args/ClonesWithImmutableArgs.sol\":12115:12119  0x41 */\n      0x41\n        /* \"clones-with-immutable-args/ClonesWithImmutableArgs.sol\":12109:12112  ptr */\n      dup4\n        /* \"clones-with-immutable-args/ClonesWithImmutableArgs.sol\":12109:12119  ptr + 0x41 */\n      add\n        /* \"clones-with-immutable-args/ClonesWithImmutableArgs.sol\":12091:12119  uint256 copyPtr = ptr + 0x41 */\n      swap1\n      pop\n        /* \"clones-with-immutable-args/ClonesWithImmutableArgs.sol\":12241:12243  32 */\n      0x20\n        /* \"clones-with-immutable-args/ClonesWithImmutableArgs.sol\":12235:12239  data */\n      dup10\n        /* \"clones-with-immutable-args/ClonesWithImmutableArgs.sol\":12231:12244  add(data, 32) */\n      add\n        /* \"clones-with-immutable-args/ClonesWithImmutableArgs.sol\":12220:12244  dataPtr := add(data, 32) */\n      swap4\n      pop\n        /* \"clones-with-immutable-args/ClonesWithImmutableArgs.sol\":12271:12547  for (; counter >= 32; counter -= 32) {... */\n    tag_46:\n        /* \"clones-with-immutable-args/ClonesWithImmutableArgs.sol\":12289:12291  32 */\n      0x20\n        /* \"clones-with-immutable-args/ClonesWithImmutableArgs.sol\":12278:12285  counter */\n      dup3\n        /* \"clones-with-immutable-args/ClonesWithImmutableArgs.sol\":12278:12291  counter >= 32 */\n      lt\n        /* \"clones-with-immutable-args/ClonesWithImmutableArgs.sol\":12271:12547  for (; counter >= 32; counter -= 32) {... */\n      tag_47\n      jumpi\n        /* \"clones-with-immutable-args/ClonesWithImmutableArgs.sol\":12443:12450  dataPtr */\n      dup4\n        /* \"clones-with-immutable-args/ClonesWithImmutableArgs.sol\":12437:12451  mload(dataPtr) */\n      mload\n        /* \"clones-with-immutable-args/ClonesWithImmutableArgs.sol\":12428:12435  copyPtr */\n      dup2\n        /* \"clones-with-immutable-args/ClonesWithImmutableArgs.sol\":12421:12452  mstore(copyPtr, mload(dataPtr)) */\n      mstore\n        /* \"clones-with-immutable-args/ClonesWithImmutableArgs.sol\":12499:12501  32 */\n      0x20\n        /* \"clones-with-immutable-args/ClonesWithImmutableArgs.sol\":12488:12501  copyPtr += 32 */\n      dup2\n      add\n      swap1\n      pop\n        /* \"clones-with-immutable-args/ClonesWithImmutableArgs.sol\":12530:12532  32 */\n      0x20\n        /* \"clones-with-immutable-args/ClonesWithImmutableArgs.sol\":12519:12532  dataPtr += 32 */\n      dup5\n      add\n      swap4\n      pop\n        /* \"clones-with-immutable-args/ClonesWithImmutableArgs.sol\":12304:12306  32 */\n      0x20\n        /* \"clones-with-immutable-args/ClonesWithImmutableArgs.sol\":12293:12306  counter -= 32 */\n      dup3\n      sub\n      swap2\n      pop\n        /* \"clones-with-immutable-args/ClonesWithImmutableArgs.sol\":12271:12547  for (; counter >= 32; counter -= 32) {... */\n      jump(tag_46)\n    tag_47:\n        /* \"clones-with-immutable-args/ClonesWithImmutableArgs.sol\":12560:12572  uint256 mask */\n      0x00\n        /* \"clones-with-immutable-args/ClonesWithImmutableArgs.sol\":12599:12600  1 */\n      0x01\n        /* \"clones-with-immutable-args/ClonesWithImmutableArgs.sol\":12588:12595  counter */\n      dup4\n        /* \"clones-with-immutable-args/ClonesWithImmutableArgs.sol\":12583:12585  32 */\n      0x20\n        /* \"clones-with-immutable-args/ClonesWithImmutableArgs.sol\":12583:12595  32 - counter */\n      sub\n        /* \"clones-with-immutable-args/ClonesWithImmutableArgs.sol\":12577:12580  256 */\n      0x0100\n        /* \"clones-with-immutable-args/ClonesWithImmutableArgs.sol\":12577:12596  256**(32 - counter) */\n      exp\n        /* \"clones-with-immutable-args/ClonesWithImmutableArgs.sol\":12577:12600  256**(32 - counter) - 1 */\n      sub\n        /* \"clones-with-immutable-args/ClonesWithImmutableArgs.sol\":12575:12601  ~(256**(32 - counter) - 1) */\n      not\n        /* \"clones-with-immutable-args/ClonesWithImmutableArgs.sol\":12560:12601  uint256 mask = ~(256**(32 - counter) - 1) */\n      swap1\n      pop\n        /* \"clones-with-immutable-args/ClonesWithImmutableArgs.sol\":12738:12742  mask */\n      dup1\n        /* \"clones-with-immutable-args/ClonesWithImmutableArgs.sol\":12728:12735  dataPtr */\n      dup6\n        /* \"clones-with-immutable-args/ClonesWithImmutableArgs.sol\":12722:12736  mload(dataPtr) */\n      mload\n        /* \"clones-with-immutable-args/ClonesWithImmutableArgs.sol\":12718:12743  and(mload(dataPtr), mask) */\n      and\n        /* \"clones-with-immutable-args/ClonesWithImmutableArgs.sol\":12709:12716  copyPtr */\n      dup3\n        /* \"clones-with-immutable-args/ClonesWithImmutableArgs.sol\":12702:12744  mstore(copyPtr, and(mload(dataPtr), mask)) */\n      mstore\n        /* \"clones-with-immutable-args/ClonesWithImmutableArgs.sol\":12782:12789  counter */\n      dup3\n        /* \"clones-with-immutable-args/ClonesWithImmutableArgs.sol\":12771:12789  copyPtr += counter */\n      dup3\n      add\n      swap2\n      pop\n        /* \"clones-with-immutable-args/ClonesWithImmutableArgs.sol\":12915:12926  extraLength */\n      dup8\n        /* \"clones-with-immutable-args/ClonesWithImmutableArgs.sol\":12910:12913  240 */\n      0xf0\n        /* \"clones-with-immutable-args/ClonesWithImmutableArgs.sol\":12906:12927  shl(240, extraLength) */\n      shl\n        /* \"clones-with-immutable-args/ClonesWithImmutableArgs.sol\":12897:12904  copyPtr */\n      dup3\n        /* \"clones-with-immutable-args/ClonesWithImmutableArgs.sol\":12890:12928  mstore(copyPtr, shl(240, extraLength)) */\n      mstore\n        /* \"clones-with-immutable-args/ClonesWithImmutableArgs.sol\":12872:12942  {... */\n      pop\n      pop\n      pop\n      pop\n      pop\n      pop\n      pop\n      pop\n        /* \"clones-with-immutable-args/ClonesWithImmutableArgs.sol\":4858:12958  function getCreationBytecode(address implementation, bytes memory data) internal pure returns (bytes memory ret) {... */\n      swap3\n      swap2\n      pop\n      pop\n      jump\t// out\n        /* \"#utility.yul\":88:205   */\n    tag_50:\n        /* \"#utility.yul\":197:198   */\n      0x00\n        /* \"#utility.yul\":194:195   */\n      dup1\n        /* \"#utility.yul\":187:199   */\n      revert\n        /* \"#utility.yul\":211:328   */\n    tag_51:\n        /* \"#utility.yul\":320:321   */\n      0x00\n        /* \"#utility.yul\":317:318   */\n      dup1\n        /* \"#utility.yul\":310:322   */\n      revert\n        /* \"#utility.yul\":334:451   */\n    tag_52:\n        /* \"#utility.yul\":443:444   */\n      0x00\n        /* \"#utility.yul\":440:441   */\n      dup1\n        /* \"#utility.yul\":433:445   */\n      revert\n        /* \"#utility.yul\":486:724   */\n    tag_53:\n        /* \"#utility.yul\":565:570   */\n      0x00\n        /* \"#utility.yul\":606:609   */\n      0x0100\n        /* \"#utility.yul\":597:603   */\n      dup3\n        /* \"#utility.yul\":592:595   */\n      dup5\n        /* \"#utility.yul\":588:604   */\n      sub\n        /* \"#utility.yul\":584:610   */\n      slt\n        /* \"#utility.yul\":581:694   */\n      iszero\n      tag_92\n      jumpi\n        /* \"#utility.yul\":613:692   */\n      tag_93\n      tag_52\n      jump\t// in\n    tag_93:\n        /* \"#utility.yul\":581:694   */\n    tag_92:\n        /* \"#utility.yul\":712:718   */\n      dup2\n        /* \"#utility.yul\":703:718   */\n      swap1\n      pop\n        /* \"#utility.yul\":486:724   */\n      swap3\n      swap2\n      pop\n      pop\n      jump\t// out\n        /* \"#utility.yul\":756:990   */\n    tag_54:\n        /* \"#utility.yul\":832:837   */\n      0x00\n        /* \"#utility.yul\":873:875   */\n      0x60\n        /* \"#utility.yul\":864:870   */\n      dup3\n        /* \"#utility.yul\":859:862   */\n      dup5\n        /* \"#utility.yul\":855:871   */\n      sub\n        /* \"#utility.yul\":851:876   */\n      slt\n        /* \"#utility.yul\":848:960   */\n      iszero\n      tag_95\n      jumpi\n        /* \"#utility.yul\":879:958   */\n      tag_96\n      tag_52\n      jump\t// in\n    tag_96:\n        /* \"#utility.yul\":848:960   */\n    tag_95:\n        /* \"#utility.yul\":978:984   */\n      dup2\n        /* \"#utility.yul\":969:984   */\n      swap1\n      pop\n        /* \"#utility.yul\":756:990   */\n      swap3\n      swap2\n      pop\n      pop\n      jump\t// out\n        /* \"#utility.yul\":996:1113   */\n    tag_55:\n        /* \"#utility.yul\":1105:1106   */\n      0x00\n        /* \"#utility.yul\":1102:1103   */\n      dup1\n        /* \"#utility.yul\":1095:1107   */\n      revert\n        /* \"#utility.yul\":1119:1236   */\n    tag_56:\n        /* \"#utility.yul\":1228:1229   */\n      0x00\n        /* \"#utility.yul\":1225:1226   */\n      dup1\n        /* \"#utility.yul\":1218:1230   */\n      revert\n        /* \"#utility.yul\":1242:1359   */\n    tag_57:\n        /* \"#utility.yul\":1351:1352   */\n      0x00\n        /* \"#utility.yul\":1348:1349   */\n      dup1\n        /* \"#utility.yul\":1341:1353   */\n      revert\n        /* \"#utility.yul\":1378:1930   */\n    tag_58:\n        /* \"#utility.yul\":1435:1443   */\n      0x00\n        /* \"#utility.yul\":1445:1451   */\n      dup1\n        /* \"#utility.yul\":1495:1498   */\n      dup4\n        /* \"#utility.yul\":1488:1492   */\n      0x1f\n        /* \"#utility.yul\":1480:1486   */\n      dup5\n        /* \"#utility.yul\":1476:1493   */\n      add\n        /* \"#utility.yul\":1472:1499   */\n      slt\n        /* \"#utility.yul\":1462:1584   */\n      tag_101\n      jumpi\n        /* \"#utility.yul\":1503:1582   */\n      tag_102\n      tag_55\n      jump\t// in\n    tag_102:\n        /* \"#utility.yul\":1462:1584   */\n    tag_101:\n        /* \"#utility.yul\":1616:1622   */\n      dup3\n        /* \"#utility.yul\":1603:1623   */\n      calldataload\n        /* \"#utility.yul\":1593:1623   */\n      swap1\n      pop\n        /* \"#utility.yul\":1646:1664   */\n      0xffffffffffffffff\n        /* \"#utility.yul\":1638:1644   */\n      dup2\n        /* \"#utility.yul\":1635:1665   */\n      gt\n        /* \"#utility.yul\":1632:1749   */\n      iszero\n      tag_103\n      jumpi\n        /* \"#utility.yul\":1668:1747   */\n      tag_104\n      tag_56\n      jump\t// in\n    tag_104:\n        /* \"#utility.yul\":1632:1749   */\n    tag_103:\n        /* \"#utility.yul\":1782:1786   */\n      0x20\n        /* \"#utility.yul\":1774:1780   */\n      dup4\n        /* \"#utility.yul\":1770:1787   */\n      add\n        /* \"#utility.yul\":1758:1787   */\n      swap2\n      pop\n        /* \"#utility.yul\":1836:1839   */\n      dup4\n        /* \"#utility.yul\":1828:1832   */\n      0x01\n        /* \"#utility.yul\":1820:1826   */\n      dup3\n        /* \"#utility.yul\":1816:1833   */\n      mul\n        /* \"#utility.yul\":1806:1814   */\n      dup4\n        /* \"#utility.yul\":1802:1834   */\n      add\n        /* \"#utility.yul\":1799:1840   */\n      gt\n        /* \"#utility.yul\":1796:1924   */\n      iszero\n      tag_105\n      jumpi\n        /* \"#utility.yul\":1843:1922   */\n      tag_106\n      tag_57\n      jump\t// in\n    tag_106:\n        /* \"#utility.yul\":1796:1924   */\n    tag_105:\n        /* \"#utility.yul\":1378:1930   */\n      swap3\n      pop\n      swap3\n      swap1\n      pop\n      jump\t// out\n        /* \"#utility.yul\":1936:3199   */\n    tag_8:\n        /* \"#utility.yul\":2087:2093   */\n      0x00\n        /* \"#utility.yul\":2095:2101   */\n      dup1\n        /* \"#utility.yul\":2103:2109   */\n      0x00\n        /* \"#utility.yul\":2111:2117   */\n      dup1\n        /* \"#utility.yul\":2160:2162   */\n      0x60\n        /* \"#utility.yul\":2148:2157   */\n      dup6\n        /* \"#utility.yul\":2139:2146   */\n      dup8\n        /* \"#utility.yul\":2135:2158   */\n      sub\n        /* \"#utility.yul\":2131:2163   */\n      slt\n        /* \"#utility.yul\":2128:2247   */\n      iszero\n      tag_108\n      jumpi\n        /* \"#utility.yul\":2166:2245   */\n      tag_109\n      tag_50\n      jump\t// in\n    tag_109:\n        /* \"#utility.yul\":2128:2247   */\n    tag_108:\n        /* \"#utility.yul\":2314:2315   */\n      0x00\n        /* \"#utility.yul\":2303:2312   */\n      dup6\n        /* \"#utility.yul\":2299:2316   */\n      add\n        /* \"#utility.yul\":2286:2317   */\n      calldataload\n        /* \"#utility.yul\":2344:2362   */\n      0xffffffffffffffff\n        /* \"#utility.yul\":2336:2342   */\n      dup2\n        /* \"#utility.yul\":2333:2363   */\n      gt\n        /* \"#utility.yul\":2330:2447   */\n      iszero\n      tag_110\n      jumpi\n        /* \"#utility.yul\":2366:2445   */\n      tag_111\n      tag_51\n      jump\t// in\n    tag_111:\n        /* \"#utility.yul\":2330:2447   */\n    tag_110:\n        /* \"#utility.yul\":2471:2557   */\n      tag_112\n        /* \"#utility.yul\":2549:2556   */\n      dup8\n        /* \"#utility.yul\":2540:2546   */\n      dup3\n        /* \"#utility.yul\":2529:2538   */\n      dup9\n        /* \"#utility.yul\":2525:2547   */\n      add\n        /* \"#utility.yul\":2471:2557   */\n      tag_53\n      jump\t// in\n    tag_112:\n        /* \"#utility.yul\":2461:2557   */\n      swap5\n      pop\n        /* \"#utility.yul\":2257:2567   */\n      pop\n        /* \"#utility.yul\":2634:2636   */\n      0x20\n        /* \"#utility.yul\":2623:2632   */\n      dup6\n        /* \"#utility.yul\":2619:2637   */\n      add\n        /* \"#utility.yul\":2606:2638   */\n      calldataload\n        /* \"#utility.yul\":2665:2683   */\n      0xffffffffffffffff\n        /* \"#utility.yul\":2657:2663   */\n      dup2\n        /* \"#utility.yul\":2654:2684   */\n      gt\n        /* \"#utility.yul\":2651:2768   */\n      iszero\n      tag_113\n      jumpi\n        /* \"#utility.yul\":2687:2766   */\n      tag_114\n      tag_51\n      jump\t// in\n    tag_114:\n        /* \"#utility.yul\":2651:2768   */\n    tag_113:\n        /* \"#utility.yul\":2792:2875   */\n      tag_115\n        /* \"#utility.yul\":2867:2874   */\n      dup8\n        /* \"#utility.yul\":2858:2864   */\n      dup3\n        /* \"#utility.yul\":2847:2856   */\n      dup9\n        /* \"#utility.yul\":2843:2865   */\n      add\n        /* \"#utility.yul\":2792:2875   */\n      tag_54\n      jump\t// in\n    tag_115:\n        /* \"#utility.yul\":2782:2875   */\n      swap4\n      pop\n        /* \"#utility.yul\":2577:2885   */\n      pop\n        /* \"#utility.yul\":2952:2954   */\n      0x40\n        /* \"#utility.yul\":2941:2950   */\n      dup6\n        /* \"#utility.yul\":2937:2955   */\n      add\n        /* \"#utility.yul\":2924:2956   */\n      calldataload\n        /* \"#utility.yul\":2983:3001   */\n      0xffffffffffffffff\n        /* \"#utility.yul\":2975:2981   */\n      dup2\n        /* \"#utility.yul\":2972:3002   */\n      gt\n        /* \"#utility.yul\":2969:3086   */\n      iszero\n      tag_116\n      jumpi\n        /* \"#utility.yul\":3005:3084   */\n      tag_117\n      tag_51\n      jump\t// in\n    tag_117:\n        /* \"#utility.yul\":2969:3086   */\n    tag_116:\n        /* \"#utility.yul\":3118:3182   */\n      tag_118\n        /* \"#utility.yul\":3174:3181   */\n      dup8\n        /* \"#utility.yul\":3165:3171   */\n      dup3\n        /* \"#utility.yul\":3154:3163   */\n      dup9\n        /* \"#utility.yul\":3150:3172   */\n      add\n        /* \"#utility.yul\":3118:3182   */\n      tag_58\n      jump\t// in\n    tag_118:\n        /* \"#utility.yul\":3100:3182   */\n      swap3\n      pop\n      swap3\n      pop\n        /* \"#utility.yul\":2895:3192   */\n      pop\n        /* \"#utility.yul\":1936:3199   */\n      swap3\n      swap6\n      swap2\n      swap5\n      pop\n      swap3\n      pop\n      jump\t// out\n        /* \"#utility.yul\":3205:3331   */\n    tag_59:\n        /* \"#utility.yul\":3242:3249   */\n      0x00\n        /* \"#utility.yul\":3282:3324   */\n      0xffffffffffffffffffffffffffffffffffffffff\n        /* \"#utility.yul\":3275:3280   */\n      dup3\n        /* \"#utility.yul\":3271:3325   */\n      and\n        /* \"#utility.yul\":3260:3325   */\n      swap1\n      pop\n        /* \"#utility.yul\":3205:3331   */\n      swap2\n      swap1\n      pop\n      jump\t// out\n        /* \"#utility.yul\":3337:3433   */\n    tag_60:\n        /* \"#utility.yul\":3374:3381   */\n      0x00\n        /* \"#utility.yul\":3403:3427   */\n      tag_121\n        /* \"#utility.yul\":3421:3426   */\n      dup3\n        /* \"#utility.yul\":3403:3427   */\n      tag_59\n      jump\t// in\n    tag_121:\n        /* \"#utility.yul\":3392:3427   */\n      swap1\n      pop\n        /* \"#utility.yul\":3337:3433   */\n      swap2\n      swap1\n      pop\n      jump\t// out\n        /* \"#utility.yul\":3439:3557   */\n    tag_61:\n        /* \"#utility.yul\":3526:3550   */\n      tag_123\n        /* \"#utility.yul\":3544:3549   */\n      dup2\n        /* \"#utility.yul\":3526:3550   */\n      tag_60\n      jump\t// in\n    tag_123:\n        /* \"#utility.yul\":3521:3524   */\n      dup3\n        /* \"#utility.yul\":3514:3551   */\n      mstore\n        /* \"#utility.yul\":3439:3557   */\n      pop\n      pop\n      jump\t// out\n        /* \"#utility.yul\":3563:3895   */\n    tag_11:\n        /* \"#utility.yul\":3684:3688   */\n      0x00\n        /* \"#utility.yul\":3722:3724   */\n      0x40\n        /* \"#utility.yul\":3711:3720   */\n      dup3\n        /* \"#utility.yul\":3707:3725   */\n      add\n        /* \"#utility.yul\":3699:3725   */\n      swap1\n      pop\n        /* \"#utility.yul\":3735:3806   */\n      tag_125\n        /* \"#utility.yul\":3803:3804   */\n      0x00\n        /* \"#utility.yul\":3792:3801   */\n      dup4\n        /* \"#utility.yul\":3788:3805   */\n      add\n        /* \"#utility.yul\":3779:3785   */\n      dup6\n        /* \"#utility.yul\":3735:3806   */\n      tag_61\n      jump\t// in\n    tag_125:\n        /* \"#utility.yul\":3816:3888   */\n      tag_126\n        /* \"#utility.yul\":3884:3886   */\n      0x20\n        /* \"#utility.yul\":3873:3882   */\n      dup4\n        /* \"#utility.yul\":3869:3887   */\n      add\n        /* \"#utility.yul\":3860:3866   */\n      dup5\n        /* \"#utility.yul\":3816:3888   */\n      tag_61\n      jump\t// in\n    tag_126:\n        /* \"#utility.yul\":3563:3895   */\n      swap4\n      swap3\n      pop\n      pop\n      pop\n      jump\t// out\n        /* \"#utility.yul\":3901:4123   */\n    tag_15:\n        /* \"#utility.yul\":3994:3998   */\n      0x00\n        /* \"#utility.yul\":4032:4034   */\n      0x20\n        /* \"#utility.yul\":4021:4030   */\n      dup3\n        /* \"#utility.yul\":4017:4035   */\n      add\n        /* \"#utility.yul\":4009:4035   */\n      swap1\n      pop\n        /* \"#utility.yul\":4045:4116   */\n      tag_128\n        /* \"#utility.yul\":4113:4114   */\n      0x00\n        /* \"#utility.yul\":4102:4111   */\n      dup4\n        /* \"#utility.yul\":4098:4115   */\n      add\n        /* \"#utility.yul\":4089:4095   */\n      dup5\n        /* \"#utility.yul\":4045:4116   */\n      tag_61\n      jump\t// in\n    tag_128:\n        /* \"#utility.yul\":3901:4123   */\n      swap3\n      swap2\n      pop\n      pop\n      jump\t// out\n        /* \"#utility.yul\":4129:4246   */\n    tag_62:\n        /* \"#utility.yul\":4238:4239   */\n      0x00\n        /* \"#utility.yul\":4235:4236   */\n      dup1\n        /* \"#utility.yul\":4228:4240   */\n      revert\n        /* \"#utility.yul\":4252:4369   */\n    tag_63:\n        /* \"#utility.yul\":4361:4362   */\n      0x00\n        /* \"#utility.yul\":4358:4359   */\n      dup1\n        /* \"#utility.yul\":4351:4363   */\n      revert\n        /* \"#utility.yul\":4375:4492   */\n    tag_64:\n        /* \"#utility.yul\":4484:4485   */\n      0x00\n        /* \"#utility.yul\":4481:4482   */\n      dup1\n        /* \"#utility.yul\":4474:4486   */\n      revert\n        /* \"#utility.yul\":4498:5222   */\n    tag_22:\n        /* \"#utility.yul\":4575:4579   */\n      0x00\n        /* \"#utility.yul\":4581:4587   */\n      dup1\n        /* \"#utility.yul\":4637:4648   */\n      dup4\n        /* \"#utility.yul\":4624:4649   */\n      calldataload\n        /* \"#utility.yul\":4737:4738   */\n      0x01\n        /* \"#utility.yul\":4731:4735   */\n      0x20\n        /* \"#utility.yul\":4727:4739   */\n      sub\n        /* \"#utility.yul\":4716:4724   */\n      dup5\n        /* \"#utility.yul\":4700:4714   */\n      calldatasize\n        /* \"#utility.yul\":4696:4725   */\n      sub\n        /* \"#utility.yul\":4692:4740   */\n      sub\n        /* \"#utility.yul\":4672:4690   */\n      dup2\n        /* \"#utility.yul\":4668:4741   */\n      slt\n        /* \"#utility.yul\":4658:4826   */\n      tag_133\n      jumpi\n        /* \"#utility.yul\":4745:4824   */\n      tag_134\n      tag_62\n      jump\t// in\n    tag_134:\n        /* \"#utility.yul\":4658:4826   */\n    tag_133:\n        /* \"#utility.yul\":4857:4875   */\n      dup1\n        /* \"#utility.yul\":4847:4855   */\n      dup5\n        /* \"#utility.yul\":4843:4876   */\n      add\n        /* \"#utility.yul\":4835:4876   */\n      swap3\n      pop\n        /* \"#utility.yul\":4909:4913   */\n      dup3\n        /* \"#utility.yul\":4896:4914   */\n      calldataload\n        /* \"#utility.yul\":4886:4914   */\n      swap2\n      pop\n        /* \"#utility.yul\":4937:4955   */\n      0xffffffffffffffff\n        /* \"#utility.yul\":4929:4935   */\n      dup3\n        /* \"#utility.yul\":4926:4956   */\n      gt\n        /* \"#utility.yul\":4923:5040   */\n      iszero\n      tag_135\n      jumpi\n        /* \"#utility.yul\":4959:5038   */\n      tag_136\n      tag_63\n      jump\t// in\n    tag_136:\n        /* \"#utility.yul\":4923:5040   */\n    tag_135:\n        /* \"#utility.yul\":5067:5069   */\n      0x20\n        /* \"#utility.yul\":5061:5065   */\n      dup4\n        /* \"#utility.yul\":5057:5070   */\n      add\n        /* \"#utility.yul\":5049:5070   */\n      swap3\n      pop\n        /* \"#utility.yul\":5124:5128   */\n      0x01\n        /* \"#utility.yul\":5116:5122   */\n      dup3\n        /* \"#utility.yul\":5112:5129   */\n      mul\n        /* \"#utility.yul\":5096:5110   */\n      calldatasize\n        /* \"#utility.yul\":5092:5130   */\n      sub\n        /* \"#utility.yul\":5086:5090   */\n      dup4\n        /* \"#utility.yul\":5082:5131   */\n      sgt\n        /* \"#utility.yul\":5079:5215   */\n      iszero\n      tag_137\n      jumpi\n        /* \"#utility.yul\":5134:5213   */\n      tag_138\n      tag_64\n      jump\t// in\n    tag_138:\n        /* \"#utility.yul\":5079:5215   */\n    tag_137:\n        /* \"#utility.yul\":4588:5222   */\n      pop\n        /* \"#utility.yul\":4498:5222   */\n      swap3\n      pop\n      swap3\n      swap1\n      pop\n      jump\t// out\n        /* \"#utility.yul\":5228:5350   */\n    tag_65:\n        /* \"#utility.yul\":5301:5325   */\n      tag_140\n        /* \"#utility.yul\":5319:5324   */\n      dup2\n        /* \"#utility.yul\":5301:5325   */\n      tag_60\n      jump\t// in\n    tag_140:\n        /* \"#utility.yul\":5294:5299   */\n      dup2\n        /* \"#utility.yul\":5291:5326   */\n      eq\n        /* \"#utility.yul\":5281:5344   */\n      tag_141\n      jumpi\n        /* \"#utility.yul\":5340:5341   */\n      0x00\n        /* \"#utility.yul\":5337:5338   */\n      dup1\n        /* \"#utility.yul\":5330:5342   */\n      revert\n        /* \"#utility.yul\":5281:5344   */\n    tag_141:\n        /* \"#utility.yul\":5228:5350   */\n      pop\n      jump\t// out\n        /* \"#utility.yul\":5356:5495   */\n    tag_66:\n        /* \"#utility.yul\":5402:5407   */\n      0x00\n        /* \"#utility.yul\":5440:5446   */\n      dup2\n        /* \"#utility.yul\":5427:5447   */\n      calldataload\n        /* \"#utility.yul\":5418:5447   */\n      swap1\n      pop\n        /* \"#utility.yul\":5456:5489   */\n      tag_143\n        /* \"#utility.yul\":5483:5488   */\n      dup2\n        /* \"#utility.yul\":5456:5489   */\n      tag_65\n      jump\t// in\n    tag_143:\n        /* \"#utility.yul\":5356:5495   */\n      swap3\n      swap2\n      pop\n      pop\n      jump\t// out\n        /* \"#utility.yul\":5501:5830   */\n    tag_24:\n        /* \"#utility.yul\":5560:5566   */\n      0x00\n        /* \"#utility.yul\":5609:5611   */\n      0x20\n        /* \"#utility.yul\":5597:5606   */\n      dup3\n        /* \"#utility.yul\":5588:5595   */\n      dup5\n        /* \"#utility.yul\":5584:5607   */\n      sub\n        /* \"#utility.yul\":5580:5612   */\n      slt\n        /* \"#utility.yul\":5577:5696   */\n      iszero\n      tag_145\n      jumpi\n        /* \"#utility.yul\":5615:5694   */\n      tag_146\n      tag_50\n      jump\t// in\n    tag_146:\n        /* \"#utility.yul\":5577:5696   */\n    tag_145:\n        /* \"#utility.yul\":5735:5736   */\n      0x00\n        /* \"#utility.yul\":5760:5813   */\n      tag_147\n        /* \"#utility.yul\":5805:5812   */\n      dup5\n        /* \"#utility.yul\":5796:5802   */\n      dup3\n        /* \"#utility.yul\":5785:5794   */\n      dup6\n        /* \"#utility.yul\":5781:5803   */\n      add\n        /* \"#utility.yul\":5760:5813   */\n      tag_66\n      jump\t// in\n    tag_147:\n        /* \"#utility.yul\":5750:5813   */\n      swap2\n      pop\n        /* \"#utility.yul\":5706:5823   */\n      pop\n        /* \"#utility.yul\":5501:5830   */\n      swap3\n      swap2\n      pop\n      pop\n      jump\t// out\n        /* \"#utility.yul\":5836:5925   */\n    tag_67:\n        /* \"#utility.yul\":5872:5879   */\n      0x00\n        /* \"#utility.yul\":5912:5918   */\n      0xffff\n        /* \"#utility.yul\":5905:5910   */\n      dup3\n        /* \"#utility.yul\":5901:5919   */\n      and\n        /* \"#utility.yul\":5890:5919   */\n      swap1\n      pop\n        /* \"#utility.yul\":5836:5925   */\n      swap2\n      swap1\n      pop\n      jump\t// out\n        /* \"#utility.yul\":5931:6051   */\n    tag_68:\n        /* \"#utility.yul\":6003:6026   */\n      tag_150\n        /* \"#utility.yul\":6020:6025   */\n      dup2\n        /* \"#utility.yul\":6003:6026   */\n      tag_67\n      jump\t// in\n    tag_150:\n        /* \"#utility.yul\":5996:6001   */\n      dup2\n        /* \"#utility.yul\":5993:6027   */\n      eq\n        /* \"#utility.yul\":5983:6045   */\n      tag_151\n      jumpi\n        /* \"#utility.yul\":6041:6042   */\n      0x00\n        /* \"#utility.yul\":6038:6039   */\n      dup1\n        /* \"#utility.yul\":6031:6043   */\n      revert\n        /* \"#utility.yul\":5983:6045   */\n    tag_151:\n        /* \"#utility.yul\":5931:6051   */\n      pop\n      jump\t// out\n        /* \"#utility.yul\":6057:6194   */\n    tag_69:\n        /* \"#utility.yul\":6102:6107   */\n      0x00\n        /* \"#utility.yul\":6140:6146   */\n      dup2\n        /* \"#utility.yul\":6127:6147   */\n      calldataload\n        /* \"#utility.yul\":6118:6147   */\n      swap1\n      pop\n        /* \"#utility.yul\":6156:6188   */\n      tag_153\n        /* \"#utility.yul\":6182:6187   */\n      dup2\n        /* \"#utility.yul\":6156:6188   */\n      tag_68\n      jump\t// in\n    tag_153:\n        /* \"#utility.yul\":6057:6194   */\n      swap3\n      swap2\n      pop\n      pop\n      jump\t// out\n        /* \"#utility.yul\":6200:6527   */\n    tag_30:\n        /* \"#utility.yul\":6258:6264   */\n      0x00\n        /* \"#utility.yul\":6307:6309   */\n      0x20\n        /* \"#utility.yul\":6295:6304   */\n      dup3\n        /* \"#utility.yul\":6286:6293   */\n      dup5\n        /* \"#utility.yul\":6282:6305   */\n      sub\n        /* \"#utility.yul\":6278:6310   */\n      slt\n        /* \"#utility.yul\":6275:6394   */\n      iszero\n      tag_155\n      jumpi\n        /* \"#utility.yul\":6313:6392   */\n      tag_156\n      tag_50\n      jump\t// in\n    tag_156:\n        /* \"#utility.yul\":6275:6394   */\n    tag_155:\n        /* \"#utility.yul\":6433:6434   */\n      0x00\n        /* \"#utility.yul\":6458:6510   */\n      tag_157\n        /* \"#utility.yul\":6502:6509   */\n      dup5\n        /* \"#utility.yul\":6493:6499   */\n      dup3\n        /* \"#utility.yul\":6482:6491   */\n      dup6\n        /* \"#utility.yul\":6478:6500   */\n      add\n        /* \"#utility.yul\":6458:6510   */\n      tag_69\n      jump\t// in\n    tag_157:\n        /* \"#utility.yul\":6448:6510   */\n      swap2\n      pop\n        /* \"#utility.yul\":6404:6520   */\n      pop\n        /* \"#utility.yul\":6200:6527   */\n      swap3\n      swap2\n      pop\n      pop\n      jump\t// out\n        /* \"#utility.yul\":6533:6627   */\n    tag_70:\n        /* \"#utility.yul\":6566:6574   */\n      0x00\n        /* \"#utility.yul\":6614:6619   */\n      dup2\n        /* \"#utility.yul\":6610:6612   */\n      0x60\n        /* \"#utility.yul\":6606:6620   */\n      shl\n        /* \"#utility.yul\":6585:6620   */\n      swap1\n      pop\n        /* \"#utility.yul\":6533:6627   */\n      swap2\n      swap1\n      pop\n      jump\t// out\n        /* \"#utility.yul\":6633:6727   */\n    tag_71:\n        /* \"#utility.yul\":6672:6679   */\n      0x00\n        /* \"#utility.yul\":6701:6721   */\n      tag_160\n        /* \"#utility.yul\":6715:6720   */\n      dup3\n        /* \"#utility.yul\":6701:6721   */\n      tag_70\n      jump\t// in\n    tag_160:\n        /* \"#utility.yul\":6690:6721   */\n      swap1\n      pop\n        /* \"#utility.yul\":6633:6727   */\n      swap2\n      swap1\n      pop\n      jump\t// out\n        /* \"#utility.yul\":6733:6833   */\n    tag_72:\n        /* \"#utility.yul\":6772:6779   */\n      0x00\n        /* \"#utility.yul\":6801:6827   */\n      tag_162\n        /* \"#utility.yul\":6821:6826   */\n      dup3\n        /* \"#utility.yul\":6801:6827   */\n      tag_71\n      jump\t// in\n    tag_162:\n        /* \"#utility.yul\":6790:6827   */\n      swap1\n      pop\n        /* \"#utility.yul\":6733:6833   */\n      swap2\n      swap1\n      pop\n      jump\t// out\n        /* \"#utility.yul\":6839:6996   */\n    tag_73:\n        /* \"#utility.yul\":6944:6989   */\n      tag_164\n        /* \"#utility.yul\":6964:6988   */\n      tag_165\n        /* \"#utility.yul\":6982:6987   */\n      dup3\n        /* \"#utility.yul\":6964:6988   */\n      tag_60\n      jump\t// in\n    tag_165:\n        /* \"#utility.yul\":6944:6989   */\n      tag_72\n      jump\t// in\n    tag_164:\n        /* \"#utility.yul\":6939:6942   */\n      dup3\n        /* \"#utility.yul\":6932:6990   */\n      mstore\n        /* \"#utility.yul\":6839:6996   */\n      pop\n      pop\n      jump\t// out\n        /* \"#utility.yul\":7002:7079   */\n    tag_74:\n        /* \"#utility.yul\":7039:7046   */\n      0x00\n        /* \"#utility.yul\":7068:7073   */\n      dup2\n        /* \"#utility.yul\":7057:7073   */\n      swap1\n      pop\n        /* \"#utility.yul\":7002:7079   */\n      swap2\n      swap1\n      pop\n      jump\t// out\n        /* \"#utility.yul\":7085:7164   */\n    tag_75:\n        /* \"#utility.yul\":7124:7131   */\n      0x00\n        /* \"#utility.yul\":7153:7158   */\n      dup2\n        /* \"#utility.yul\":7142:7158   */\n      swap1\n      pop\n        /* \"#utility.yul\":7085:7164   */\n      swap2\n      swap1\n      pop\n      jump\t// out\n        /* \"#utility.yul\":7170:7327   */\n    tag_76:\n        /* \"#utility.yul\":7275:7320   */\n      tag_169\n        /* \"#utility.yul\":7295:7319   */\n      tag_170\n        /* \"#utility.yul\":7313:7318   */\n      dup3\n        /* \"#utility.yul\":7295:7319   */\n      tag_74\n      jump\t// in\n    tag_170:\n        /* \"#utility.yul\":7275:7320   */\n      tag_75\n      jump\t// in\n    tag_169:\n        /* \"#utility.yul\":7270:7273   */\n      dup3\n        /* \"#utility.yul\":7263:7321   */\n      mstore\n        /* \"#utility.yul\":7170:7327   */\n      pop\n      pop\n      jump\t// out\n        /* \"#utility.yul\":7333:7429   */\n    tag_77:\n        /* \"#utility.yul\":7367:7375   */\n      0x00\n        /* \"#utility.yul\":7416:7421   */\n      dup2\n        /* \"#utility.yul\":7411:7414   */\n      0xf0\n        /* \"#utility.yul\":7407:7422   */\n      shl\n        /* \"#utility.yul\":7386:7422   */\n      swap1\n      pop\n        /* \"#utility.yul\":7333:7429   */\n      swap2\n      swap1\n      pop\n      jump\t// out\n        /* \"#utility.yul\":7435:7529   */\n    tag_78:\n        /* \"#utility.yul\":7473:7480   */\n      0x00\n        /* \"#utility.yul\":7502:7523   */\n      tag_173\n        /* \"#utility.yul\":7517:7522   */\n      dup3\n        /* \"#utility.yul\":7502:7523   */\n      tag_77\n      jump\t// in\n    tag_173:\n        /* \"#utility.yul\":7491:7523   */\n      swap1\n      pop\n        /* \"#utility.yul\":7435:7529   */\n      swap2\n      swap1\n      pop\n      jump\t// out\n        /* \"#utility.yul\":7535:7688   */\n    tag_79:\n        /* \"#utility.yul\":7638:7681   */\n      tag_175\n        /* \"#utility.yul\":7657:7680   */\n      tag_176\n        /* \"#utility.yul\":7674:7679   */\n      dup3\n        /* \"#utility.yul\":7657:7680   */\n      tag_67\n      jump\t// in\n    tag_176:\n        /* \"#utility.yul\":7638:7681   */\n      tag_78\n      jump\t// in\n    tag_175:\n        /* \"#utility.yul\":7633:7636   */\n      dup3\n        /* \"#utility.yul\":7626:7682   */\n      mstore\n        /* \"#utility.yul\":7535:7688   */\n      pop\n      pop\n      jump\t// out\n        /* \"#utility.yul\":7694:7841   */\n    tag_80:\n        /* \"#utility.yul\":7795:7806   */\n      0x00\n        /* \"#utility.yul\":7832:7835   */\n      dup2\n        /* \"#utility.yul\":7817:7835   */\n      swap1\n      pop\n        /* \"#utility.yul\":7694:7841   */\n      swap3\n      swap2\n      pop\n      pop\n      jump\t// out\n        /* \"#utility.yul\":7847:7993   */\n    tag_81:\n        /* \"#utility.yul\":7944:7950   */\n      dup3\n        /* \"#utility.yul\":7939:7942   */\n      dup2\n        /* \"#utility.yul\":7934:7937   */\n      dup4\n        /* \"#utility.yul\":7921:7951   */\n      calldatacopy\n        /* \"#utility.yul\":7985:7986   */\n      0x00\n        /* \"#utility.yul\":7976:7982   */\n      dup4\n        /* \"#utility.yul\":7971:7974   */\n      dup4\n        /* \"#utility.yul\":7967:7983   */\n      add\n        /* \"#utility.yul\":7960:7987   */\n      mstore\n        /* \"#utility.yul\":7847:7993   */\n      pop\n      pop\n      pop\n      jump\t// out\n        /* \"#utility.yul\":8021:8348   */\n    tag_82:\n        /* \"#utility.yul\":8135:8138   */\n      0x00\n        /* \"#utility.yul\":8156:8244   */\n      tag_180\n        /* \"#utility.yul\":8237:8243   */\n      dup4\n        /* \"#utility.yul\":8232:8235   */\n      dup6\n        /* \"#utility.yul\":8156:8244   */\n      tag_80\n      jump\t// in\n    tag_180:\n        /* \"#utility.yul\":8149:8244   */\n      swap4\n      pop\n        /* \"#utility.yul\":8254:8310   */\n      tag_181\n        /* \"#utility.yul\":8303:8309   */\n      dup4\n        /* \"#utility.yul\":8298:8301   */\n      dup6\n        /* \"#utility.yul\":8291:8296   */\n      dup5\n        /* \"#utility.yul\":8254:8310   */\n      tag_81\n      jump\t// in\n    tag_181:\n        /* \"#utility.yul\":8335:8341   */\n      dup3\n        /* \"#utility.yul\":8330:8333   */\n      dup5\n        /* \"#utility.yul\":8326:8342   */\n      add\n        /* \"#utility.yul\":8319:8342   */\n      swap1\n      pop\n        /* \"#utility.yul\":8021:8348   */\n      swap4\n      swap3\n      pop\n      pop\n      pop\n      jump\t// out\n        /* \"#utility.yul\":8354:9481   */\n    tag_34:\n        /* \"#utility.yul\":8658:8661   */\n      0x00\n        /* \"#utility.yul\":8673:8748   */\n      tag_183\n        /* \"#utility.yul\":8744:8747   */\n      dup3\n        /* \"#utility.yul\":8735:8741   */\n      dup12\n        /* \"#utility.yul\":8673:8748   */\n      tag_73\n      jump\t// in\n    tag_183:\n        /* \"#utility.yul\":8773:8775   */\n      0x14\n        /* \"#utility.yul\":8768:8771   */\n      dup3\n        /* \"#utility.yul\":8764:8776   */\n      add\n        /* \"#utility.yul\":8757:8776   */\n      swap2\n      pop\n        /* \"#utility.yul\":8786:8861   */\n      tag_184\n        /* \"#utility.yul\":8857:8860   */\n      dup3\n        /* \"#utility.yul\":8848:8854   */\n      dup11\n        /* \"#utility.yul\":8786:8861   */\n      tag_73\n      jump\t// in\n    tag_184:\n        /* \"#utility.yul\":8886:8888   */\n      0x14\n        /* \"#utility.yul\":8881:8884   */\n      dup3\n        /* \"#utility.yul\":8877:8889   */\n      add\n        /* \"#utility.yul\":8870:8889   */\n      swap2\n      pop\n        /* \"#utility.yul\":8899:8974   */\n      tag_185\n        /* \"#utility.yul\":8970:8973   */\n      dup3\n        /* \"#utility.yul\":8961:8967   */\n      dup10\n        /* \"#utility.yul\":8899:8974   */\n      tag_76\n      jump\t// in\n    tag_185:\n        /* \"#utility.yul\":8999:9001   */\n      0x20\n        /* \"#utility.yul\":8994:8997   */\n      dup3\n        /* \"#utility.yul\":8990:9002   */\n      add\n        /* \"#utility.yul\":8983:9002   */\n      swap2\n      pop\n        /* \"#utility.yul\":9012:9087   */\n      tag_186\n        /* \"#utility.yul\":9083:9086   */\n      dup3\n        /* \"#utility.yul\":9074:9080   */\n      dup9\n        /* \"#utility.yul\":9012:9087   */\n      tag_73\n      jump\t// in\n    tag_186:\n        /* \"#utility.yul\":9112:9114   */\n      0x14\n        /* \"#utility.yul\":9107:9110   */\n      dup3\n        /* \"#utility.yul\":9103:9115   */\n      add\n        /* \"#utility.yul\":9096:9115   */\n      swap2\n      pop\n        /* \"#utility.yul\":9125:9198   */\n      tag_187\n        /* \"#utility.yul\":9194:9197   */\n      dup3\n        /* \"#utility.yul\":9185:9191   */\n      dup8\n        /* \"#utility.yul\":9125:9198   */\n      tag_79\n      jump\t// in\n    tag_187:\n        /* \"#utility.yul\":9223:9224   */\n      0x02\n        /* \"#utility.yul\":9218:9221   */\n      dup3\n        /* \"#utility.yul\":9214:9225   */\n      add\n        /* \"#utility.yul\":9207:9225   */\n      swap2\n      pop\n        /* \"#utility.yul\":9235:9308   */\n      tag_188\n        /* \"#utility.yul\":9304:9307   */\n      dup3\n        /* \"#utility.yul\":9295:9301   */\n      dup7\n        /* \"#utility.yul\":9235:9308   */\n      tag_79\n      jump\t// in\n    tag_188:\n        /* \"#utility.yul\":9333:9334   */\n      0x02\n        /* \"#utility.yul\":9328:9331   */\n      dup3\n        /* \"#utility.yul\":9324:9335   */\n      add\n        /* \"#utility.yul\":9317:9335   */\n      swap2\n      pop\n        /* \"#utility.yul\":9352:9455   */\n      tag_189\n        /* \"#utility.yul\":9451:9454   */\n      dup3\n        /* \"#utility.yul\":9442:9448   */\n      dup5\n        /* \"#utility.yul\":9434:9440   */\n      dup7\n        /* \"#utility.yul\":9352:9455   */\n      tag_82\n      jump\t// in\n    tag_189:\n        /* \"#utility.yul\":9345:9455   */\n      swap2\n      pop\n        /* \"#utility.yul\":9472:9475   */\n      dup2\n        /* \"#utility.yul\":9465:9475   */\n      swap1\n      pop\n        /* \"#utility.yul\":8354:9481   */\n      swap10\n      swap9\n      pop\n      pop\n      pop\n      pop\n      pop\n      pop\n      pop\n      pop\n      pop\n      jump\t// out\n        /* \"#utility.yul\":9487:9591   */\n    tag_83:\n        /* \"#utility.yul\":9532:9539   */\n      0x00\n        /* \"#utility.yul\":9561:9585   */\n      tag_191\n        /* \"#utility.yul\":9579:9584   */\n      dup3\n        /* \"#utility.yul\":9561:9585   */\n      tag_59\n      jump\t// in\n    tag_191:\n        /* \"#utility.yul\":9550:9585   */\n      swap1\n      pop\n        /* \"#utility.yul\":9487:9591   */\n      swap2\n      swap1\n      pop\n      jump\t// out\n        /* \"#utility.yul\":9597:9735   */\n    tag_84:\n        /* \"#utility.yul\":9678:9710   */\n      tag_193\n        /* \"#utility.yul\":9704:9709   */\n      dup2\n        /* \"#utility.yul\":9678:9710   */\n      tag_83\n      jump\t// in\n    tag_193:\n        /* \"#utility.yul\":9671:9676   */\n      dup2\n        /* \"#utility.yul\":9668:9711   */\n      eq\n        /* \"#utility.yul\":9658:9729   */\n      tag_194\n      jumpi\n        /* \"#utility.yul\":9725:9726   */\n      0x00\n        /* \"#utility.yul\":9722:9723   */\n      dup1\n        /* \"#utility.yul\":9715:9727   */\n      revert\n        /* \"#utility.yul\":9658:9729   */\n    tag_194:\n        /* \"#utility.yul\":9597:9735   */\n      pop\n      jump\t// out\n        /* \"#utility.yul\":9741:9896   */\n    tag_85:\n        /* \"#utility.yul\":9795:9800   */\n      0x00\n        /* \"#utility.yul\":9833:9839   */\n      dup2\n        /* \"#utility.yul\":9820:9840   */\n      calldataload\n        /* \"#utility.yul\":9811:9840   */\n      swap1\n      pop\n        /* \"#utility.yul\":9849:9890   */\n      tag_196\n        /* \"#utility.yul\":9884:9889   */\n      dup2\n        /* \"#utility.yul\":9849:9890   */\n      tag_84\n      jump\t// in\n    tag_196:\n        /* \"#utility.yul\":9741:9896   */\n      swap3\n      swap2\n      pop\n      pop\n      jump\t// out\n        /* \"#utility.yul\":9902:10247   */\n    tag_36:\n        /* \"#utility.yul\":9969:9975   */\n      0x00\n        /* \"#utility.yul\":10018:10020   */\n      0x20\n        /* \"#utility.yul\":10006:10015   */\n      dup3\n        /* \"#utility.yul\":9997:10004   */\n      dup5\n        /* \"#utility.yul\":9993:10016   */\n      sub\n        /* \"#utility.yul\":9989:10021   */\n      slt\n        /* \"#utility.yul\":9986:10105   */\n      iszero\n      tag_198\n      jumpi\n        /* \"#utility.yul\":10024:10103   */\n      tag_199\n      tag_50\n      jump\t// in\n    tag_199:\n        /* \"#utility.yul\":9986:10105   */\n    tag_198:\n        /* \"#utility.yul\":10144:10145   */\n      0x00\n        /* \"#utility.yul\":10169:10230   */\n      tag_200\n        /* \"#utility.yul\":10222:10229   */\n      dup5\n        /* \"#utility.yul\":10213:10219   */\n      dup3\n        /* \"#utility.yul\":10202:10211   */\n      dup6\n        /* \"#utility.yul\":10198:10220   */\n      add\n        /* \"#utility.yul\":10169:10230   */\n      tag_85\n      jump\t// in\n    tag_200:\n        /* \"#utility.yul\":10159:10230   */\n      swap2\n      pop\n        /* \"#utility.yul\":10115:10240   */\n      pop\n        /* \"#utility.yul\":9902:10247   */\n      swap3\n      swap2\n      pop\n      pop\n      jump\t// out\n\n    auxdata: 0xa264697066735822122072c4c4e62fbaee3e68851800178a8f5c355d6dd9b7dbff1a922f97bcbd544b0164736f6c63430008170033\n}\n",
				"bytecode": {
					"linkReferences": {},
					"object": "608060405234801561000f575f80fd5b50335f806101000a81548173ffffffffffffffffffffffffffffffffffffffff021916908373ffffffffffffffffffffffffffffffffffffffff1602179055506109618061005c5f395ff3fe608060405234801561000f575f80fd5b506004361061003f575f3560e01c80630f47899114610043578063893d20e8146100745780638da5cb5b14610092575b5f80fd5b61005d6004803603810190610058919061051c565b6100b0565b60405161006b929190610604565b60405180910390f35b61007c610219565b604051610089919061062b565b60405180910390f35b61009a610240565b6040516100a7919061062b565b60405180910390f35b5f8061013d8580602001906100c59190610650565b8080601f0160208091040260200160405190810160405280939291908181526020018383808284375f81840152601f19601f82011690508083019250505050505050865f01602081019061011991906106dc565b73ffffffffffffffffffffffffffffffffffffffff1661026390919063ffffffff16565b915061020e82876020015f01602081019061015891906106dc565b886020016020013589602001604001602081019061017691906106dc565b8a602001606001602081019061018c919061073e565b8b60200160800160208101906101a2919061073e565b8c8060c001906101b29190610650565b6040516020016101c9989796959493929190610847565b604051602081830303815290604052875f0160208101906101ea9190610900565b73ffffffffffffffffffffffffffffffffffffffff1661026390919063ffffffff16565b905094509492505050565b5f805f9054906101000a900473ffffffffffffffffffffffffffffffffffffffff16905090565b5f8054906101000a900473ffffffffffffffffffffffffffffffffffffffff1681565b5f61026f83835f610277565b905092915050565b5f8061028385856102fc565b905080516020820184f091505f73ffffffffffffffffffffffffffffffffffffffff168273ffffffffffffffffffffffffffffffffffffffff16036102f4576040517febfef18800000000000000000000000000000000000000000000000000000000815260040160405180910390fd5b509392505050565b60605f600283510190505f8160410190505f600a820390505f8060405195508386528386016040526020860190507f610000000000000000000000000000000000000000000000000000000000000081528260f01b60018201527f3d81600a3d39f33d3d3d3d363d3d37610000000000000000000000000000000060038201528460f01b60138201527f603736393661000000000000000000000000000000000000000000000000000060158201528460f01b601b8201527f013d730000000000000000000000000000000000000000000000000000000000601d8201528760601b60208201527f5af43d3d93803e603557fd5bf30000000000000000000000000000000000000060348201526002850394505f8590505f6041830190506020890193505b602082106104445783518152602081019050602084019350602082039150610421565b5f6001836020036101000a0319905080855116825282820191508760f01b8252505050505050505092915050565b5f80fd5b5f80fd5b5f80fd5b5f61010082840312156104945761049361047a565b5b81905092915050565b5f606082840312156104b2576104b161047a565b5b81905092915050565b5f80fd5b5f80fd5b5f80fd5b5f8083601f8401126104dc576104db6104bb565b5b8235905067ffffffffffffffff8111156104f9576104f86104bf565b5b602083019150836001820283011115610515576105146104c3565b5b9250929050565b5f805f806060858703121561053457610533610472565b5b5f85013567ffffffffffffffff81111561055157610550610476565b5b61055d8782880161047e565b945050602085013567ffffffffffffffff81111561057e5761057d610476565b5b61058a8782880161049d565b935050604085013567ffffffffffffffff8111156105ab576105aa610476565b5b6105b7878288016104c7565b925092505092959194509250565b5f73ffffffffffffffffffffffffffffffffffffffff82169050919050565b5f6105ee826105c5565b9050919050565b6105fe816105e4565b82525050565b5f6040820190506106175f8301856105f5565b61062460208301846105f5565b9392505050565b5f60208201905061063e5f8301846105f5565b92915050565b5f80fd5b5f80fd5b5f80fd5b5f808335600160200384360303811261066c5761066b610644565b5b80840192508235915067ffffffffffffffff82111561068e5761068d610648565b5b6020830192506001820236038313156106aa576106a961064c565b5b509250929050565b6106bb816105e4565b81146106c5575f80fd5b50565b5f813590506106d6816106b2565b92915050565b5f602082840312156106f1576106f0610472565b5b5f6106fe848285016106c8565b91505092915050565b5f61ffff82169050919050565b61071d81610707565b8114610727575f80fd5b50565b5f8135905061073881610714565b92915050565b5f6020828403121561075357610752610472565b5b5f6107608482850161072a565b91505092915050565b5f8160601b9050919050565b5f61077f82610769565b9050919050565b5f61079082610775565b9050919050565b6107a86107a3826105e4565b610786565b82525050565b5f819050919050565b5f819050919050565b6107d16107cc826107ae565b6107b7565b82525050565b5f8160f01b9050919050565b5f6107ed826107d7565b9050919050565b61080561080082610707565b6107e3565b82525050565b5f81905092915050565b828183375f83830152505050565b5f61082e838561080b565b935061083b838584610815565b82840190509392505050565b5f610852828b610797565b601482019150610862828a610797565b60148201915061087282896107c0565b6020820191506108828288610797565b60148201915061089282876107f4565b6002820191506108a282866107f4565b6002820191506108b3828486610823565b91508190509998505050505050505050565b5f6108cf826105c5565b9050919050565b6108df816108c5565b81146108e9575f80fd5b50565b5f813590506108fa816108d6565b92915050565b5f6020828403121561091557610914610472565b5b5f610922848285016108ec565b9150509291505056fea264697066735822122072c4c4e62fbaee3e68851800178a8f5c355d6dd9b7dbff1a922f97bcbd544b0164736f6c63430008170033",
					"opcodes": "PUSH1 0x80 PUSH1 0x40 MSTORE CALLVALUE DUP1 ISZERO PUSH2 0xF JUMPI PUSH0 DUP1 REVERT JUMPDEST POP CALLER PUSH0 DUP1 PUSH2 0x100 EXP DUP2 SLOAD DUP2 PUSH20 0xFFFFFFFFFFFFFFFFFFFFFFFFFFFFFFFFFFFFFFFF MUL NOT AND SWAP1 DUP4 PUSH20 0xFFFFFFFFFFFFFFFFFFFFFFFFFFFFFFFFFFFFFFFF AND MUL OR SWAP1 SSTORE POP PUSH2 0x961 DUP1 PUSH2 0x5C PUSH0 CODECOPY PUSH0 RETURN INVALID PUSH1 0x80 PUSH1 0x40 MSTORE CALLVALUE DUP1 ISZERO PUSH2 0xF JUMPI PUSH0 DUP1 REVERT JUMPDEST POP PUSH1 0x4 CALLDATASIZE LT PUSH2 0x3F JUMPI PUSH0 CALLDATALOAD PUSH1 0xE0 SHR DUP1 PUSH4 0xF478991 EQ PUSH2 0x43 JUMPI DUP1 PUSH4 0x893D20E8 EQ PUSH2 0x74 JUMPI DUP1 PUSH4 0x8DA5CB5B EQ PUSH2 0x92 JUMPI JUMPDEST PUSH0 DUP1 REVERT JUMPDEST PUSH2 0x5D PUSH1 0x4 DUP1 CALLDATASIZE SUB DUP2 ADD SWAP1 PUSH2 0x58 SWAP2 SWAP1 PUSH2 0x51C JUMP JUMPDEST PUSH2 0xB0 JUMP JUMPDEST PUSH1 0x40 MLOAD PUSH2 0x6B SWAP3 SWAP2 SWAP1 PUSH2 0x604 JUMP JUMPDEST PUSH1 0x40 MLOAD DUP1 SWAP2 SUB SWAP1 RETURN JUMPDEST PUSH2 0x7C PUSH2 0x219 JUMP JUMPDEST PUSH1 0x40 MLOAD PUSH2 0x89 SWAP2 SWAP1 PUSH2 0x62B JUMP JUMPDEST PUSH1 0x40 MLOAD DUP1 SWAP2 SUB SWAP1 RETURN JUMPDEST PUSH2 0x9A PUSH2 0x240 JUMP JUMPDEST PUSH1 0x40 MLOAD PUSH2 0xA7 SWAP2 SWAP1 PUSH2 0x62B JUMP JUMPDEST PUSH1 0x40 MLOAD DUP1 SWAP2 SUB SWAP1 RETURN JUMPDEST PUSH0 DUP1 PUSH2 0x13D DUP6 DUP1 PUSH1 0x20 ADD SWAP1 PUSH2 0xC5 SWAP2 SWAP1 PUSH2 0x650 JUMP JUMPDEST DUP1 DUP1 PUSH1 0x1F ADD PUSH1 0x20 DUP1 SWAP2 DIV MUL PUSH1 0x20 ADD PUSH1 0x40 MLOAD SWAP1 DUP2 ADD PUSH1 0x40 MSTORE DUP1 SWAP4 SWAP3 SWAP2 SWAP1 DUP2 DUP2 MSTORE PUSH1 0x20 ADD DUP4 DUP4 DUP1 DUP3 DUP5 CALLDATACOPY PUSH0 DUP2 DUP5 ADD MSTORE PUSH1 0x1F NOT PUSH1 0x1F DUP3 ADD AND SWAP1 POP DUP1 DUP4 ADD SWAP3 POP POP POP POP POP POP POP DUP7 PUSH0 ADD PUSH1 0x20 DUP2 ADD SWAP1 PUSH2 0x119 SWAP2 SWAP1 PUSH2 0x6DC JUMP JUMPDEST PUSH20 0xFFFFFFFFFFFFFFFFFFFFFFFFFFFFFFFFFFFFFFFF AND PUSH2 0x263 SWAP1 SWAP2 SWAP1 PUSH4 0xFFFFFFFF AND JUMP JUMPDEST SWAP2 POP PUSH2 0x20E DUP3 DUP8 PUSH1 0x20 ADD PUSH0 ADD PUSH1 0x20 DUP2 ADD SWAP1 PUSH2 0x158 SWAP2 SWAP1 PUSH2 0x6DC JUMP JUMPDEST DUP9 PUSH1 0x20 ADD PUSH1 0x20 ADD CALLDATALOAD DUP10 PUSH1 0x20 ADD PUSH1 0x40 ADD PUSH1 0x20 DUP2 ADD SWAP1 PUSH2 0x176 SWAP2 SWAP1 PUSH2 0x6DC JUMP JUMPDEST DUP11 PUSH1 0x20 ADD PUSH1 0x60 ADD PUSH1 0x20 DUP2 ADD SWAP1 PUSH2 0x18C SWAP2 SWAP1 PUSH2 0x73E JUMP JUMPDEST DUP12 PUSH1 0x20 ADD PUSH1 0x80 ADD PUSH1 0x20 DUP2 ADD SWAP1 PUSH2 0x1A2 SWAP2 SWAP1 PUSH2 0x73E JUMP JUMPDEST DUP13 DUP1 PUSH1 0xC0 ADD SWAP1 PUSH2 0x1B2 SWAP2 SWAP1 PUSH2 0x650 JUMP JUMPDEST PUSH1 0x40 MLOAD PUSH1 0x20 ADD PUSH2 0x1C9 SWAP9 SWAP8 SWAP7 SWAP6 SWAP5 SWAP4 SWAP3 SWAP2 SWAP1 PUSH2 0x847 JUMP JUMPDEST PUSH1 0x40 MLOAD PUSH1 0x20 DUP2 DUP4 SUB SUB DUP2 MSTORE SWAP1 PUSH1 0x40 MSTORE DUP8 PUSH0 ADD PUSH1 0x20 DUP2 ADD SWAP1 PUSH2 0x1EA SWAP2 SWAP1 PUSH2 0x900 JUMP JUMPDEST PUSH20 0xFFFFFFFFFFFFFFFFFFFFFFFFFFFFFFFFFFFFFFFF AND PUSH2 0x263 SWAP1 SWAP2 SWAP1 PUSH4 0xFFFFFFFF AND JUMP JUMPDEST SWAP1 POP SWAP5 POP SWAP5 SWAP3 POP POP POP JUMP JUMPDEST PUSH0 DUP1 PUSH0 SWAP1 SLOAD SWAP1 PUSH2 0x100 EXP SWAP1 DIV PUSH20 0xFFFFFFFFFFFFFFFFFFFFFFFFFFFFFFFFFFFFFFFF AND SWAP1 POP SWAP1 JUMP JUMPDEST PUSH0 DUP1 SLOAD SWAP1 PUSH2 0x100 EXP SWAP1 DIV PUSH20 0xFFFFFFFFFFFFFFFFFFFFFFFFFFFFFFFFFFFFFFFF AND DUP2 JUMP JUMPDEST PUSH0 PUSH2 0x26F DUP4 DUP4 PUSH0 PUSH2 0x277 JUMP JUMPDEST SWAP1 POP SWAP3 SWAP2 POP POP JUMP JUMPDEST PUSH0 DUP1 PUSH2 0x283 DUP6 DUP6 PUSH2 0x2FC JUMP JUMPDEST SWAP1 POP DUP1 MLOAD PUSH1 0x20 DUP3 ADD DUP5 CREATE SWAP2 POP PUSH0 PUSH20 0xFFFFFFFFFFFFFFFFFFFFFFFFFFFFFFFFFFFFFFFF AND DUP3 PUSH20 0xFFFFFFFFFFFFFFFFFFFFFFFFFFFFFFFFFFFFFFFF AND SUB PUSH2 0x2F4 JUMPI PUSH1 0x40 MLOAD PUSH32 0xEBFEF18800000000000000000000000000000000000000000000000000000000 DUP2 MSTORE PUSH1 0x4 ADD PUSH1 0x40 MLOAD DUP1 SWAP2 SUB SWAP1 REVERT JUMPDEST POP SWAP4 SWAP3 POP POP POP JUMP JUMPDEST PUSH1 0x60 PUSH0 PUSH1 0x2 DUP4 MLOAD ADD SWAP1 POP PUSH0 DUP2 PUSH1 0x41 ADD SWAP1 POP PUSH0 PUSH1 0xA DUP3 SUB SWAP1 POP PUSH0 DUP1 PUSH1 0x40 MLOAD SWAP6 POP DUP4 DUP7 MSTORE DUP4 DUP7 ADD PUSH1 0x40 MSTORE PUSH1 0x20 DUP7 ADD SWAP1 POP PUSH32 0x6100000000000000000000000000000000000000000000000000000000000000 DUP2 MSTORE DUP3 PUSH1 0xF0 SHL PUSH1 0x1 DUP3 ADD MSTORE PUSH32 0x3D81600A3D39F33D3D3D3D363D3D376100000000000000000000000000000000 PUSH1 0x3 DUP3 ADD MSTORE DUP5 PUSH1 0xF0 SHL PUSH1 0x13 DUP3 ADD MSTORE PUSH32 0x6037363936610000000000000000000000000000000000000000000000000000 PUSH1 0x15 DUP3 ADD MSTORE DUP5 PUSH1 0xF0 SHL PUSH1 0x1B DUP3 ADD MSTORE PUSH32 0x13D730000000000000000000000000000000000000000000000000000000000 PUSH1 0x1D DUP3 ADD MSTORE DUP8 PUSH1 0x60 SHL PUSH1 0x20 DUP3 ADD MSTORE PUSH32 0x5AF43D3D93803E603557FD5BF300000000000000000000000000000000000000 PUSH1 0x34 DUP3 ADD MSTORE PUSH1 0x2 DUP6 SUB SWAP5 POP PUSH0 DUP6 SWAP1 POP PUSH0 PUSH1 0x41 DUP4 ADD SWAP1 POP PUSH1 0x20 DUP10 ADD SWAP4 POP JUMPDEST PUSH1 0x20 DUP3 LT PUSH2 0x444 JUMPI DUP4 MLOAD DUP2 MSTORE PUSH1 0x20 DUP2 ADD SWAP1 POP PUSH1 0x20 DUP5 ADD SWAP4 POP PUSH1 0x20 DUP3 SUB SWAP2 POP PUSH2 0x421 JUMP JUMPDEST PUSH0 PUSH1 0x1 DUP4 PUSH1 0x20 SUB PUSH2 0x100 EXP SUB NOT SWAP1 POP DUP1 DUP6 MLOAD AND DUP3 MSTORE DUP3 DUP3 ADD SWAP2 POP DUP8 PUSH1 0xF0 SHL DUP3 MSTORE POP POP POP POP POP POP POP POP SWAP3 SWAP2 POP POP JUMP JUMPDEST PUSH0 DUP1 REVERT JUMPDEST PUSH0 DUP1 REVERT JUMPDEST PUSH0 DUP1 REVERT JUMPDEST PUSH0 PUSH2 0x100 DUP3 DUP5 SUB SLT ISZERO PUSH2 0x494 JUMPI PUSH2 0x493 PUSH2 0x47A JUMP JUMPDEST JUMPDEST DUP2 SWAP1 POP SWAP3 SWAP2 POP POP JUMP JUMPDEST PUSH0 PUSH1 0x60 DUP3 DUP5 SUB SLT ISZERO PUSH2 0x4B2 JUMPI PUSH2 0x4B1 PUSH2 0x47A JUMP JUMPDEST JUMPDEST DUP2 SWAP1 POP SWAP3 SWAP2 POP POP JUMP JUMPDEST PUSH0 DUP1 REVERT JUMPDEST PUSH0 DUP1 REVERT JUMPDEST PUSH0 DUP1 REVERT JUMPDEST PUSH0 DUP1 DUP4 PUSH1 0x1F DUP5 ADD SLT PUSH2 0x4DC JUMPI PUSH2 0x4DB PUSH2 0x4BB JUMP JUMPDEST JUMPDEST DUP3 CALLDATALOAD SWAP1 POP PUSH8 0xFFFFFFFFFFFFFFFF DUP2 GT ISZERO PUSH2 0x4F9 JUMPI PUSH2 0x4F8 PUSH2 0x4BF JUMP JUMPDEST JUMPDEST PUSH1 0x20 DUP4 ADD SWAP2 POP DUP4 PUSH1 0x1 DUP3 MUL DUP4 ADD GT ISZERO PUSH2 0x515 JUMPI PUSH2 0x514 PUSH2 0x4C3 JUMP JUMPDEST JUMPDEST SWAP3 POP SWAP3 SWAP1 POP JUMP JUMPDEST PUSH0 DUP1 PUSH0 DUP1 PUSH1 0x60 DUP6 DUP8 SUB SLT ISZERO PUSH2 0x534 JUMPI PUSH2 0x533 PUSH2 0x472 JUMP JUMPDEST JUMPDEST PUSH0 DUP6 ADD CALLDATALOAD PUSH8 0xFFFFFFFFFFFFFFFF DUP2 GT ISZERO PUSH2 0x551 JUMPI PUSH2 0x550 PUSH2 0x476 JUMP JUMPDEST JUMPDEST PUSH2 0x55D DUP8 DUP3 DUP9 ADD PUSH2 0x47E JUMP JUMPDEST SWAP5 POP POP PUSH1 0x20 DUP6 ADD CALLDATALOAD PUSH8 0xFFFFFFFFFFFFFFFF DUP2 GT ISZERO PUSH2 0x57E JUMPI PUSH2 0x57D PUSH2 0x476 JUMP JUMPDEST JUMPDEST PUSH2 0x58A DUP8 DUP3 DUP9 ADD PUSH2 0x49D JUMP JUMPDEST SWAP4 POP POP PUSH1 0x40 DUP6 ADD CALLDATALOAD PUSH8 0xFFFFFFFFFFFFFFFF DUP2 GT ISZERO PUSH2 0x5AB JUMPI PUSH2 0x5AA PUSH2 0x476 JUMP JUMPDEST JUMPDEST PUSH2 0x5B7 DUP8 DUP3 DUP9 ADD PUSH2 0x4C7 JUMP JUMPDEST SWAP3 POP SWAP3 POP POP SWAP3 SWAP6 SWAP2 SWAP5 POP SWAP3 POP JUMP JUMPDEST PUSH0 PUSH20 0xFFFFFFFFFFFFFFFFFFFFFFFFFFFFFFFFFFFFFFFF DUP3 AND SWAP1 POP SWAP2 SWAP1 POP JUMP JUMPDEST PUSH0 PUSH2 0x5EE DUP3 PUSH2 0x5C5 JUMP JUMPDEST SWAP1 POP SWAP2 SWAP1 POP JUMP JUMPDEST PUSH2 0x5FE DUP2 PUSH2 0x5E4 JUMP JUMPDEST DUP3 MSTORE POP POP JUMP JUMPDEST PUSH0 PUSH1 0x40 DUP3 ADD SWAP1 POP PUSH2 0x617 PUSH0 DUP4 ADD DUP6 PUSH2 0x5F5 JUMP JUMPDEST PUSH2 0x624 PUSH1 0x20 DUP4 ADD DUP5 PUSH2 0x5F5 JUMP JUMPDEST SWAP4 SWAP3 POP POP POP JUMP JUMPDEST PUSH0 PUSH1 0x20 DUP3 ADD SWAP1 POP PUSH2 0x63E PUSH0 DUP4 ADD DUP5 PUSH2 0x5F5 JUMP JUMPDEST SWAP3 SWAP2 POP POP JUMP JUMPDEST PUSH0 DUP1 REVERT JUMPDEST PUSH0 DUP1 REVERT JUMPDEST PUSH0 DUP1 REVERT JUMPDEST PUSH0 DUP1 DUP4 CALLDATALOAD PUSH1 0x1 PUSH1 0x20 SUB DUP5 CALLDATASIZE SUB SUB DUP2 SLT PUSH2 0x66C JUMPI PUSH2 0x66B PUSH2 0x644 JUMP JUMPDEST JUMPDEST DUP1 DUP5 ADD SWAP3 POP DUP3 CALLDATALOAD SWAP2 POP PUSH8 0xFFFFFFFFFFFFFFFF DUP3 GT ISZERO PUSH2 0x68E JUMPI PUSH2 0x68D PUSH2 0x648 JUMP JUMPDEST JUMPDEST PUSH1 0x20 DUP4 ADD SWAP3 POP PUSH1 0x1 DUP3 MUL CALLDATASIZE SUB DUP4 SGT ISZERO PUSH2 0x6AA JUMPI PUSH2 0x6A9 PUSH2 0x64C JUMP JUMPDEST JUMPDEST POP SWAP3 POP SWAP3 SWAP1 POP JUMP JUMPDEST PUSH2 0x6BB DUP2 PUSH2 0x5E4 JUMP JUMPDEST DUP2 EQ PUSH2 0x6C5 JUMPI PUSH0 DUP1 REVERT JUMPDEST POP JUMP JUMPDEST PUSH0 DUP2 CALLDATALOAD SWAP1 POP PUSH2 0x6D6 DUP2 PUSH2 0x6B2 JUMP JUMPDEST SWAP3 SWAP2 POP POP JUMP JUMPDEST PUSH0 PUSH1 0x20 DUP3 DUP5 SUB SLT ISZERO PUSH2 0x6F1 JUMPI PUSH2 0x6F0 PUSH2 0x472 JUMP JUMPDEST JUMPDEST PUSH0 PUSH2 0x6FE DUP5 DUP3 DUP6 ADD PUSH2 0x6C8 JUMP JUMPDEST SWAP2 POP POP SWAP3 SWAP2 POP POP JUMP JUMPDEST PUSH0 PUSH2 0xFFFF DUP3 AND SWAP1 POP SWAP2 SWAP1 POP JUMP JUMPDEST PUSH2 0x71D DUP2 PUSH2 0x707 JUMP JUMPDEST DUP2 EQ PUSH2 0x727 JUMPI PUSH0 DUP1 REVERT JUMPDEST POP JUMP JUMPDEST PUSH0 DUP2 CALLDATALOAD SWAP1 POP PUSH2 0x738 DUP2 PUSH2 0x714 JUMP JUMPDEST SWAP3 SWAP2 POP POP JUMP JUMPDEST PUSH0 PUSH1 0x20 DUP3 DUP5 SUB SLT ISZERO PUSH2 0x753 JUMPI PUSH2 0x752 PUSH2 0x472 JUMP JUMPDEST JUMPDEST PUSH0 PUSH2 0x760 DUP5 DUP3 DUP6 ADD PUSH2 0x72A JUMP JUMPDEST SWAP2 POP POP SWAP3 SWAP2 POP POP JUMP JUMPDEST PUSH0 DUP2 PUSH1 0x60 SHL SWAP1 POP SWAP2 SWAP1 POP JUMP JUMPDEST PUSH0 PUSH2 0x77F DUP3 PUSH2 0x769 JUMP JUMPDEST SWAP1 POP SWAP2 SWAP1 POP JUMP JUMPDEST PUSH0 PUSH2 0x790 DUP3 PUSH2 0x775 JUMP JUMPDEST SWAP1 POP SWAP2 SWAP1 POP JUMP JUMPDEST PUSH2 0x7A8 PUSH2 0x7A3 DUP3 PUSH2 0x5E4 JUMP JUMPDEST PUSH2 0x786 JUMP JUMPDEST DUP3 MSTORE POP POP JUMP JUMPDEST PUSH0 DUP2 SWAP1 POP SWAP2 SWAP1 POP JUMP JUMPDEST PUSH0 DUP2 SWAP1 POP SWAP2 SWAP1 POP JUMP JUMPDEST PUSH2 0x7D1 PUSH2 0x7CC DUP3 PUSH2 0x7AE JUMP JUMPDEST PUSH2 0x7B7 JUMP JUMPDEST DUP3 MSTORE POP POP JUMP JUMPDEST PUSH0 DUP2 PUSH1 0xF0 SHL SWAP1 POP SWAP2 SWAP1 POP JUMP JUMPDEST PUSH0 PUSH2 0x7ED DUP3 PUSH2 0x7D7 JUMP JUMPDEST SWAP1 POP SWAP2 SWAP1 POP JUMP JUMPDEST PUSH2 0x805 PUSH2 0x800 DUP3 PUSH2 0x707 JUMP JUMPDEST PUSH2 0x7E3 JUMP JUMPDEST DUP3 MSTORE POP POP JUMP JUMPDEST PUSH0 DUP2 SWAP1 POP SWAP3 SWAP2 POP POP JUMP JUMPDEST DUP3 DUP2 DUP4 CALLDATACOPY PUSH0 DUP4 DUP4 ADD MSTORE POP POP POP JUMP JUMPDEST PUSH0 PUSH2 0x82E DUP4 DUP6 PUSH2 0x80B JUMP JUMPDEST SWAP4 POP PUSH2 0x83B DUP4 DUP6 DUP5 PUSH2 0x815 JUMP JUMPDEST DUP3 DUP5 ADD SWAP1 POP SWAP4 SWAP3 POP POP POP JUMP JUMPDEST PUSH0 PUSH2 0x852 DUP3 DUP12 PUSH2 0x797 JUMP JUMPDEST PUSH1 0x14 DUP3 ADD SWAP2 POP PUSH2 0x862 DUP3 DUP11 PUSH2 0x797 JUMP JUMPDEST PUSH1 0x14 DUP3 ADD SWAP2 POP PUSH2 0x872 DUP3 DUP10 PUSH2 0x7C0 JUMP JUMPDEST PUSH1 0x20 DUP3 ADD SWAP2 POP PUSH2 0x882 DUP3 DUP9 PUSH2 0x797 JUMP JUMPDEST PUSH1 0x14 DUP3 ADD SWAP2 POP PUSH2 0x892 DUP3 DUP8 PUSH2 0x7F4 JUMP JUMPDEST PUSH1 0x2 DUP3 ADD SWAP2 POP PUSH2 0x8A2 DUP3 DUP7 PUSH2 0x7F4 JUMP JUMPDEST PUSH1 0x2 DUP3 ADD SWAP2 POP PUSH2 0x8B3 DUP3 DUP5 DUP7 PUSH2 0x823 JUMP JUMPDEST SWAP2 POP DUP2 SWAP1 POP SWAP10 SWAP9 POP POP POP POP POP POP POP POP POP JUMP JUMPDEST PUSH0 PUSH2 0x8CF DUP3 PUSH2 0x5C5 JUMP JUMPDEST SWAP1 POP SWAP2 SWAP1 POP JUMP JUMPDEST PUSH2 0x8DF DUP2 PUSH2 0x8C5 JUMP JUMPDEST DUP2 EQ PUSH2 0x8E9 JUMPI PUSH0 DUP1 REVERT JUMPDEST POP JUMP JUMPDEST PUSH0 DUP2 CALLDATALOAD SWAP1 POP PUSH2 0x8FA DUP2 PUSH2 0x8D6 JUMP JUMPDEST SWAP3 SWAP2 POP POP JUMP JUMPDEST PUSH0 PUSH1 0x20 DUP3 DUP5 SUB SLT ISZERO PUSH2 0x915 JUMPI PUSH2 0x914 PUSH2 0x472 JUMP JUMPDEST JUMPDEST PUSH0 PUSH2 0x922 DUP5 DUP3 DUP6 ADD PUSH2 0x8EC JUMP JUMPDEST SWAP2 POP POP SWAP3 SWAP2 POP POP JUMP INVALID LOG2 PUSH5 0x6970667358 0x22 SLT KECCAK256 PUSH19 0xC4C4E62FBAEE3E68851800178A8F5C355D6DD9 0xB7 0xDB SELFDESTRUCT BYTE SWAP3 0x2F SWAP8 0xBC 0xBD SLOAD 0x4B ADD PUSH5 0x736F6C6343 STOP ADDMOD OR STOP CALLER "
				},
				"gasEstimates": {
					"creation": {
						"codeDepositCost": "480200",
						"executionCost": "24781",
						"totalCost": "504981"
					},
					"external": {
						"deployWrap((address,(address,uint256,address,uint16,uint16),bytes,bytes),(address,bytes,bytes),bytes)": "infinite",
						"getOwner()": "2515",
						"owner()": "2527"
					}
				},
				"methodIdentifiers": {
					"deployWrap((address,(address,uint256,address,uint16,uint16),bytes,bytes),(address,bytes,bytes),bytes)": "0f478991",
					"getOwner()": "893d20e8",
					"owner()": "8da5cb5b"
				}
			},
			"storageLayout": {
				"storage": [
					{
						"astId": 146,
						"contract": "ReflectionFactoryImp.sol:FactoryImp",
						"label": "owner",
						"offset": 0,
						"slot": "0",
						"type": "t_address"
					}
				],
				"types": {
					"t_address": {
						"encoding": "inplace",
						"label": "address",
						"numberOfBytes": "20"
					}
				}
			},
			"userdoc": {
				"kind": "user",
				"methods": {},
				"version": 1
			}
		}
	}
}